:100000000C94B0000C94D8000C94D8000C94D80038
:100010000C94D8000C94D8000C94D8000C94D80000
:100020000C94D8000C94D8000C94D8000C94D800F0
:100030000C94D8000C94D8000C94D8000C94D800E0
:100040000C94CD0A0C94D8000C949B0A0C94750A5D
:100050000C94D8000C94D8000C94D8000C94D800C0
:100060000C94D8000C94D80005A84CCDB2D44EB94D
:100070003836A9020C50B9918688083CA6AAAA2A4B
:10008000BE000000803F00000008000201000003E5
:100090000407000000000000000000000000F3045E
:1000A000353F5E836C3FBE147B3F6DC47E3F0FB116
:1000B0007F3F43EC7F3F11FB7F3FC4FE7F3FB1FF9B
:1000C0007F3FECFF7F3FFBFF7F3FFFFF7F3F000055
:1000D000803F0000803F0000803F0000803F000024
:1000E000803FF304353F15EFC33EC2C5473E36BDE2
:1000F000C83D30FB483DB00AC93C900E493C880FD2
:10010000C93BC60F493BD60FC93AD90F493ADB0F55
:10011000C939DB0F4939DB0FC938DB0F4938BF0F4D
:10012000C93700000000250028002B000000000057
:10013000240027002A000404040404040404020226
:100140000202020203030303030301020408102056
:100150004080010204081020010204081020170B3F
:1001600011241FBECFEFD8E0DEBFCDBF11E0A0E06D
:10017000B1E0EEECF6E202C005900D92AE34B107AC
:10018000D9F726E0AEE4B1E001C01D92AF35B20769
:10019000E1F710E0C0EBD0E004C02197FE010E941F
:1001A0005F13CF3AD107C9F70E947C0B0C946513FB
:1001B0000C94000090E0FC01E65BFE4F24918A5C09
:1001C0009E4FFC018491882399F090E0880F991F3D
:1001D000FC01E45DFE4FA591B491FC01EE5DFE4F84
:1001E000859194918FB7F894EC91E22BEC938FBFAB
:1001F0000895AF92BF92CF92DF92EF92FF920F934A
:100200001F93CF93DF936C017B018B01040F151FAC
:10021000EB015E01AE18BF08C017D10759F0699114
:10022000D601ED91FC910190F081E02DC601099578
:10023000892B79F7C501DF91CF911F910F91FF9025
:10024000EF90DF90CF90BF90AF900895FC01538D59
:10025000448D252F30E0842F90E0821B930B5417A0
:1002600010F0CF96089501970895FC01918D828D2D
:10027000981761F0A28DAE0FBF2FB11D5D968C91C6
:10028000928D9F5F9F73928F90E008958FEF9FEF05
:100290000895FC01918D828D981731F0828DE80FC1
:1002A000F11D858D90E008958FEF9FEF0895FC017B
:1002B000918D228D892F90E0805C9F4F821B910948
:1002C0008F73992708958FE595E00E94570121E0EB
:1002D000892B09F420E0822F089580E090E0892B9B
:1002E00029F00E94630181110C9400000895FC0123
:1002F000A48DA80FB92FB11DA35ABF4F2C91848D87
:1003000090E001968F739927848FA689B7892C93E3
:10031000A089B1898C91837080648C93938D848D36
:10032000981306C00288F389E02D80818F7D808339
:100330000895EF92FF920F931F93CF93DF93EC01F9
:1003400081E0888F9B8D8C8D98131AC0E889F9897C
:10035000808185FF15C09FB7F894EE89FF8960837F
:10036000E889F98980818370806480839FBF81E000
:1003700090E0DF91CF911F910F91FF90EF90089542
:10038000F62E0B8D10E00F5F1F4F0F731127E02E1D
:100390008C8D8E110CC00FB607FCFACFE889F98955
:1003A000808185FFF5CFCE010E947701F1CFEB8DE3
:1003B000EC0FFD2FF11DE35AFF4FF0829FB7F89429
:1003C0000B8FEA89FB8980818062CFCFCF93DF9347
:1003D000EC01888D8823B9F0AA89BB89E889F9895D
:1003E0008C9185FD03C0808186FD0DC00FB607FC92
:1003F000F7CF8C9185FFF2CF808185FFEDCFCE01C5
:100400000E947701E9CFDF91CF91089590E0FC0140
:10041000EA57FF4F2491FC01E65BFE4F3491FC014B
:10042000EA5CFE4FE491EE23C9F0222339F0233039
:1004300001F1A8F4213019F1223029F1F0E0EE0F9A
:10044000FF1FEE5DFE4FA591B4918FB7F894EC912C
:10045000611126C030953E233C938FBF089527300D
:10046000A9F02830C9F0243049F7809180008F7DB1
:1004700003C0809180008F7780938000DFCF84B5A8
:100480008F7784BDDBCF84B58F7DFBCF8091B000AB
:100490008F778093B000D2CF8091B0008F7DF9CF5D
:1004A0003E2BDACF3FB7F8948091550390915603D5
:1004B000A0915703B091580326B5A89B05C02F3FC4
:1004C00019F00196A11DB11D3FBFBA2FA92F982F7A
:1004D0008827BC01CD01620F711D811D911D42E075
:1004E000660F771F881F991F4A95D1F7089561E01D
:1004F000FC0184810E94060280914E0181111092BC
:100500004E0108958EBD00000DB407FEFDCF8EB5DF
:1005100008958FEF0C9482020F931F93CF93DF9374
:100520008C012FB7F89480915B0590915C05A091A8
:100530005D05B0915E052FBFEC010E9489028F3FDF
:10054000B1F02FB7F89480915B0590915C05A09174
:100550005D05B0915E052FBF8C1B9D0B8017910729
:1005600060F380E0DF91CF911F910F91089581E0BA
:10057000F9CFCF92DF92EF92FF920F931F93CF9319
:10058000DF93EC01162F69017A018E81882389F0AF
:100590008F8198859C012F5F3F4F38872F83823052
:1005A000924018F40E948902F3CFCE010E94770294
:1005B0001E8280914E01811109C081E080934E011D
:1005C0009091FC058091FD059CBD8DBD60E08C8106
:1005D0000E9406028CE291E00E948C02812F8064CE
:1005E0000E94820208E110E0D701C601002E04C07B
:1005F000B695A795979587950A94D2F70E9482029F
:1006000008501109083F8FEF180771F78FEF0E940C
:10061000820210E00E9489028A8787FF04C01F3F80
:1006200011F01F5FF7CFDF91CF911F910F91FF90D6
:10063000EF90DF90CF900895EF92FF920F931F936A
:10064000CF93DF93EC01790182E1411551056105FA
:10065000710599F08B85833039F089E0440F551F7F
:10066000661F771F8A95D1F79A01AB0168E1CE0129
:100670000E94B902882319F084E08D8330C08EEF88
:100680000E94820287018EEFF81AF80181918F0192
:100690000E9482020E151F05C1F78FEF0E94820291
:1006A0008FEF0E9482020E9489028A878F718530B3
:1006B00089F488E592E00E948C028823A9F020E06A
:1006C00030E0A9016DE0CE010E94B902882371F0EB
:1006D00084E1D3CF81E18D83CE010E947702CE01E8
:1006E0000E94770280E00AC085E1C7CF0E9489029C
:1006F0008111EECFCE010E94770281E0DF91CF9190
:100700001F910F91FF90EF90089580914F018823E2
:1007100089F14091000150910101609102017091B5
:10072000030124E531E090E080E00E941C03811188
:1007300002C080E0089540915001509151016091B4
:10074000520170915301411551056105710581F008
:1007500024E531E090E080E00E941C03882349F307
:1007600010925001109251011092520110925301B7
:1007700010924F0181E00895AF92BF92CF92DF9225
:10078000EF92FF921F93CF93DF936B017C01142FA5
:100790008091000190910101A0910201B0910301AB
:1007A0008C159D05AE05BF0509F4BEC00E948503EA
:1007B0008823E1F1809106008823A1F08091000058
:1007C00090910100A0910200B0910300C816D906D3
:1007D000EA06FB0639F48091070090910800892B06
:1007E00009F461C0C0920000D0920100E0920200C2
:1007F000F092030080910B00A7019601833039F03D
:1008000099E0220F331F441F551F9A95D1F761E1DC
:1008100090E080E00E94B902882391F083E0809309
:10082000050090E080E00E94770280E0DF91CF91A8
:100830001F91FF90EF90DF90CF90BF90AF90089501
:100840002FB7F89480915B0590915C05A0915D05B0
:10085000B0915E052FBFEC010E94890280930A00CF
:100860008F3FC1F42FB7F89480915B0590915C05A0
:10087000A0915D05B0915E052FBF8C1B9D0B8D3245
:10088000914050F38FE08093050090E080E00E945B
:100890007702C7CF8E3FC1F5109208001092070073
:1008A00081E080930600C4E5D1E084E5A82E83E0D2
:1008B000B82E0E9489028993AC16BD06D1F78091AB
:1008C0000700909108009E5F9093080080930700B6
:1008D00020910900222319F081159240E8F08091BF
:1008E00006008823C9F080910700909108009C01C0
:1008F0002F5F3F4F309308002093070082309240D3
:1009000028F40E948902EFCF8DE0BDCF90E080E017
:100910000E94770210920600C0920001D09201015D
:10092000E0920201F092030140914F01412B40936C
:100930004F0181E07BCF4F925F926F927F928F92B7
:100940009F92AF92BF92CF92DF92EF92FF920F935E
:100950001F93CF93DF93EC01423051056105710580
:1009600090F480E0DF91CF911F910F91FF90EF9075
:10097000DF90CF90BF90AF909F908F907F906F90BF
:100980005F904F90089589859A85AB85BC850196C7
:10099000A11DB11D84179507A607B70710F3CB88D3
:1009A000DC88ED88FE888F89803109F042C0BB2742
:1009B000A72F962F852F480159012A013B01C80E08
:1009C000D91EEA1EFB1E8091000190910101A091A9
:1009D0000201B0910301C816D906EA06FB0699F593
:1009E0008F898031C1F5B301A2015527662777278A
:1009F000440F551F4C5A5E4FFA01918280828091BC
:100A00004F01816080934F018A89823080F08D810F
:100A10009E81AF81B8858C0D9D1DAE1DBF1D80933D
:100A2000500190935101A0935201B093530181E082
:100A300099CFDB01CA01E7E0B695A7959795879511
:100A4000EA95D1F7B8CF40E0C701B6010E94BC03D8
:100A50008111C6CF86CFB301A2014F7755276627F4
:100A60007727440F551F440F551F4C5A5E4FFA010C
:100A700080829182A282B382C2CF8F929F92AF92E4
:100A8000BF92CF92DF92EF92FF920F931F93CF937B
:100A9000DF93FC0181859285A385B4850196A11D14
:100AA000B11D84179507A607B70770F480E0DF91A2
:100AB000CF911F910F91FF90EF90DF90CF90BF905B
:100AC000AF909F908F90089583889488A588B6886A
:100AD0008789803189F5BB27A72F962F852FE901BC
:100AE0006A017B018F01BC01CD01680D791D8A1D52
:100AF0009B1D8090000190900101A0900201B09098
:100B0000030186169706A806B90601F5F80187893C
:100B1000803111F5DD24EE24FF24F601EE0FFF1FD6
:100B2000EC5AFE4F80819181B0E0A0E088839983E8
:100B3000AA83BB8381E0BBCFDB01CA01C7E0B695C6
:100B4000A79597958795CA95D1F7C9CF40E00E94A0
:100B5000BC038111DBCFAACFE894C7F8DD24EE24D3
:100B6000FF24F601EE0FFF1FEE0FFF1FEC5AFE4FA2
:100B700080819181A281B381BF70D8CF3F924F9283
:100B80005F926F927F928F929F92AF92BF92CF921D
:100B9000DF92EF92FF920F931F93CF93DF93CDB726
:100BA000DEB72C970FB6F894DEBF0FBECDBF5C0149
:100BB000DC015B968D909C905C9716964D905D90B5
:100BC0006D907C901997411451046104710409F4EB
:100BD00068C0BFEF4B1A5B0A6B0A7B0A312CF40129
:100BE00081859285A385B4859C01AD012F5F3F4F20
:100BF0004F4F5F4F29873A874B875C8773016201AC
:100C00001D821E821F821886F40181859285A3852C
:100C1000B4852D813E814F815885281739074A07B1
:100C20005B0708F056C089859A85AB85BC858C1515
:100C30009D05AE05BF0550F482E0C82ED12CE12CF5
:100C4000F12C92E0492E512C612C712C9E012F5FCA
:100C50003F4FB701A601C4010E943D058823C9F199
:100C600089819A81AB81BC81892B8A2B8B2B09F1DD
:100C7000260137019FEF491A590A690A790A2D811D
:100C80003E814F8158852F5F3F4F4F4F5F4F2D83E0
:100C90003E834F8358873FEFC31AD30AE30AF30A10
:100CA000B3CFF40140805180628073803324339449
:100CB00096CFC414D504E604F70409F70FEF1FEF2D
:100CC0002FEF3FE0B701A601C4010E949B048111F0
:100CD00019C080E02C960FB6F894DEBF0FBECDBFD2
:100CE000DF91CF911F910F91FF90EF90DF90CF9008
:100CF000BF90AF909F908F907F906F905F904F903C
:100D00003F900895F50146815781608571854115B1
:100D100051056105710539F097018601C4010E94F2
:100D20009B048823B1F2D5011696CD92DD92ED9207
:100D3000FC921997332051F0D701C6010196A11DED
:100D4000B11DF40180839183A283B383F501878968
:100D5000908DA18DB28D892B8A2B8B2B39F4C78A6C
:100D6000D08EE18EF28E84818068848381E0B2CF60
:100D70004F925F926F927F928F929F92AF92BF92AB
:100D8000CF92DF92EF92FF920F931F93CF93DF9357
:100D900000D000D01F92CDB7DEB78C016D83DC018F
:100DA00015968C911597813009F01FC114968C917E
:100DB000149781FF1AC182FF12C01A968D909D90E0
:100DC000AD90BC901D975396CD90DD90ED90FC902A
:100DD0005697C814D904EA04FB0409F0A3C0D8014B
:100DE0005B96ED91FC915C971A96AD90BD90CD907D
:100DF000DC901D9794809A94B601A50189E07695C0
:100E00006795579547958A95D1F79422B1E0BB2213
:100E1000992009F4FBC0D8015B96ED91FC915C9799
:100E20001696CD90DD90ED90FC901997B2E0CB1A1C
:100E3000D108E108F108858504C0CC0CDD1CEE1C4E
:100E4000FF1C8A95D2F74685578560897189C40E43
:100E5000D51EE61EF71EC90CD11CE11CF11CA11405
:100E6000B10409F0A1C1F8014285538564857585F7
:100E700083899489A589B689481759076A077B072A
:100E800008F492C10E948503882309F4AEC0C09281
:100E90000001D0920101E0920201F09203018091E1
:100EA0004F01816080934F01F501EC5AFE4F8D8117
:100EB0008083F80182859385A485B5850196A11D5F
:100EC000B11D82879387A487B58743895489658933
:100ED0007689481759076A077B0738F42481838B82
:100EE000948BA58BB68B20682483D80114968C91A3
:100EF00083FDFCC081E090E00F900F900F900F9069
:100F00000F90DF91CF911F910F91FF90EF90DF90A5
:100F1000CF90BF90AF909F908F907F906F905F9099
:100F20004F900895C114D104E104F10461F4F80173
:100F300016821782108611861A961D921D921D9296
:100F40001C921D974CCF5B96ED91FC91858590E0AE
:100F50000996B501A4014150510961097109082E92
:100F600004C076956795579547950A94D2F7260160
:100F70003701B1E04B1A51086108710804C076943A
:100F80006794579447948A95D2F744165506660697
:100F9000770620F089288A288B2869F5F801878947
:100FA000908DA18DB28D86839783A087B1875801DC
:100FB000F6E0AF0EB11CD8015B968D919C915C97C9
:100FC00016964D915D916D917C9119974114510444
:100FD00061047104A9F095010E943D05B1E04B1A2E
:100FE0005108610871088111E6CF81E090E0F801B5
:100FF0009383828354C0441A550A660A770AD7CF6E
:10100000F801C286D386E486F586E9CED801169625
:101010004D915D916D917C911997A114B10409F0E6
:10102000ACC0411551056105710589F557968D9143
:101030009D910D90BC91A02D0097A105B10509F0DF
:101040004FC0C8010E94BE05882379F2D8015B9683
:10105000ED91FC915C971696CD90DD90ED90FC9013
:101060001997B2E0CB1AD108E108F108858504C0D0
:10107000CC0CDD1CEE1CFF1C8A95D2F746855785EB
:1010800060897189C40ED51EE61EF71EECCE9E0146
:101090002F5F3F4FCF010E943D05811103C090E0BB
:1010A00080E02ACF89819A81AB81BC81F801238DB0
:1010B000348DF901278948EF5FEF60E070E020315F
:1010C00021F048EF5FEF6FEF7FE084179507A607E9
:1010D000B70730F0C8010E94BE0581119CCE85CFB4
:1010E000F80186839783A087B18795CEF801958113
:1010F000992309F47ACF87FF3BC06685778580897D
:10110000918941E00E94BC03882309F46ECFD80185
:101110005296EC91B0E2EB9FF0011124EC5AFE4F95
:10112000309709F462CFD80115968C9115978230CB
:1011300050F453964D915D916D917C915697448FEB
:10114000558F668F778FD80157968D919C915897C0
:10115000938F828F57964D915D916D917C915A97A7
:10116000758B648B14968C9114978F7714968C934F
:101170000E9485038111BECE38CF6A017B0122E037
:10118000C21AD108E108F108858504C0CC0CDD1C29
:10119000EE1CFF1C8A95D2F74685578560897189B8
:1011A000C40ED51EE61EF71E41E0C701B6010E941F
:1011B000BC03811179CE19CF089590E080E00895A5
:1011C000FC0101900020E9F73197AF01481B590B52
:1011D000BC0187E496E00C94F9008F929F92AF9245
:1011E000BF920F931F93CF93DF93CDB7DEB7A19735
:1011F0000FB6F894DEBF0FBECDBF19A2423008F47F
:101200004AE08E010F5D1F4F842E912CB12CA12C32
:10121000A50194010E943D13E62FB901CA01EA30ED
:10122000F4F4E05DD801EE938D01232B242B252BC4
:1012300079F790E080E0109719F0CD010E94E00866
:10124000A1960FB6F894DEBF0FBECDBFDF91CF9150
:101250001F910F91BF90AF909F908F900895E95C80
:10126000E1CFCF93DF93EC0160E08E810E94060214
:1012700061E08E810E94060260E08E810E9406027B
:101280008BE891E00197F1F7DF91CF910895CF922C
:10129000DF92EF92FF920F931F93CF93DF936C0136
:1012A0007C0187E0E80EF11CD0E0C0E0062F10E0E2
:1012B000B8010C2E02C0759567950A94E2F761702B
:1012C000F70181917F010E9406022196C430D10569
:1012D00079F7C601DF91CF911F910F91FF90EF90A9
:1012E000DF90CF900C943109CF92DF92EF92FF9272
:1012F0000F931F93CF93DF93EC01F62E642F8C8115
:101300000E9406028D818F3F19F060E00E94060264
:101310000F2D10E08F8584FF25C06E0187E0C80E79
:10132000D11CF12CE12CB8010E2C02C075956795EB
:101330000A94E2F76170F60181916F010E94060242
:10134000FFEFEF1AFF0A88E0E816F10461F7CE011B
:10135000DF91CF911F910F91FF90EF90DF90CF9091
:101360000C943109B80184E0759567958A95E1F789
:10137000CE010E9447096F2DCE01DF91CF911F91C1
:101380000F91FF90EF90DF90CF900C94470940E0D1
:10139000682F87E496E00C947409CF93DF93823032
:1013A00029F49091560698609093560680935A06B9
:1013B00010925B0680E480935C0680E180935D067A
:1013C00080E580935E0680914B060E94DA00809152
:1013D0004C068F3F11F00E94DA0080914D060E946A
:1013E000DA00C7E4D6E09E012754364080915606C5
:1013F00084FD0AC084E090E02196281739073CF468
:101400008E810E94DA00EFCF88E090E0F5CF8BE389
:101410009DE00197F1F760E080914B060E94060283
:1014200060E080914D060E94060280914C068F3F3D
:1014300019F060E00E9406028091560684FD39C0D2
:1014400063E087E496E00E944709CBE4D6E4CE014E
:101450000197F1F763E087E496E00E94470921973E
:10146000F1F763E087E496E00E94470983E592E0A4
:101470000197F1F762E087E496E00E9447098091C6
:10148000560680620E94C70984E0809357068CE06C
:101490000E94C70981E00E94C7098BE39FE1019781
:1014A000F1F782E08093580686E0DF91CF910C94AB
:1014B000C70980620E94C7098BE496E40197F1F79F
:1014C0008091560680620E94C70983E592E00197E9
:1014D000F1F78091560680620E94C709D0CF41E0A3
:1014E0000E94740981E090E008951F920F920FB658
:1014F0000F9211242F933F934F935F936F937F939A
:101500008F939F93AF93BF93EF93FF938FE595E0F6
:101510000E947701FF91EF91BF91AF919F918F91C1
:101520007F916F915F914F913F912F910F900FBEDF
:101530000F901F9018951F920F920FB60F921124C3
:101540002F938F939F93EF93FF93E0916F05F0910B
:1015500070058081E0917505F091760582FD1BC0D4
:101560009081809178058F5F8F7320917905821724
:1015700041F0E0917805F0E0E15AFA4F958F8093C1
:101580007805FF91EF919F918F912F910F900FBE52
:101590000F901F9018958081F4CF1F920F920FB675
:1015A0000F9211242F933F938F939F93AF93BF93E9
:1015B00080915B0590915C05A0915D05B0915E0501
:1015C0003091540323E0230F2D3758F50196A11DC8
:1015D000B11D2093540380935B0590935C05A09309
:1015E0005D05B0935E058091550390915603A091DF
:1015F0005703B09158030196A11DB11D8093550367
:1016000090935603A0935703B0935803BF91AF91A3
:101610009F918F913F912F910F900FBE0F901F9030
:10162000189526E8230F0296A11DB11DD2CFEFE534
:10163000F5E01382128288EE93E0A0E0B0E08483AC
:101640009583A683B78388E091E09183808385ECBE
:1016500090E09587848784EC90E09787868780EC7C
:1016600090E0918B808B81EC90E0938B828B82EC6D
:1016700090E0958B848B86EC90E0978B868B118E17
:10168000128E138E148EECEFF5E080E580831182CC
:10169000EEEFF5E0158216821186138682E090E067
:1016A000A0E0B0E084879587A687B78713A215A628
:1016B00014A68AE191E093A782A717A6E7E4F6E0D3
:1016C0001382128286E291E09183808388E0848392
:1016D0008FEF858389E0868385E0878384E0808738
:1016E00083E0818782E082871386148615861686BA
:1016F000178681E00C94CD09CF93DF93CDB7DEB789
:10170000AA970FB6F894DEBF0FBECDBF789484B50C
:10171000826084BD84B5816084BD85B5826085BDED
:1017200085B5816085BD80916E00816080936E007B
:10173000109281008091810082608093810080916D
:10174000810081608093810080918000816080931E
:1017500080008091B10084608093B1008091B000DE
:1017600081608093B00080917A00846080937A00D9
:1017700080917A00826080937A0080917A00816003
:1017800080937A0080917A00806880937A0010922A
:10179000C100E0916F05F091700582E08083E091D7
:1017A0006B05F0916C051082E0916D05F0916E056E
:1017B0008FEC808310927705E0917305F0917405AA
:1017C00086E08083E0917105F091720580818061EF
:1017D0008083E0917105F09172058081886080833B
:1017E000E0917105F0917205808180688083E091BD
:1017F0007105F091720580818F7D808382E00E9467
:10180000CD098EE291E00E94E0088BE594E0EBE5E3
:10181000F3E011921192119211928E179F07C9F75E
:10182000E0915A06E23008F0B6C0E150F0E0E95B22
:10183000F94F848980680E94C70984E391E00E947F
:10184000E008E0915A06E43008F0A7C0E150F0E06B
:10185000E95BF94F848980680E94C7092BE534E071
:101860003C8B2B8B38872F8350E450937C008091E6
:101870007A00806480937A0080917A0086FDFCCFA4
:101880009091780080917900892798278927A5E091
:10189000A89FB001A99F700D1124072E000C880B82
:1018A000990B0E94411120E030E040E85AE30E9489
:1018B000351220E030E040E250E40E942710EF8132
:1018C000F8856193719381939193F887EF838BE20D
:1018D00097E00197F1F72BE535E02E173F0721F64A
:1018E00089018BE5E82E84E0F82E1A82198249815D
:1018F0005A81BA0190E080E00E943F1120E030E080
:101900004CE752E40E949E102BED3FE049EC50E47E
:101910000E9435120E9499102FE135E84BEE5EE3EC
:101920000E9435129B01AC0161E77DE38AE09FE3F1
:101930000E9427104B015C01AC019B01D7016D9106
:101940007D918D919C910E943512F7016193719365
:10195000819391937F01A5019401D8019E918E916D
:101960007E916E918D010E943512F8016083718322
:101970008283938329813A812F5F3F4F3A83298362
:101980002032310509F0B3CFEBE5F4E090E080E0E0
:1019900030E020E021C0E1E049CFE3E058CF281754
:1019A0003907C8F4DC01AA0FBB1FAA0FBB1FA55A39
:1019B000BB4F4481558166817781CD90DD90ED905C
:1019C000FC901397C482D582E682F7824D935D9393
:1019D0006D937C931397349640E250E084179507FB
:1019E00028F0841B950B56954795F8CF840F951FCB
:1019F0002F5F3F4F2F33310591F61D8A1E8A1F8AB4
:101A0000188E1B8E1C8E30E83D8F4FEB4E8F81E081
:101A100090E09C838B831A821982AB81BC81AA0FD0
:101A2000BB1FB8A3AF8FEB81FC8153E0EE0FFF1F0C
:101A30005A95E1F7FAA3E9A32B813C81220F331FCA
:101A4000220F331F3CA32BA34BE553E0588B4F874A
:101A50008BE594E09A8B898B412C512C320110E05C
:101A600000E090E89D83AFE3AE831A861986EB8190
:101A7000FC8129853A85E217F30709F4FCC04F85FC
:101A800058895AA749A729883A883A8F298F898D7A
:101A90009A8D8034910508F0A4C0ABA1BCA1A20D21
:101AA000B31DBEA3ADA38D909D90AD90BC90EBA156
:101AB000FCA129A53AA5E20FF31FF8A7EFA38081A7
:101AC0009181A281B3818B879C87AD87BE87212FAF
:101AD000302F4D815E81C501B4010E9435126B012A
:101AE0007C01A30192016B857C858D859E850E947A
:101AF00035129B01AC01C701B6010E9427106B0192
:101B00007C012B853C854D855E85612F702F8D81F5
:101B10009E810E9435126B877C878D879E87A301EB
:101B20009201C501B4010E9435129B01AC016B8585
:101B30007C858D859E850E9428104B015C01A70144
:101B40009601F10160817181828193810E94271049
:101B5000ADA1BEA16D937D938D939C931397A50129
:101B60009401E9A5FAA560817181828193810E9427
:101B70002710AFA1B8A56D937D938D939C93139778
:101B8000A7019601F10160817181828193810E9498
:101B90002810D1016D937D938D939C931397A5018C
:101BA0009401E9A5FAA560817181828193810E94E7
:101BB0002810A9A5BAA56D937D938D939C93139737
:101BC000E98DFA8D2F8D38A1E20FF31FFA8FE98F7F
:101BD00049A15AA1240E351EA40FB51FBAA7A9A763
:101BE00056CF212F302F4D815E816B8D7C8D8D8D59
:101BF0009E8D0E9435126B017C01A30192016D89BB
:101C00007E898F89988D0E9435129B01AC01C70196
:101C1000B6010E9427106B017C01A30192016B8D1C
:101C20007C8D8D8D9E8D0E9435124B015C01212F84
:101C3000302F4D815E816D897E898F89988D0E94BC
:101C40003512A50194010E9428102B013C018985C1
:101C50009A8501969A878987A989BA891496BA8B39
:101C6000A98BEF85F8893496F88BEF871C2D0D2D05
:101C7000ED82FE82FCCEE981FA81E252FF4F85912E
:101C80009591A591B491E981FA81E656FF4F45916E
:101C90005591659174914B8F5C8F6D8F7E8F9C01F8
:101CA000AD0150582D8B3E8B4F8B588F49815A81F7
:101CB0004C5F5F4F5A8349838F8D98A19C838B83A0
:101CC0004831510509F0A9CEABE5B3E0BA83A98349
:101CD0003BE5E32E34E0F32EF701619171918191A0
:101CE00091917F01A981BA818D909D90AD90BD9019
:101CF000BA83A9839B01AC010E9435122B013C01E0
:101D0000A5019401C501B4010E9435129B01AC01EB
:101D1000C301B2010E9428100E94A812F701349753
:101D20006083718382839383EF81F885EE15FF05CD
:101D300099F60BE514E01A821982512C412C312CB2
:101D4000212CCC24C394D12CD8016D917D918D91FF
:101D50009D918D016C9011967C9011971296AC908C
:101D600012971396BC904601BFEF8B1A9B0A930102
:101D7000A5010E94941087FF1BC0F80124813581C2
:101D800046815781B301C5010E943012181684F4B0
:101D9000252D342D432D522DB301C5010E94301243
:101DA000181634F4DA82C982562C472C3A2C2B2C84
:101DB0006401F1E28F16910439F629813A812150AC
:101DC000304C220F331F220F331F3A83298389019E
:101DD000055A1B4FF901E15AFB4F608171818281E5
:101DE00093819B01AC010E9428109B01AC01D8019A
:101DF0006D917D918D919C910E942710E981FA81CE
:101E0000ED59FB4F20813181428153810E9428107E
:101E10004B015C0120E030E0A9010E94301218164D
:101E200024F0B7FAB094B7F8B094412C512C320199
:101E3000AB89BC896D917D918D919D91BC8BAB8B54
:101E40009B01AC010E9435129B01AC01C301B201A0
:101E50000E9428102B013C01EB89FC89EE16FF063D
:101E600039F7A5019401C501B4010E9435129B0107
:101E7000AC01C301B2010E9427100E94A812A50163
:101E800094010E949E106B017C014B015C01AC012E
:101E90009B010E94E812882309F443C08FE391E07C
:101EA0000E94E0088BE491E00E94E0080E94520248
:101EB0004B015C0188EEC82E83E0D82EE12CF12C7A
:101EC0000E945202681979098A099B09683E734089
:101ED00081059105A8F3F1E0CF1AD108E108F108D6
:101EE00028EE820E23E0921EA11CB11CC114D10465
:101EF000E104F10429F78091590390915A03019666
:101F000090935A038093590340E050E0452B09F425
:101F100087CC0E946301882309F482CC0E940000D0
:101F20007FCC26013701E89477F82FEF3FEF4FE79A
:101F30005FE7C301B2010E94E81281110DC02FEFCB
:101F40003FEF4FE75FE7C301B2010E9494101816FC
:101F50001CF483E491E0A4CF2FEF3FEF4FE75FE461
:101F6000C701B6010E94301218161CF487E491E0F4
:101F700097CF2FEF3FEF4FE75FECC701B6010E940D
:101F8000941087FDF3CF20E030E0A901C701B6012E
:101F90000E94941087FF0CC041E06DE287E496E058
:101FA0000E94740946015701B7FAB094B7F8B0948B
:101FB0002AE037ED43EA5BE3C501B4010E94281033
:101FC0004B015C010E9410116B017C010E943F11CA
:101FD0009B01AC01C501B4010E9427104B015C01BB
:101FE0004AE0C701B6010E94ED0841E06EE287E4D5
:101FF00096E00E94740920E030E040E251E4C5011F
:10200000B4010E9435124B015C010E9410116B015A
:10201000F12CE12C4AE0C701B6010E94ED08C7018E
:10202000B6010E943F119B01AC01C501B4010E94A1
:10203000271020E030E040E251E40E9435120E9477
:10204000101190E080E04AE00E94ED082BCF50583C
:10205000BB27AA270E943F100C94E2110E94A911ED
:1020600038F00E94B01120F039F49F3F19F426F4A3
:102070000C94A6110EF4E095E7FB0C94A011E92F47
:102080000E94071258F3BA1762077307840795076F
:1020900020F079F4A6F50C9429120EF4E0950B2E9D
:1020A000BA2FA02D0B01B90190010C01CA01A001AA
:1020B0001124FF27591B99F0593F50F4503E68F105
:1020C0001A16F040A22F232F342F4427585FF3CF46
:1020D000469537952795A795F0405395C9F77EF417
:1020E0001F16BA0B620B730B840BBAF09150A1F060
:1020F000FF0FBB1F661F771F881FC2F70EC0BA0FE6
:10210000621F731F841F48F4879577956795B7956D
:10211000F7959E3F08F0B0CF9395880F08F0992768
:10212000EE0F9795879508950E947C1108F481E041
:1021300008950E94B911E3950C94F3110E94B21016
:102140000C94E2110E94B01158F00E94A91140F0C5
:1021500029F45F3F29F00C94A01151110C942A121C
:102160000C94A6110E94071268F39923B1F355232A
:1021700091F3951B550BBB27AA276217730784079A
:1021800038F09F5F5F4F220F331F441FAA1FA9F330
:1021900035D00E2E3AF0E0E832D091505040E6951E
:1021A000001CCAF72BD0FE2F29D0660F771F881F7F
:1021B000BB1F261737074807AB07B0E809F0BB0B72
:1021C000802DBF01FF2793585F4F3AF09E3F510586
:1021D00078F00C94A0110C942A125F3FE4F3983E1F
:1021E000D4F3869577956795B795F7959F5FC9F76F
:1021F000880F911D9695879597F90895E1E0660FF0
:10220000771F881FBB1F621773078407BA0720F068
:10221000621B730B840BBA0BEE1F88F7E0950895D1
:102220000E940F1288F09F5798F0B92F9927B75145
:10223000B0F0E1F0660F771F881F991F1AF0BA956A
:10224000C9F714C0B13091F00E942912B1E008958D
:102250000C942912672F782F8827B85F39F0B93F7F
:10226000CCF3869577956795B395D9F73EF490951D
:102270008095709561957F4F8F4F9F4F0895E8949B
:1022800009C097FB3EF490958095709561957F4FBE
:102290008F4F9F4F9923A9F0F92F96E9BB2793956C
:1022A000F695879577956795B795F111F8CFFAF47C
:1022B000BB0F11F460FF1BC06F5F7F4F8F4F9F4FAD
:1022C00016C0882311F096E911C0772321F09EE80B
:1022D000872F762F05C0662371F096E8862F70E071
:1022E00060E02AF09A95660F771F881FDAF7880F4B
:1022F0009695879597F90895990F0008550FAA0BA1
:10230000E0E8FEEF16161706E807F907C0F0121608
:102310001306E407F50798F0621B730B840B950B0B
:1023200039F40A2661F0232B242B252B21F4089560
:102330000A2609F4A140A6958FEF811D811D0895FD
:1023400097F99F6780E870E060E008959FEF80EC68
:10235000089500240A94161617061806090608950B
:1023600000240A94121613061406050608950C9408
:10237000A6110E940F12D8F3E894E0E0BB279F5704
:10238000F0F02AED3FE049EC06C0EE0FBB0F661FF0
:10239000771F881F28F0B23A62077307840728F076
:1023A000B25A620B730B840BE3959A9572F78038DF
:1023B00030F49A95BB0F661F771F881FD2F790489D
:1023C0000C94EF12092E0394000C11F4882352F0A0
:1023D000BB0F40F4BF2B11F460FF04C06F5F7F4F51
:1023E0008F4F9F4F0895EF93E0FF07C0A2EA2AEDB9
:1023F0003FE049EC5FEB0E943F100E94E2110F901A
:10240000039401FC9058E8E6F0E00C94021357FDA9
:102410009058440F551F59F05F3F71F04795880F52
:1024200097FB991F61F09F3F79F0879508951216E9
:1024300013061406551FF2CF4695F1DF08C0161695
:1024400017061806991FF1CF869571056105089446
:102450000895E894BB2766277727CB0197F908955D
:102460000E947C1108F48FEF08950E9448120C948A
:10247000E2110E94A91138F00E94B01120F09523BA
:1024800011F00C94A0110C94A61111240C942A1292
:102490000E94071270F3959FC1F3950F50E0551FEE
:1024A000629FF001729FBB27F00DB11D639FAA27A9
:1024B000F00DB11DAA1F649F6627B00DA11D661FF8
:1024C000829F2227B00DA11D621F739FB00DA11D19
:1024D000621F839FA00D611D221F749F3327A00DD3
:1024E000611D231F849F600D211D822F762F6A2F6F
:1024F00011249F5750409AF0F1F088234AF0EE0FD4
:10250000FF1FBB1F661F771F881F91505040A9F700
:102510009E3F510580F00C94A0110C942A125F3F4D
:10252000E4F3983ED4F3869577956795B795F7953C
:10253000E7959F5FC1F7FE2B880F911D96958795B4
:1025400097F9089519F416F40C94A6110C94ED1251
:102550000E940F12B8F39923C9F3B6F39F57550B96
:1025600087FF0E94FB120024A0E640EA90018058F9
:102570005695979528F4805C660F771F881F20F08A
:1025800026173707480730F4621B730B840B20298A
:1025900031294A2BA69517940794202531254A27DF
:1025A00058F7660F771F881F20F026173707480750
:1025B00030F4620B730B840B200D311D411DA0956F
:1025C00081F7B901842F9158880F969587950895C2
:1025D0000E947C11880B990B08959F3F31F0915018
:1025E00020F4879577956795B795880F911D9695F7
:1025F000879597F9089591505040660F771F881F6F
:10260000D2F708959F938F937F936F93FF93EF93E8
:102610009B01AC010E943512EF91FF910E941613AD
:102620002F913F914F915F910C943512DF93CF938F
:102630001F930F93FF92EF92DF927B018C016894BE
:1026400006C0DA2EEF010E944812FE01E894A5911F
:102650002591359145915591A6F3EF010E943F10C8
:10266000FE019701A801DA9469F7DF90EF90FF90DF
:102670000F911F91CF91DF910895A1E21A2EAA1B0D
:10268000BB1BFD010DC0AA1FBB1FEE1FFF1FA21722
:10269000B307E407F50720F0A21BB30BE40BF50B1F
:1026A000661F771F881F991F1A9469F760957095A8
:1026B000809590959B01AC01BD01CF010895EE0F6F
:0E26C000FF1F0590F491E02D0994F894FFCFD0
:1026CE00FFFFFFFF000000009901F9002601E6015F
:1026DE0057013501490100000000B806F900DD0878
:1026EE00DC08000000006F0AF900DD08DC08544821
:1026FE00443A200020202020202020202020006E80
:0E270E00616E00696E66006F76660020250021
:107E0000112484B714BE81FFF0D085E080938100F7
:107E100082E08093C00088E18093C10086E0809377
:107E2000C20080E18093C4008EE0C9D0259A86E02C
:107E300020E33CEF91E0309385002093840096BBD3
:107E4000B09BFECF1D9AA8958150A9F7CC24DD24C4
:107E500088248394B5E0AB2EA1E19A2EF3E0BF2EE7
:107E6000A2D0813461F49FD0082FAFD0023811F036
:107E7000013811F484E001C083E08DD089C08234E0
:107E800011F484E103C0853419F485E0A6D080C0E4
:107E9000853579F488D0E82EFF2485D0082F10E0AE
:107EA000102F00270E291F29000F111F8ED06801E7
:107EB0006FC0863521F484E090D080E0DECF843638
:107EC00009F040C070D06FD0082F6DD080E0C81688
:107ED00080E7D80618F4F601B7BEE895C0E0D1E017
:107EE00062D089930C17E1F7F0E0CF16F0E7DF06D8
:107EF00018F0F601B7BEE89568D007B600FCFDCFD4
:107F0000A601A0E0B1E02C9130E011968C91119780
:107F100090E0982F8827822B932B1296FA010C0160
:107F200087BEE89511244E5F5F4FF1E0A038BF0790
:107F300051F7F601A7BEE89507B600FCFDCF97BE46
:107F4000E89526C08437B1F42ED02DD0F82E2BD052
:107F50003CD0F601EF2C8F010F5F1F4F84911BD097
:107F6000EA94F801C1F70894C11CD11CFA94CF0C13
:107F7000D11C0EC0853739F428D08EE10CD085E9AC
:107F80000AD08FE07ACF813511F488E018D01DD067
:107F900080E101D065CF982F8091C00085FFFCCF94
:107FA0009093C60008958091C00087FFFCCF809118
:107FB000C00084FD01C0A8958091C6000895E0E648
:107FC000F0E098E1908380830895EDDF803219F02E
:107FD00088E0F5DFFFCF84E1DECF1F93182FE3DFCA
:107FE0001150E9F7F2DF1F91089580E0E8DFEE27F6
:047FF000FF270994CA
:027FFE00040479
:0400000300007E007B
:00000001FF
