:100000000C94B6000C94DE000C94DE000C94DE0020
:100010000C94DE000C94DE000C94DE000C94DE00E8
:100020000C94DE000C94DE000C94DE000C94DE00D8
:100030000C94DE000C94DE000C94DE000C94DE00C8
:100040000C94E40C0C94DE000C94B20C0C948C0C0C
:100050000C94DE000C94DE000C94DE000C94DE00A8
:100060000C942E0D0C94DE0005A84CCDB2D44EB9E4
:100070003836A9020C50B9918688083CA6AAAA2A4B
:10008000BE000000803F00000000240027002A007E
:1000900000000000250028002B00000000002300C5
:1000A00026002900040404040404040402020202D9
:1000B000020203030303030301020408102040802B
:1000C00001020408102001020408102000000008AA
:1000D000000201000003040700000000000000000F
:1000E00000000000F304353F5E836C3FBE147B3F8D
:1000F0006DC47E3F0FB17F3F43EC7F3F11FB7F3FDD
:10010000C4FE7F3FB1FF7F3FECFF7F3FFBFF7F3FA0
:10011000FFFF7F3F0000803F0000803F0000803FE6
:100120000000803F0000803FF304353F15EFC33EE1
:10013000C2C5473E36BDC83D30FB483DB00AC93C4C
:10014000900E493C880FC93BC60F493BD60FC93AB0
:10015000D90F493ADB0FC939DB0F4939DB0FC938F1
:10016000DB0F4938BF0FC9374D0E451511241FBE8F
:10017000CFEFD8E0DEBFCDBF27E0A0E8B1E001C0FF
:100180001D92A236B207E1F711E0A0E0B1E0E8EE7F
:10019000F5E302C005900D92A038B107D9F710E041
:1001A000C5EBD0E004C02197FE010E94EF18C43BCC
:1001B000D107C9F70E94CD0E0C94E71A0C940000E9
:1001C000089508950895AF92BF92CF92DF92EF9273
:1001D000FF920F931F93CF93DF936C017B018B01F1
:1001E000040F151FEB015E01AE18BF08C017D10741
:1001F00059F06991D601ED91FC910190F081E02DCB
:10020000C6010995892B79F7C501DF91CF911F911F
:100210000F91FF90EF90DF90CF90BF90AF90089537
:10022000FC01538D448D252F30E0842F90E0821BFC
:10023000930B541710F0CF96089501970895FC0181
:10024000918D828D981761F0A28DAE0FBF2FB11DD9
:100250005D968C91928D9F5F9F73928F90E0089531
:100260008FEF9FEF0895FC01918D828D981731F0EB
:10027000828DE80FF11D858D90E008958FEF9FEF3F
:100280000895FC01918D228D892F90E0805C9F4F15
:10029000821B91098F73992708958CE496E00E9440
:1002A000410121E0892B09F420E0822F089580E0AC
:1002B00090E0892B29F00E944D0181110C940000DF
:1002C0000895FC01A48DA80FB92FB11DA35ABF4FEB
:1002D0002C91848D90E001968F739927848FA68945
:1002E000B7892C93A089B1898C91837080648C9399
:1002F000938D848D981306C00288F389E02D808148
:100300008F7D80830895EF92FF920F931F93CF9379
:10031000DF93EC0181E0888F9B8D8C8D98131AC040
:10032000E889F989808185FF15C09FB7F894EE8927
:10033000FF896083E889F989808183708064808384
:100340009FBF81E090E0DF91CF911F910F91FF90CF
:10035000EF900895F62E0B8D10E00F5F1F4F0F7377
:100360001127E02E8C8D8E110CC00FB607FCFACF32
:10037000E889F989808185FFF5CFCE010E9461016E
:10038000F1CFEB8DEC0FFD2FF11DE35AFF4FF08203
:100390009FB7F8940B8FEA89FB8980818062CFCF69
:1003A000CF93DF93EC01888D8823B9F0AA89BB89AC
:1003B000E889F9898C9185FD03C0808186FD0DC097
:1003C0000FB607FCF7CF8C9185FFF2CF808185FFB8
:1003D000EDCFCE010E946101E9CFDF91CF91089569
:1003E000833081F028F4813099F08230A9F00895AB
:1003F0008730A9F08830C9F08430B1F48091800052
:100400008F7D03C0809180008F7780938000089556
:1004100084B58F7784BD089584B58F7DFBCF80919F
:10042000B0008F778093B00008958091B0008F7DE9
:10043000F9CF1F93CF93DF93282F30E0F901E453D6
:10044000FF4F8491F901E854FF4FD491F901EC5525
:10045000FF4FC491CC23A9F0162F81110E94F00107
:10046000EC2FF0E0EE0FFF1FE057FF4FA591B49186
:100470008FB7F894EC91111108C0D095DE23DC936E
:100480008FBFDF91CF911F910895DE2BF8CFCF93CF
:10049000DF9390E0FC01E854FF4F24918C559F4F6F
:1004A000FC0184918823D1F090E0880F991FFC0112
:1004B000EA57FF4FA591B491FC01E057FF4FC5915A
:1004C000D49161110EC09FB7F8948C91E22FE09502
:1004D0008E238C932881E223E8839FBFDF91CF9105
:1004E00008958FB7F894EC91E22BEC938FBFF6CF81
:1004F0003FB7F8948091CA039091CB03A091CC03AD
:10050000B091CD0326B5A89B05C02F3F19F00196E9
:10051000A11DB11D3FBFBA2FA92F982F8827BC015D
:10052000CD01620F711D811D911D42E0660F771F85
:10053000881F991F4A95D1F7089561E0FC018481D5
:100540000E9419028091C30181111092C301089584
:100550008EBD00000DB407FEFDCF8EB508958FEF60
:100560000C94A8020F931F93CF93DF938C012FB7A6
:10057000F8948091480690914906A0914A06B0915E
:100580004B062FBFEC010E94AF028F3FB1F02FB797
:10059000F8948091480690914906A0914A06B0913E
:1005A0004B062FBF8C1B9D0B8017910760F380E0DB
:1005B000DF91CF911F910F91089581E0F9CFCF92F4
:1005C000DF92EF92FF920F931F93CF93DF93EC0193
:1005D000162F69017A018E81882389F08F81988591
:1005E0009C012F5F3F4F38872F838230924018F451
:1005F0000E94AF02F3CFCE010E949D021E82809125
:10060000C301811109C081E08093C3019091E90683
:100610008091EA069CBD8DBD60E08C810E9419022C
:100620008CE291E00E94B202812F80640E94A802B5
:1006300008E110E0D701C601002E04C0B695A795C9
:10064000979587950A94D2F70E94A802085011093D
:10065000083F8FEF180771F78FEF0E94A80210E094
:100660000E94AF028A8787FF04C01F3F11F01F5FFF
:10067000F7CFDF91CF911F910F91FF90EF90DF9017
:10068000CF900895EF92FF920F931F93CF93DF9334
:10069000EC01790182E1411551056105710599F07F
:1006A0008B85833039F089E0440F551F661F771F13
:1006B0008A95D1F79A01AB0168E1CE010E94DF0271
:1006C000882319F084E08D8330C08EEF0E94A80249
:1006D00087018EEFF81AF80181918F010E94A8021C
:1006E0000E151F05C1F78FEF0E94A8028FEF0E9421
:1006F000A8020E94AF028A878F71853089F488E54D
:1007000092E00E94B2028823A9F020E030E0A90123
:100710006DE0CE010E94DF02882371F084E1D3CF27
:1007200081E18D83CE010E949D02CE010E949D0237
:1007300080E00AC085E1C7CF0E94AF028111EECFF1
:10074000CE010E949D0281E0DF91CF911F910F9118
:10075000FF90EF9008958091C401882389F1409122
:10076000000150910101609102017091030129EC97
:1007700031E090E080E00E944203811102C080E0FD
:1007800008954091C5015091C6016091C7017091D3
:10079000C801411551056105710581F029EC31E071
:1007A00090E080E00E944203882349F31092C50143
:1007B0001092C6011092C7011092C8011092C40194
:1007C00081E00895AF92BF92CF92DF92EF92FF92B5
:1007D0001F93CF93DF936B017C01142F8091000155
:1007E00090910101A0910201B09103018C159D052A
:1007F000AE05BF0509F4BEC00E94AB038823E1F13A
:10080000809106008823A1F0809100009091010062
:10081000A0910200B0910300C816D906EA06FB06B3
:1008200039F48091070090910800892B09F461C088
:10083000C0920000D0920100E0920200F09203000A
:1008400080910B00A7019601833039F099E0220FC7
:10085000331F441F551F9A95D1F761E190E080E066
:100860000E94DF02882391F083E08093050090E0EE
:1008700080E00E949D0280E0DF91CF911F91FF9068
:10088000EF90DF90CF90BF90AF9008952FB7F8947E
:100890008091480690914906A0914A06B0914B0676
:1008A0002FBFEC010E94AF0280930A008F3FC1F47A
:1008B0002FB7F8948091480690914906A0914A0676
:1008C000B0914B062FBF8C1B9D0B8D32914050F386
:1008D0008FE08093050090E080E00E949D02C7CFEA
:1008E0008E3FC1F5109208001092070081E08093BE
:1008F0000600C9ECD1E089ECA82E83E0B82E0E9456
:10090000AF028993AC16BD06D1F780910700909194
:1009100008009E5F909308008093070020910900D3
:10092000222319F081159240E8F080910600882377
:10093000C9F080910700909108009C012F5F3F4F04
:1009400030930800209307008230924028F40E94E0
:10095000AF02EFCF8DE0BDCF90E080E00E949D021E
:1009600010920600C0920001D0920101E0920201B3
:10097000F09203014091C401412B4093C40181E0F6
:100980007BCF4F925F926F927F928F929F92AF92A6
:10099000BF92CF92DF92EF92FF920F931F93CF936C
:1009A000DF93EC01423051056105710590F480E060
:1009B000DF91CF911F910F91FF90EF90DF90CF903B
:1009C000BF90AF909F908F907F906F905F904F906F
:1009D000089589859A85AB85BC850196A11DB11DB9
:1009E00084179507A607B70710F3CB88DC88ED8836
:1009F000FE888F89803109F042C0BB27A72F962F30
:100A0000852F480159012A013B01C80ED91EEA1E53
:100A1000FB1E8091000190910101A0910201B09113
:100A20000301C816D906EA06FB0699F58F898031BD
:100A3000C1F5B301A201552766277727440F551F3B
:100A400047535E4FFA01918280828091C401816098
:100A50008093C4018A89823080F08D819E81AF812C
:100A6000B8858C0D9D1DAE1DBF1D8093C501909353
:100A7000C601A093C701B093C80181E099CFDB0103
:100A8000CA01E7E0B695A79597958795EA95D1F7BE
:100A9000B8CF40E0C701B6010E94E2038111C6CF82
:100AA00086CFB301A2014F77552766277727440FDA
:100AB000551F440F551F47535E4FFA0180829182A4
:100AC000A282B382C2CF8F929F92AF92BF92CF92F7
:100AD000DF92EF92FF920F931F93CF93DF93FC016E
:100AE00081859285A385B4850196A11DB11D8417CA
:100AF0009507A607B70770F480E0DF91CF911F91AB
:100B00000F91FF90EF90DF90CF90BF90AF909F90AC
:100B10008F90089583889488A588B68887898031C6
:100B200089F5BB27A72F962F852FE9016A017B0145
:100B30008F01BC01CD01680D791D8A1D9B1D809020
:100B4000000190900101A0900201B090030186166F
:100B50009706A806B90601F5F8018789803111F5D5
:100B6000DD24EE24FF24F601EE0FFF1FE753FE4FB6
:100B700080819181B0E0A0E088839983AA83BB83C0
:100B800081E0BBCFDB01CA01C7E0B695A795979579
:100B90008795CA95D1F7C9CF40E00E94E203811141
:100BA000DBCFAACFE894C7F8DD24EE24FF24F601BA
:100BB000EE0FFF1FEE0FFF1FE753FE4F8081918165
:100BC000A281B381BF70D8CF3F924F925F926F9254
:100BD0007F928F929F92AF92BF92CF92DF92EF92CD
:100BE000FF920F931F93CF93DF93CDB7DEB72C9770
:100BF0000FB6F894DEBF0FBECDBF5C01DC015B9683
:100C00008D909C905C9716964D905D906D907C9029
:100C10001997411451046104710409F468C0BFEFCD
:100C20004B1A5B0A6B0A7B0A312CF4018185928591
:100C3000A385B4859C01AD012F5F3F4F4F4F5F4FA0
:100C400029873A874B875C87730162011D821E8268
:100C50001F821886F40181859285A385B4852D8134
:100C60003E814F815885281739074A075B0708F0EE
:100C700056C089859A85AB85BC858C159D05AE05CA
:100C8000BF0550F482E0C82ED12CE12CF12C92E06B
:100C9000492E512C612C712C9E012F5F3F4FB701C3
:100CA000A601C4010E9463058823C9F189819A8144
:100CB000AB81BC81892B8A2B8B2B09F12601370153
:100CC0009FEF491A590A690A790A2D813E814F819D
:100CD00058852F5F3F4F4F4F5F4F2D833E834F838C
:100CE00058873FEFC31AD30AE30AF30AB3CFF401DC
:100CF00040805180628073803324339496CFC41433
:100D0000D504E604F70409F70FEF1FEF2FEF3FE0DC
:100D1000B701A601C4010E94C104811119C080E07D
:100D20002C960FB6F894DEBF0FBECDBFDF91CF91EA
:100D30001F910F91FF90EF90DF90CF90BF90AF90F9
:100D40009F908F907F906F905F904F903F9008950D
:100D5000F501468157816085718541155105610511
:100D6000710539F097018601C4010E94C1048823EE
:100D7000B1F2D5011696CD92DD92ED92FC921997C3
:100D8000332051F0D701C6010196A11DB11DF40118
:100D900080839183A283B383F5018789908DA18D90
:100DA000B28D892B8A2B8B2B39F4C78AD08EE18E9A
:100DB000F28E84818068848381E0B2CF4F925F920B
:100DC0006F927F928F929F92AF92BF92CF92DF925B
:100DD000EF92FF920F931F93CF93DF9300D000D039
:100DE0001F92CDB7DEB78C016D83DC0115968C9117
:100DF0001597813009F01FC114968C91149781FFCB
:100E00001AC182FF12C01A968D909D90AD90BC9031
:100E10001D975396CD90DD90ED90FC905697C81499
:100E2000D904EA04FB0409F0A3C0D8015B96ED9154
:100E3000FC915C971A96AD90BD90CD90DC901D977B
:100E400094809A94B601A50189E0769567955795A7
:100E500047958A95D1F79422B1E0BB22992009F4F5
:100E6000FBC0D8015B96ED91FC915C971696CD90F6
:100E7000DD90ED90FC901997B2E0CB1AD108E10813
:100E8000F108858504C0CC0CDD1CEE1CFF1C8A9586
:100E9000D2F74685578560897189C40ED51EE61E36
:100EA000F71EC90CD11CE11CF11CA114B10409F0FE
:100EB000A1C1F8014285538564857585838994892C
:100EC000A589B689481759076A077B0708F492C1B4
:100ED0000E94AB03882309F4AEC0C0920001D092F7
:100EE0000101E0920201F09203018091C40181604E
:100EF0008093C401F501E753FE4F8D818083F80193
:100F000082859385A485B5850196A11DB11D828733
:100F10009387A487B587438954896589768948175B
:100F200059076A077B0738F42481838B948BA58B40
:100F3000B68B20682483D80114968C9183FDFCC065
:100F400081E090E00F900F900F900F900F90DF9145
:100F5000CF911F910F91FF90EF90DF90CF90BF90B6
:100F6000AF909F908F907F906F905F904F9008957B
:100F7000C114D104E104F10461F4F801168217826E
:100F8000108611861A961D921D921D921C921D9715
:100F90004CCF5B96ED91FC91858590E00996B5016B
:100FA000A4014150510961097109082E04C07695C8
:100FB0006795579547950A94D2F726013701B1E016
:100FC0004B1A51086108710804C0769467945794CD
:100FD00047948A95D2F7441655066606770620F0A0
:100FE00089288A288B2869F5F8018789908DA18D39
:100FF000B28D86839783A087B1875801F6E0AF0E44
:10100000B11CD8015B968D919C915C9716964D9181
:101010005D916D917C9119974114510461047104A3
:10102000A9F095010E946305B1E04B1A51086108CF
:1010300071088111E6CF81E090E0F801938382830B
:1010400054C0441A550A660A770AD7CFF801C286F7
:10105000D386E486F586E9CED80116964D915D914A
:101060006D917C911997A114B10409F0ACC04115A0
:1010700051056105710589F557968D919D910D90EA
:10108000BC91A02D0097A105B10509F04FC0C80182
:101090000E94E405882379F2D8015B96ED91FC91DA
:1010A0005C971696CD90DD90ED90FC901997B2E08C
:1010B000CB1AD108E108F108858504C0CC0CDD1CF1
:1010C000EE1CFF1C8A95D2F7468557856089718989
:1010D000C40ED51EE61EF71EECCE9E012F5F3F4FBD
:1010E000CF010E946305811103C090E080E02ACF08
:1010F00089819A81AB81BC81F801238D348DF901FE
:10110000278948EF5FEF60E070E0203121F048EF81
:101110005FEF6FEF7FE084179507A607B70730F002
:10112000C8010E94E40581119CCE85CFF801868319
:101130009783A087B18795CEF8019581992309F40B
:101140007ACF87FF3BC0668577858089918941E0AA
:101150000E94E203882309F46ECFD8015296EC91E5
:10116000B0E2EB9FF0011124E753FE4F309709F4F2
:1011700062CFD80115968C911597823050F4539612
:101180004D915D916D917C915697448F558F668FEF
:10119000778FD80157968D919C915897938F828F16
:1011A00057964D915D916D917C915A97758B648B9B
:1011B00014968C9114978F7714968C930E94AB039E
:1011C0008111BECE38CF6A017B0122E0C21AD1085C
:1011D000E108F108858504C0CC0CDD1CEE1CFF1C69
:1011E0008A95D2F74685578560897189C40ED51EC8
:1011F000E61EF71E41E0C701B6010E94E20381111D
:1012000079CE19CF85ED8093BC008091BC0084FD20
:10121000FCCF10921C0408952091A001260F3327C3
:10122000331F21323105ECF420911C04FC0190E0C5
:1012300080E0243069F082E00895A091A00121911E
:10124000AC0140585E4FA40FB52FB11D2C930196F1
:10125000861798F38091A001680F6093A00180E049
:10126000089581E008950895E0911E0480911D0481
:10127000E81730F4F0E0E15EFB4F808190E00895E4
:101280008FEF9FEF089590911E0480911D042FEF22
:101290003FEF981748F4E92FF0E0E15EFB4F208123
:1012A00030E09F5F90931E04C901089580911D0452
:1012B00090911E04891B990B0895CF92DF92EF92B3
:1012C000FF920F931F93CF93DF937C01CB018A0191
:1012D0002091D203222389F0EB016B01C40ED51EAD
:1012E000CC15DD0569F06991D701ED91FC91019074
:1012F000F081E02DC7010995F3CF642F0E940C09FE
:10130000C801DF91CF911F910F91FF90EF90DF9077
:10131000CF900895CF93DF931F92CDB7DEB7698347
:101320002091D2032223F9F02091F503203258F0C6
:1013300021E030E0FC013383228390E080E00F90D5
:10134000DF91CF9108958091D303E82FF0E0EC5224
:10135000FC4F998190838F5F8093D3038093F50333
:1013600081E090E0ECCF61E0CE0101960E940C0993
:10137000F7CF90E080E00895CF93DF93EC0160E039
:101380008E810E94190261E08E810E94190260E044
:101390008E810E9419028BE891E00197F1F7DF91AD
:1013A000CF910895CF92DF92EF92FF920F931F9308
:1013B000CF93DF936C017C0187E0E80EF11CD0E055
:1013C000C0E0062F10E0B8010C2E02C0759567959D
:1013D0000A94E2F76170F70181917F010E9419027E
:1013E0002196C430D10579F7C601DF91CF911F91C5
:1013F0000F91FF90EF90DF90CF900C94BC09CF92AB
:10140000DF92EF92FF920F931F93CF93DF93EC0144
:10141000F62E642F8C810E9419028D818F3F19F066
:1014200060E00E9419020F2D10E08F8584FF25C017
:101430006E0187E0C80ED11CF12CE12CB8010E2CF6
:1014400002C0759567950A94E2F76170F601819183
:101450006F010E941902FFEFEF1AFF0A88E0E816F9
:10146000F10461F7CE01DF91CF911F910F91FF90B1
:10147000EF90DF90CF900C94BC09B80184E0759593
:1014800067958A95E1F7CE010E94D2096F2DCE01B2
:10149000DF91CF911F910F91FF90EF90DF90CF9050
:1014A0000C94D20940E0682F86E497E00C94FF0981
:1014B000CF93DF93823029F49091550798609093F1
:1014C00055078093590710925A0780E480935B0771
:1014D00080E180935C0780E580935D0761E0809107
:1014E0004A070E94470280914B078F3F19F061E045
:1014F0000E94470261E080914C070E944702C6E4C7
:10150000D7E09E01265437408091550784FD0BC0DB
:1015100084E090E021962817390744F461E08E8139
:101520000E944702EECF88E090E0F4CF8BE39DE08D
:101530000197F1F760E080914A070E94190260E08C
:1015400080914C070E94190280914B078F3F19F040
:1015500060E00E9419028091550784FD39C063E064
:1015600086E497E00E94D209CBE4D6E4CE0101974D
:10157000F1F763E086E497E00E94D2092197F1F742
:1015800063E086E497E00E94D20983E592E0019748
:10159000F1F762E086E497E00E94D2098091550756
:1015A00080620E94520A84E0809356078CE00E9479
:1015B000520A81E00E94520A8BE39FE10197F1F702
:1015C00082E08093570786E0DF91CF910C94520A16
:1015D00080620E94520A8BE496E40197F1F78091B1
:1015E000550780620E94520A83E592E00197F1F765
:1015F0008091550780620E94520AD0CF41E00E943C
:10160000FF0981E090E00895FB0101900020E9F7D7
:101610003197AF01461B570BDC01ED91FC91028025
:10162000F381E02D09948F929F92AF92BF92EF9237
:10163000FF920F931F93CF93DF93CDB7DEB7A197A0
:101640000FB6F894DEBF0FBECDBF7C01FA01CB010F
:1016500019A2223008F42AE08E010F5D1F4F822E5E
:10166000912CB12CA12CBF01A50194010E94CD1891
:10167000F901CA016A300CF5605DD8016E938D01E5
:10168000232B242B252B79F790E080E0109721F075
:10169000BD01C7010E94040BA1960FB6F894DEBFEE
:1016A0000FBECDBFDF91CF911F910F91FF90EF90B3
:1016B000BF90AF909F908F900895695CDECF2F927E
:1016C0003F924F925F926F927F928F929F92AF92D2
:1016D000BF92CF92DF92EF92FF921F93CF93DF934F
:1016E000EC016A017B01722EAB019601CB01B601C0
:1016F0000E9478186EE471E0811126C046015701FE
:10170000E894B7F82FEF3FEF4FE75FE7C501B4016B
:101710000E94781881110CC02FEF3FEF4FE75FE771
:10172000C501B4010E94801562E571E0181664F0ED
:101730002FEF3FEF4FE75FE4C701B6010E942D187E
:101740001816B4F466E571E0CE01DF91CF911F91D8
:10175000FF90EF90DF90CF90BF90AF909F908F90D1
:101760007F906F905F904F903F902F900C94040B60
:101770002FEF3FEF4FE75FECC701B6010E948015E6
:1017800087FDE0CF20E030E0A901C701B6010E944B
:101790008015312C212C87FF0DC0E881F981019043
:1017A000F081E02D6DE2CE0109951C01F7FAF0946D
:1017B000F7F8F09410E060E070E080E09FE37116CD
:1017C00041F020E030E040E251E40E944D171F5FFD
:1017D000F6CFA70196010E94DC162B013C010E9466
:1017E000BF174B015C012AE0BC01A401CE010E949D
:1017F000130B7C01E20CF31C1123E1F1C501B401D0
:101800000E9485159B01AC01C301B2010E94DB1649
:101810004B015C01E881F9810190F081E02D6EE2DD
:10182000CE010995E80EF91E115020F120E030E0BC
:1018300040E251E4C501B4010E94E6152B013C01D0
:101840000E94BF174B01B12CA12C2AE0B501A401C5
:10185000CE010E94130BE80EF91EC501B4010E94CF
:1018600085159B01AC01C301B2010E94DB164B013F
:101870005C01DACFC701DF91CF911F91FF90EF900C
:10188000DF90CF90BF90AF909F908F907F906F90A0
:101890005F904F903F902F900895EF92FF920F939B
:1018A0001F93CF93DF93EC017B018A01888199819B
:1018B000009729F02A813B812417350788F4B80165
:1018C0006F5F7F4F0E941A1A009791F09983888367
:1018D0001B830A832C813D81232B11F4FC01108290
:1018E0001D830C83B701888199810E94E01A0CC086
:1018F00088819981009711F00E94911919821882AC
:101900001D821C821B821A82CE01DF91CF911F9112
:101910000F91FF90EF9008951F920F920FB60F92C4
:1019200011242F933F934F935F936F937F938F93E4
:101930009F93AF93BF93EF93FF938CE496E00E9445
:101940006101FF91EF91BF91AF919F918F917F9135
:101950006F915F914F913F912F910F900FBE0F901C
:101960001F9018951F920F920FB60F9211242F936C
:101970008F939F93EF93FF93E0915C06F0915D0648
:101980008081E0916206F091630682FD1BC0908128
:10199000809165068F5F8F7320916606821741F0F4
:1019A000E0916506F0E0E45BF94F958F8093650662
:1019B000FF91EF919F918F912F910F900FBE0F90FC
:1019C0001F9018958081F4CF1F920F920FB60F923F
:1019D00011242F933F938F939F93AF93BF93809145
:1019E000480690914906A0914A06B0914B06309165
:1019F000C90323E0230F2D3758F50196A11DB11D12
:101A00002093C9038093480690934906A0934A0601
:101A1000B0934B068091CA039091CB03A091CC0365
:101A2000B091CD030196A11DB11D8093CA0390937F
:101A3000CB03A093CC03B093CD03BF91AF919F9103
:101A40008F913F912F910F900FBE0F901F9018957F
:101A500026E8230F0296A11DB11DD2CF1F920F922F
:101A60000FB60F9211242F933F934F935F936F9371
:101A70007F938F939F93AF93BF93EF93FF93809147
:101A8000B900887F803609F44AC0F0F5883209F43D
:101A9000A7C018F5803109F49BC0B8F4882309F475
:101AA000F9C0883009F494C0FF91EF91BF91AF91D4
:101AB0009F918F917F916F915F914F913F912F9166
:101AC0000F900FBE0F901F901895883109F488C0B1
:101AD000803251F780931A0414C0803409F49DC0F9
:101AE00040F48033B9F38833F9F680931A0485EC17
:101AF000B0C0803509F485C0883509F496C08834B3
:101B000099F60E940209D0CF883909F48CC038F5C3
:101B1000883729F050F4883611F0803729F683E0B1
:101B200080931C041092C20157C0883809F47BC00E
:101B3000803919F0803809F0B7CF8091C201803226
:101B400008F071C0E091C20181E08E0F8093C20164
:101B50008091BB00F0E0EE55FE4F80833DC0803B9E
:101B600039F0E0F4803A09F479C0883A09F09CCF62
:101B700084E080931C041092A1011092A001E091D6
:101B8000D003F091D10309958091A00181110FC07C
:101B900081E08093A0011092800109C0803C09F48B
:101BA000A6CF883C09F4A3CF883B09F07DCFE09114
:101BB000A10181E08E0F8093A101F0E0E058FE4F7B
:101BC00080818093BB009091A1018091A00129C0E8
:101BD000809117048093BB0085EC8093BC0064CF98
:101BE0009091190480911804981758F5E091190400
:101BF00081E08E0F80931904F0E0EA50FC4F808161
:101C0000E9CFE091190481E08E0F8093190480914F
:101C1000BB00F0E0EA50FC4F808390911904809162
:101C200018049817C8F285E8D8CFE091190481E02C
:101C30008E0F809319048091BB00F0E0EA50FC4FB6
:101C4000808380911B0481115CCF81E08093160416
:101C500084EA8093BC0010921C0426CF85EC80930C
:101C6000BC0010921C048091C201803230F4E091DB
:101C7000C201F0E0EE55FE4F10826091C20170E0AB
:101C8000E091CE03F091CF0382EA91E009951092A2
:101C9000C2010ACF10921A0434CFECE4F6E01382AA
:101CA000128288EE93E0A0E0B0E084839583A6835F
:101CB000B78326E131E03183208325EC30E035879E
:101CC000248724EC30E03787268720EC30E0318B06
:101CD000208B21EC30E0338B228B22EC30E0358BF3
:101CE000248B26EC30E0378B268B118E128E138ED0
:101CF000148EE9EEF6E020E520831182EBEEF6E0AB
:101D0000158216821186138642E050E060E070E092
:101D1000448755876687778713A215A614A628E2FD
:101D200031E033A722A717A6E4E3F7E0138212827B
:101D300084839583A683B78384E391E09183808332
:101D4000E6E4F7E01382128286E491E091838083D7
:101D500088E084838FEF858389E0868385E08783AD
:101D600084E0808783E0818782E0828713861486FF
:101D700015861686178681E00E94580AE0E4F7E08F
:101D800011821082138212821582148250E040E088
:101D900060E771E0CF010C944D0CCF93DF93CDB78A
:101DA000DEB7C654D1090FB6F894DEBF0FBECDBF63
:101DB000789484B5826084BD84B5816084BD85B526
:101DC000826085BD85B5816085BD80916E00816032
:101DD00080936E00109281008091810082608093D8
:101DE00081008091810081608093810080918000DA
:101DF0008160809380008091B10084608093B10005
:101E00008091B00081608093B00080917A008460FE
:101E100080937A0080917A00826080937A0080912A
:101E20007A00816080937A0080917A008068809344
:101E30007A001092C100E0915C06F0915D0682E0AC
:101E40008083E0915806F09159061082E0915A067D
:101E5000F0915B068FEC808310926406E09160063F
:101E6000F091610686E08083E0915E06F0915F0666
:101E7000808180618083E0915E06F0915F068081C1
:101E800088608083E0915E06F0915F0680818068C3
:101E90008083E0915E06F0915F0680818F7D808374
:101EA00060E087E00E94470210921E0410921D0419
:101EB0001092D3031092F50310921C0481E08093DA
:101EC0001B041092160461E082E10E94190261E095
:101ED00083E10E9419028091B9008E7F8093B9003E
:101EE0008091B9008D7F8093B90088E48093B80019
:101EF00085E48093BC0080EE90E09093D1038093C2
:101F0000D00381EE90E09093CF038093CE039E01A7
:101F10002F5F3F4F3A8F298FE3EDF0E08491EFEB95
:101F2000F0E01491EBEAF0E00491002309F495C588
:101F300081110E94F001E02FF0E0EE0FFF1FE65646
:101F4000FF4FA591B4918C91182309F486C581E0C7
:101F50008093D20388E68093F4031092D303109207
:101F6000F50360E084E397E00E948A099091F5030D
:101F7000913208F03FC080911C048111FCCF82E0B7
:101F800080931C0481E080931B048FEF80931A04DC
:101F90001092190490931804A4EDB3E0E6EFF3E077
:101FA00080E09813FEC11092170480911704806D91
:101FB0008093170480911604813009F0F6C11092C5
:101FC0001604809117048093BB008091BC0083FDB0
:101FD000F8CF85EC8093BC0080911C048230E1F343
:101FE00080911A048F3F31F080911A04803211F0F1
:101FF00080911A041092D3031092F5031092D20329
:1020000080911C048111FCCF81E080931C0480939B
:102010001B049FEF90931A041092190496E090937A
:1020200018048093170480911704806D809317041F
:1020300080911604813009F0BAC110921604809183
:1020400017048093BB008091BC0083FDF8CF85EC22
:102050008093BC0080911C048130E1F380911904CD
:1020600097E0873010F490911904A6EFB3E0EFE108
:10207000F4E080E089139DC110921E0480931D043A
:1020800084E397E00E944309982F92959F703AE06D
:10209000732E8F70A82EB12C979DA00CB11C11240B
:1020A000A092430484E397E00E944309982F9295FD
:1020B0009F708F70082F10E0979D000D111D112447
:1020C0000093420484E397E00E944309982F92957D
:1020D0009F708F70E82EF12C979DE00CF11C11245D
:1020E000E092410484E397E00E94430984E397E08F
:1020F0000E944309982F92959F708F70882E912C83
:10210000979D800C911C11248092400484E397E0F9
:102110000E944309982F92959F708F70C82ED12CE2
:10212000979DC00CD11C1124C0923F0484E397E01A
:102130000E9443091C8A1B8A1E8A1D8A188E1F8AC8
:10214000282F22952F708F7090E0279D800D911D74
:102150001124C80CD91C8C0D9D1D8E0D9F1D800F48
:10216000911F8550924D4AE0BE016F5F7F4F8A0DEF
:102170009B1D0E944B15E98DFA8D01900020E9F717
:102180003197AF01298D3A8D421B530BBE016F5F12
:102190007F4FCE0143960E944D0C80914007909155
:1021A0004107009709F40BC16B897C8961157105A2
:1021B00009F403C140914207509143072F89388D9C
:1021C0004217530708F4F9C00E94E01A8F89988DCE
:1021D00090934507809344078B899C890E949119AD
:1021E00044E454E05CAF4BAFFA01119211921192AA
:1021F000119284E495E08E179F07B9F7A8E4B5E043
:10220000BCABABAB8D0190E4E92E25E0F22EE09261
:102210007C0080917A00806480937A0080917A00BB
:1022200086FDFCCF909178008091790089279827CE
:102230008927F89EB001F99E700D1124072E000C1D
:10224000880B990B0E94871520E030E040E85AE3A4
:102250000E94E61520E030E040E250E40E94DB16E8
:10226000F80161937193819391938F018BE297E0D1
:102270000197F1F728E436E02E173F0741F66AE5AB
:1022800071E08CE496E00E94040B6EE671E08CE451
:1022900096E00E94040B40914407509145076091DD
:1022A0004007709141078CE496E00E94E3006EE6DF
:1022B00071E08CE496E00E94040B48E455E05AA3D8
:1022C00049A3A9A1BAA14D915D916D917D91BAA348
:1022D000A9A322E08CE496E00E945F0B6EE671E019
:1022E0008CE496E00E94040BE9A1FAA10E171F07E7
:1022F00041F708E4E02E06E0F02E88E4C82E85E0E1
:10230000D82E10E000E0B80190E080E00E94851532
:1023100020E030E04CE752E40E944D172BED3FE007
:1023200049EC50E40E94E6150E9448172FE135E879
:102330004BEE5EE30E94E6159B01AC0161E77DE395
:102340008AE09FE30E94DB164B015C01AC019B011C
:10235000D6016D917D918D919C910E94E615F601BB
:1023600061937193819391936F01A5019401D701BA
:102370009E918E917E916E917D010E94E615F701EE
:1023800060837183828393830F5F1F4F0032110537
:1023900009F0B9CFE8E4F5E090E080E030E020E03B
:1023A00040C02D9121938F5FFCCD85EE13CE85EE3D
:1023B0004FCE2D9121938F5F5DCE0E9491198B8915
:1023C0009C8990934107809340078D899E899093C3
:1023D0004307809342078F89988D90934507809398
:1023E00044071C8A1B8AF8CE28173907C8F4DC0179
:1023F000AA0FBB1FAA0FBB1FA85BBA4F4481558110
:1024000066817781CD90DD90ED90FC901397C4822A
:10241000D582E682F7824D935D936D937C931397FB
:10242000349640E250E08417950728F0841B950B02
:1024300056954795F8CF840F951F2F5F3F4F2F3349
:10244000310591F61BA61CA61DA61EA61FAA18AE36
:10245000F0E8F9AF2FEB2AAF41E050E058A34F8FDF
:102460001CA21BA28F8D98A1880F991F25969FAF44
:102470008EAF2597AF8DB8A153E0AA0FBB1F5A9519
:10248000E1F7BEAFADAFEF8DF8A1EE0FFF1FEE0F7E
:10249000FF1F2196FFAFEEAF219724E434E038AB65
:1024A0002FA748E455E05AAB49AB412C512C3201DF
:1024B000312C212C10E80FE31EA21DA28DA19EA19C
:1024C000AF8DB8A18A179B0709F415C1EFA5F8A92C
:1024D000FE8FED8F29A93AA93C8F2B8F9EAB8DAB38
:1024E0004DA95EA94034510508F0BAC08B8D9C8D72
:1024F0002196AEADBFAD21978A0F9B1F23969FAF4C
:102500008EAF2397FC0180809180A280B3802D8DB7
:102510003E8D2A0F3B1F27963FAF2EAF2797D9013D
:102520008D919D910D90BC91A02D8FA398A7A9A7E7
:10253000BAA7232D322D412F502FC501B4010E947F
:10254000E6156B017C01A30192016FA178A589A515
:102550009AA50E94E6159B01AC01C701B6010E9435
:10256000DB166B017C012FA138A549A55AA5632D67
:10257000722D812F902F0E94E6156FA378A789A74F
:102580009AA7A3019201C501B4010E94E6159B011F
:10259000AC016FA178A589A59AA50E94DC164B0114
:1025A0005C01A7019601EB8DFC8D608171818281B8
:1025B00093810E94DB162396AEADBFAD23976D933A
:1025C0007D938D939C931397A5019401ED8DFE8DC2
:1025D00060817181828193810E94DB162796AEAD66
:1025E000BFAD27976D937D938D939C931397A70110
:1025F0009601EB8DFC8D60817181828193810E94B7
:10260000DC16AB8DBC8D6D937D938D939C9313974E
:10261000A5019401ED8DFE8D608171818281938190
:102620000E94DC16AD8DBE8D6D937D938D939C9332
:102630001397EDA9FEA925962EAD3FAD2597E20F84
:10264000F31FFEABEDAB4B8D5C8D8DAD9EAD480F9A
:10265000591F5C8F4B8FA80FB91FBE8FAD8F40CF16
:102660002FA938AD49AD5AAD632D722D812F902F12
:102670000E94E6156B017C01A30192016BA57CA56C
:102680008DA59EA50E94E6159B01AC01C701B60170
:102690000E94DB166B017C012FA938AD49AD5AAD04
:1026A000C301B2010E94E6154B015C01232D322DBE
:1026B000412F502F6BA57CA58DA59EA50E94E615E8
:1026C000A50194010E94DC162B013C01ADA1BEA125
:1026D0001196BEA3ADA3E9A9FAA93496FAABE9AB6A
:1026E0002FA538A92C5F3F4F38AB2FA73C2C2D2CA2
:1026F0001E2D0F2DE3CEEBA1FCA1EC5DFE4F8591CD
:102700009591A591B491EBA1FCA1E052FF4F4591A9
:102710005591659174914FAB58AF69AF7AAF9C01F9
:10272000AD0150582BA73CA74DA75EA74BA15CA1BC
:102730004C5F5F4F5CA34BA325968EAD9FAD259755
:1027400098A38F8F4831510509F08CCE08E415E02D
:10275000D8016D917D918D919D918D01EBADFCAD79
:10276000C190D190E190F190FCAFEBAF9B01AC0137
:102770000E94E6154B015C01A7019601C701B60155
:102780000E94E6159B01AC01C501B4010E94DC1654
:102790000E943818F8013497608371838283938391
:1027A00029A13AA12017310799F608E415E01C8EFB
:1027B0001B8E512C412C312C212CEE24E394F12C36
:1027C000D8016D917D918D919D918D016C901196A7
:1027D0007C9011971296CC9012971396DC9047013B
:1027E000BFEF8B1A9B0A9301A6010E94801587FFF9
:1027F0001BC0F8012481358146815781B301C60190
:102800000E942D18181684F49301A601652D742DCD
:10281000832D922D0E94801587FF06C0FC8EEB8EC3
:10282000562C472C3C2C2D2C7401F1E28F16910470
:1028300039F68B8D9C8D8150904C880F991F880F95
:10284000991FFC01E85BFA4F4080518062807380E1
:10285000FC01E05BFA4F80809180A280B380845BB2
:102860009A4FDC016D917D918D919C919B01AC0102
:102870000E94DC169B01AC01C301B2010E94DB1671
:10288000A50194010E94DC166B017C01A501940155
:10289000C301B2010E94DB16A70196010E944D17E9
:1028A00020E030E040E05FE30E94E6152B013C01B0
:1028B000EB8DFC8DBF0190E080E00E9485159B01AF
:1028C000AC01C301B2010E94DC1620E030ED47E00C
:1028D00055E40E94E6152B8D3C8D2032310509F41C
:1028E000C9C020E030E04CE752E40E944D176093ED
:1028F000040170930501809306019093070120E085
:1029000030E0A901C701B6010E942D18181624F065
:10291000F7FAF094F7F8F094C0920801D092090108
:10292000E0920A01F0920B01812C912C5401ABA989
:10293000BCA96D917D918D919D91BCABABAB9B0181
:10294000AC010E94E6159B01AC01C501B4010E94D7
:10295000DC164B015C01E9A1FAA12BA93CA9E21705
:10296000F30729F7A7019601C701B6010E94E615F2
:102970009B01AC01C501B4010E94DB160E9438180E
:10298000A70196010E944D17609344057093450579
:10299000809346059093470582E00E94580A61E7BC
:1029A00071E086E497E00E94040BE0915907E23061
:1029B00008F067C0E150F0E0EA5BF84F8489806876
:1029C0000E94520A67E771E086E497E00E94040BD8
:1029D000E0915907E43008F056C0E150F0E0EA5BBE
:1029E000F84F848980680E94520A6DE771E086E49E
:1029F00097E00E94040B4091440550914505609179
:102A000046057091470522E086E497E00E945F0B3F
:102A10000E9478024B015C0188E8C82E83E1D82E21
:102A2000E12CF12C0E947802681979098A099B0926
:102A3000683E734081059105A8F331E0C31AD108BF
:102A4000E108F10848EE840E43E0941EA11CB11C7D
:102A5000C114D104E104F10429F780E090E0892B4E
:102A600009F45ACA0E944D01882309F455CA0E94EC
:102A7000000052CA20E030E040E85CE30E94E61526
:102A800036CFE1E098CFE3E0A9CF80914007909165
:102A900041070C949119BB274A3031F4992322F451
:102AA000BDE2909581959F4F0C945715BB27FB0174
:102AB0005527AA27880F991FAA1FA41710F0A41B37
:102AC00083955051B9F7A05DAA3308F0A95DA19391
:102AD000009779F7B111B1931192CB010C94701555
:102AE000DC01FC01672F71917723E1F7329704C075
:102AF0007C916D9370836291AE17BF07C8F3089500
:102B00000E94C21508F481E00895E89409C097FB7B
:102B10003EF490958095709561957F4F8F4F9F4FB4
:102B20009923A9F0F92F96E9BB279395F6958795F8
:102B300077956795B795F111F8CFFAF4BB0F11F4BB
:102B400060FF1BC06F5F7F4F8F4F9F4F16C0882362
:102B500011F096E911C0772321F09EE8872F762F98
:102B600005C0662371F096E8862F70E060E02AF0D9
:102B70009A95660F771F881FDAF7880F96958795C5
:102B800097F90895990F0008550FAA0BE0E8FEEF9A
:102B900016161706E807F907C0F012161306E40721
:102BA000F50798F0621B730B840B950B39F40A261A
:102BB00061F0232B242B252B21F408950A2609F4F8
:102BC000A140A6958FEF811D811D08950E94F915E2
:102BD0000C946A160E945C1638F00E94631620F06E
:102BE000952311F00C9453160C94591611240C943F
:102BF0009E160E947B1670F3959FC1F3950F50E0CF
:102C0000551F629FF001729FBB27F00DB11D639F9E
:102C1000AA27F00DB11DAA1F649F6627B00DA11D44
:102C2000661F829F2227B00DA11D621F739FB00DEA
:102C3000A11D621F839FA00D611D221F749F33275A
:102C4000A00D611D231F849F600D211D822F762FF3
:102C50006A2F11249F5750409AF0F1F088234AF0D0
:102C6000EE0FFF1FBB1F661F771F881F915050403C
:102C7000A9F79E3F510580F00C9453160C949E16B4
:102C80005F3FE4F3983ED4F3869577956795B795C3
:102C9000F795E7959F5FC1F7FE2B880F911D9695DD
:102CA000879597F9089597F99F6780E870E060E04D
:102CB00008959FEF80EC089500240A9416161706D5
:102CC00018060906089500240A941216130614061D
:102CD00005060895092E0394000C11F4882352F080
:102CE000BB0F40F4BF2B11F460FF04C06F5F7F4F38
:102CF0008F4F9F4F089557FD9058440F551F59F01F
:102D00005F3F71F04795880F97FB991F61F09F3FD8
:102D100079F087950895121613061406551FF2CF01
:102D20004695F1DF08C0161617061806991FF1CF51
:102D300086957105610508940895E894BB27662778
:102D40007727CB0197F908952F923F924F925F9288
:102D50006F927F928F929F92AF92BF92CF92DF92AB
:102D6000EF92FF920F931F93CF93DF93CDB7DEB710
:102D7000CA1BDB0B0FB6F894DEBF0FBECDBF0994A4
:102D80002A88398848885F846E847D848C849B84FB
:102D9000AA84B984C884DF80EE80FD800C811B8109
:102DA000AA81B981CE0FD11D0FB6F894DEBF0FBE38
:102DB000CDBFED0108955058BB27AA270E94F316F6
:102DC0000C946A160E945C1638F00E94631620F07C
:102DD00039F49F3F19F426F40C9459160EF4E0953B
:102DE000E7FB0C945316E92F0E947B1658F3BA1791
:102DF000620773078407950720F079F4A6F50C9411
:102E00009D160EF4E0950B2EBA2FA02D0B01B901E3
:102E100090010C01CA01A0011124FF27591B99F050
:102E2000593F50F4503E68F11A16F040A22F232F5C
:102E3000342F4427585FF3CF469537952795A795AC
:102E4000F0405395C9F77EF41F16BA0B620B730B53
:102E5000840BBAF09150A1F0FF0FBB1F661F771FC4
:102E6000881FC2F70EC0BA0F621F731F841F48F479
:102E7000879577956795B795F7959E3F08F0B0CF02
:102E80009395880F08F09927EE0F979587950895E9
:102E90000E94F017E3950C9419180E9461170C9486
:102EA0006A160E94631658F00E945C1640F029F4DE
:102EB0005F3F29F00C94531651110C949E160C94FC
:102EC00059160E947B1668F39923B1F3552391F3A9
:102ED000951B550BBB27AA2762177307840738F089
:102EE0009F5F5F4F220F331F441FAA1FA9F335D0E6
:102EF0000E2E3AF0E0E832D091505040E695001C9A
:102F0000CAF72BD0FE2F29D0660F771F881FBB1F53
:102F1000261737074807AB07B0E809F0BB0B802D31
:102F2000BF01FF2793585F4F3AF09E3F510578F05D
:102F30000C9453160C949E165F3FE4F3983ED4F322
:102F4000869577956795B795F7959F5FC9F7880F31
:102F5000911D9695879597F90895E1E0660F771F83
:102F6000881FBB1F621773078407BA0720F0621B14
:102F7000730B840BBA0BEE1F88F7E09508950E943F
:102F8000831688F09F5798F0B92F9927B751B0F062
:102F9000E1F0660F771F881F991F1AF0BA95C9F7DD
:102FA00014C0B13091F00E949D16B1E008950C94C8
:102FB0009D16672F782F8827B85F39F0B93FCCF37B
:102FC000869577956795B395D9F73EF4909580955A
:102FD000709561957F4F8F4F9F4F08950C945916B0
:102FE0000E948316D8F3E894E0E0BB279F57F0F0E7
:102FF0002AED3FE049EC06C0EE0FBB0F661F771FBE
:10300000881F28F0B23A62077307840728F0B25A83
:10301000620B730B840BE3959A9572F7803830F44A
:103020009A95BB0F661F771F881FD2F790480C94A4
:103030007F18EF93E0FF07C0A2EA2AED3FE049ECDA
:103040005FEB0E94F3160E946A160F90039401FC36
:103050009058E8E6F0E00C9492180E94C21508F42B
:103060008FEF089519F416F40C9459160C947D18EA
:103070000E948316B8F39923C9F3B6F39F57550BF3
:1030800087FF0E948B180024A0E640EA9001805838
:103090005695979528F4805C660F771F881F20F05F
:1030A00026173707480730F4621B730B840B20295F
:1030B00031294A2BA69517940794202531254A27B4
:1030C00058F7660F771F881F20F026173707480725
:1030D00030F4620B730B840B200D311D411DA09544
:1030E00081F7B901842F9158880F96958795089597
:1030F0000E94C215880B990B08959F3F31F09150A3
:1031000020F4879577956795B795880F911D9695CB
:10311000879597F9089591505040660F771F881F43
:10312000D2F708959F938F937F936F93FF93EF93BD
:103130009B01AC010E94E615EF91FF910E94A61839
:103140002F913F914F915F910C94E615DF93CF93B0
:103150001F930F93FF92EF92DF927B018C01689493
:1031600006C0DA2EEF010E94F915FE01E894A59140
:103170002591359145915591A6F3EF010E94F316E3
:10318000FE019701A801DA9469F7DF90EF90FF90B4
:103190000F911F91CF91DF910895A1E21A2EAA1BE2
:1031A000BB1BFD010DC0AA1FBB1FEE1FFF1FA217F7
:1031B000B307E407F50720F0A21BB30BE40BF50BF4
:1031C000661F771F881F991F1A9469F7609570957D
:1031D000809590959B01AC01BD01CF010895EE0F44
:1031E000FF1F0590F491E02D09940F931F93CF9347
:1031F000DF938230910510F482E090E0E091600767
:10320000F091610730E020E0B0E0A0E0309799F461
:103210002115310509F44AC0281B390B243031052A
:10322000D8F58A819B816115710589F1FB01938332
:103230008283FE0111C040815181028113814817B0
:103240005907E0F04817590799F4109761F0129662
:103250000C93129713961C933296CF01DF91CF9166
:103260001F910F9108950093600710936107F4CFA9
:103270002115310551F04217530738F0A901DB0140
:103280009A01BD01DF01F801C1CFEF01F9CF9093A1
:10329000610780936007CDCFFE01E20FF31F81939A
:1032A00091932250310939832883D7CF20915E072B
:1032B00030915F07232B41F420910E0130910F01D3
:1032C00030935F0720935E0720910C0130910D0130
:1032D0002115310541F42DB73EB7409110015091B1
:1032E0001101241B350BE0915E07F0915F07E21797
:1032F000F307A0F42E1B3F0B2817390778F0AC0119
:103300004E5F5F4F2417350748F04E0F5F1F5093F5
:103310005F0740935E07819391939FCFF0E0E0E0D9
:103320009CCFCF93DF930097E9F0FC013297138293
:103330001282A0916007B0916107ED0130E020E0BA
:103340001097A1F420813181820F931F20915E0795
:1033500030915F072817390709F061C0F0935F07C4
:10336000E0935E07DF91CF910895EA01CE17DF0762
:10337000E8F54A815B819E0141155105B1F7E901EC
:10338000FB83EA8349915991C40FD51FEC17FD07C0
:1033900061F4808191810296840F951FE9019983E0
:1033A0008883828193819B838A83F0E0E0E0129698
:1033B0008D919C9113970097B9F52D913C911197A0
:1033C000CD010296820F931F20915E0730915F0717
:1033D0002817390739F6309751F510926107109286
:1033E0006007B0935F07A0935E07BCCFD383C2830F
:1033F00040815181840F951FC817D90761F44E5F32
:103400005F4F88819981480F591F518340838A817A
:103410009B81938382832115310509F0B0CFF0930E
:103420006107E09360079ECFFD01DC01C0CF1382EE
:103430001282D7CFB0E0A0E0E0E2FAE10C94A61649
:103440008C01009751F4CB010E94F5188C01C80142
:10345000CDB7DEB7E0E10C94C216FC01E60FF71F12
:103460009C0122503109E217F30708F49DC0D901ED
:10347000CD91DC911197C617D70798F0C530D105CB
:1034800030F3CE0104978617970708F3C61BD70BB6
:103490002297C193D1936D937C93CF010E94911990
:1034A000D6CF5B01AC1ABD0A4C018C0E9D1EA091BB
:1034B0006007B0916107512C412CF12CE12C109741
:1034C00031F580915E0790915F078815990509F0A5
:1034D0005CC04616570608F058C080910C019091C8
:1034E0000D01009741F48DB79EB7409110015091A6
:1034F0001101841B950BE817F90708F055C0F093EC
:103500005F07E0935E07F90171836083A0CF8D911F
:103510009C91119712966C90129713967C9013972A
:10352000A815B90559F56C0142E0C40ED11CCA14A6
:10353000DB0420F1AC014A195B09DA0112961597F8
:1035400080F06282738251834083D9016D937C93B2
:10355000E114F10471F0D7011396FC93EE931297E6
:1035600076CF22968C0F9D1FF90191838083F30102
:10357000EFCFF0936107E093600769CF48165906D3
:1035800008F42C017D01D3019ACFCB010E94F518DC
:103590007C01009749F0AE01B8010E94D71AC8011A
:1035A0000E949119870153CF10E000E050CFFB013A
:1035B000DC0102C001900D9241505040D8F70895AF
:1035C000FB01DC0101900D920020E1F7089510E06D
:1035D000C5EBD0E004C0FE010E94EF182196C63B67
:0835E000D107C9F7F894FFCFF1
:1035E800FFFFFFFF000070420000803F00006207FD
:1035F8008000000000008301E3001001D0014101B8
:103608001F01330100000000DE06E300B909E200F3
:10361800000000008A095D09B90933095609430900
:10362800340900000000FE0AE300B909E2006E61F7
:103638006E00696E66006F7666005265676973741E
:10364800726F20666569746F20656D3A20000D0AF7
:10365800005448443A200020202020200020250043
:00000001FF
