:100000000C94B6000C94DE000C94DE000C94DE0020
:100010000C94DE000C94DE000C94DE000C94DE00E8
:100020000C94DE000C94DE000C94DE000C94DE00D8
:100030000C94DE000C94DE000C94DE000C94DE00C8
:100040000C94EC0B0C94DE000C94BA0B0C94940BF7
:100050000C94DE000C94DE000C94DE000C94DE00A8
:100060000C94360C0C94DE0005A84CCDB2D44EB9DD
:100070003836A9020C50B9918688083CA6AAAA2A4B
:10008000BE000000803F00000000240027002A007E
:1000900000000000250028002B00000000002300C5
:1000A00026002900040404040404040402020202D9
:1000B000020203030303030301020408102040802B
:1000C00001020408102001020408102000000008AA
:1000D000000201000003040700000000000000000F
:1000E00000000000F304353F5E836C3FBE147B3F8D
:1000F0006DC47E3F0FB17F3F43EC7F3F11FB7F3FDD
:10010000C4FE7F3FB1FF7F3FECFF7F3FFBFF7F3FA0
:10011000FFFF7F3F0000803F0000803F0000803FE6
:100120000000803F0000803FF304353F15EFC33EE1
:10013000C2C5473E36BDC83D30FB483DB00AC93C4C
:10014000900E493C880FC93BC60F493BD60FC93AB0
:10015000D90F493ADB0FC939DB0F4939DB0FC938F1
:10016000DB0F4938BF0FC937550DA41411241FBE2A
:10017000CFEFD8E0DEBFCDBF27E0AAE6B1E001C0F7
:100180001D92AC34B207E1F711E0A0E0B1E0E6EA7D
:10019000F4E302C005900D92AA36B107D9F710E03A
:1001A000C5EBD0E004C02197FE010E944E18C43B6D
:1001B000D107C9F70E94D50D0C94461A0C94000083
:1001C000089508950895AF92BF92CF92DF92EF9273
:1001D000FF920F931F93CF93DF936C017B018B01F1
:1001E000040F151FEB015E01AE18BF08C017D10741
:1001F00059F06991D601ED91FC910190F081E02DCB
:10020000C6010995892B79F7C501DF91CF911F911F
:100210000F91FF90EF90DF90CF90BF90AF90089537
:10022000FC01538D448D252F30E0842F90E0821BFC
:10023000930B541710F0CF96089501970895FC0181
:10024000918D828D981761F0A28DAE0FBF2FB11DD9
:100250005D968C91928D9F5F9F73928F90E0089531
:100260008FEF9FEF0895FC01918D828D981731F0EB
:10027000828DE80FF11D858D90E008958FEF9FEF3F
:100280000895FC01918D228D892F90E0805C9F4F15
:10029000821B91098F739927089586E396E00E9447
:1002A000410121E0892B09F420E0822F089580E0AC
:1002B00090E0892B29F00E944D0181110C940000DF
:1002C0000895FC01A48DA80FB92FB11DA35ABF4FEB
:1002D0002C91848D90E001968F739927848FA68945
:1002E000B7892C93A089B1898C91837080648C9399
:1002F000938D848D981306C00288F389E02D808148
:100300008F7D80830895EF92FF920F931F93CF9379
:10031000DF93EC0181E0888F9B8D8C8D98131AC040
:10032000E889F989808185FF15C09FB7F894EE8927
:10033000FF896083E889F989808183708064808384
:100340009FBF81E090E0DF91CF911F910F91FF90CF
:10035000EF900895F62E0B8D10E00F5F1F4F0F7377
:100360001127E02E8C8D8E110CC00FB607FCFACF32
:10037000E889F989808185FFF5CFCE010E9461016E
:10038000F1CFEB8DEC0FFD2FF11DE35AFF4FF08203
:100390009FB7F8940B8FEA89FB8980818062CFCF69
:1003A000CF93DF93EC01888D8823B9F0AA89BB89AC
:1003B000E889F9898C9185FD03C0808186FD0DC097
:1003C0000FB607FCF7CF8C9185FFF2CF808185FFB8
:1003D000EDCFCE010E946101E9CFDF91CF91089569
:1003E000833081F028F4813099F08230A9F00895AB
:1003F0008730A9F08830C9F08430B1F48091800052
:100400008F7D03C0809180008F7780938000089556
:1004100084B58F7784BD089584B58F7DFBCF80919F
:10042000B0008F778093B00008958091B0008F7DE9
:10043000F9CF1F93CF93DF93282F30E0F901E453D6
:10044000FF4F8491F901E854FF4FD491F901EC5525
:10045000FF4FC491CC23A9F0162F81110E94F00107
:10046000EC2FF0E0EE0FFF1FE057FF4FA591B49186
:100470008FB7F894EC91111108C0D095DE23DC936E
:100480008FBFDF91CF911F910895DE2BF8CFCF93CF
:10049000DF9390E0FC01E854FF4F24918C559F4F6F
:1004A000FC0184918823D1F090E0880F991FFC0112
:1004B000EA57FF4FA591B491FC01E057FF4FC5915A
:1004C000D49161110EC09FB7F8948C91E22FE09502
:1004D0008E238C932881E223E8839FBFDF91CF9105
:1004E00008958FB7F894EC91E22BEC938FBFF6CF81
:1004F0003FB7F8948091B4039091B503A091B603EF
:10050000B091B70326B5A89B05C02F3F19F00196FF
:10051000A11DB11D3FBFBA2FA92F982F8827BC015D
:10052000CD01620F711D811D911D42E0660F771F85
:10053000881F991F4A95D1F7089561E0FC018481D5
:100540000E9419028091AD0181111092AD010895B0
:100550008EBD00000DB407FEFDCF8EB508958FEF60
:100560000C94A8020F931F93CF93DF938C012FB7A6
:10057000F8948091320690913306A0913406B091A0
:1005800035062FBFEC010E94AF028F3FB1F02FB7AD
:10059000F8948091320690913306A0913406B09180
:1005A00035062FBF8C1B9D0B8017910760F380E0F1
:1005B000DF91CF911F910F91089581E0F9CFCF92F4
:1005C000DF92EF92FF920F931F93CF93DF93EC0193
:1005D000162F69017A018E81882389F08F81988591
:1005E0009C012F5F3F4F38872F838230924018F451
:1005F0000E94AF02F3CFCE010E949D021E82809125
:10060000AD01811109C081E08093AD019091D306C5
:100610008091D4069CBD8DBD60E08C810E94190242
:100620008CE291E00E94B202812F80640E94A802B5
:1006300008E110E0D701C601002E04C0B695A795C9
:10064000979587950A94D2F70E94A802085011093D
:10065000083F8FEF180771F78FEF0E94A80210E094
:100660000E94AF028A8787FF04C01F3F11F01F5FFF
:10067000F7CFDF91CF911F910F91FF90EF90DF9017
:10068000CF900895EF92FF920F931F93CF93DF9334
:10069000EC01790182E1411551056105710599F07F
:1006A0008B85833039F089E0440F551F661F771F13
:1006B0008A95D1F79A01AB0168E1CE010E94DF0271
:1006C000882319F084E08D8330C08EEF0E94A80249
:1006D00087018EEFF81AF80181918F010E94A8021C
:1006E0000E151F05C1F78FEF0E94A8028FEF0E9421
:1006F000A8020E94AF028A878F71853089F488E54D
:1007000092E00E94B2028823A9F020E030E0A90123
:100710006DE0CE010E94DF02882371F084E1D3CF27
:1007200081E18D83CE010E949D02CE010E949D0237
:1007300080E00AC085E1C7CF0E94AF028111EECFF1
:10074000CE010E949D0281E0DF91CF911F910F9118
:10075000FF90EF9008958091AE01882389F1409138
:10076000000150910101609102017091030123EB9E
:1007700031E090E080E00E944203811102C080E0FD
:1007800008954091AF015091B0016091B101709115
:10079000B201411551056105710581F023EB31E08E
:1007A00090E080E00E944203882349F31092AF0159
:1007B0001092B0011092B1011092B2011092AE01EC
:1007C00081E00895AF92BF92CF92DF92EF92FF92B5
:1007D0001F93CF93DF936B017C01142F8091000155
:1007E00090910101A0910201B09103018C159D052A
:1007F000AE05BF0509F4BEC00E94AB038823E1F13A
:10080000809106008823A1F0809100009091010062
:10081000A0910200B0910300C816D906EA06FB06B3
:1008200039F48091070090910800892B09F461C088
:10083000C0920000D0920100E0920200F09203000A
:1008400080910B00A7019601833039F099E0220FC7
:10085000331F441F551F9A95D1F761E190E080E066
:100860000E94DF02882391F083E08093050090E0EE
:1008700080E00E949D0280E0DF91CF911F91FF9068
:10088000EF90DF90CF90BF90AF9008952FB7F8947E
:100890008091320690913306A0913406B0913506CE
:1008A0002FBFEC010E94AF0280930A008F3FC1F47A
:1008B0002FB7F8948091320690913306A0913406B8
:1008C000B09135062FBF8C1B9D0B8D32914050F39C
:1008D0008FE08093050090E080E00E949D02C7CFEA
:1008E0008E3FC1F5109208001092070081E08093BE
:1008F0000600C3EBD1E083EBA82E83E0B82E0E9464
:10090000AF028993AC16BD06D1F780910700909194
:1009100008009E5F909308008093070020910900D3
:10092000222319F081159240E8F080910600882377
:10093000C9F080910700909108009C012F5F3F4F04
:1009400030930800209307008230924028F40E94E0
:10095000AF02EFCF8DE0BDCF90E080E00E949D021E
:1009600010920600C0920001D0920101E0920201B3
:10097000F09203014091AE01412B4093AE0181E022
:100980007BCF4F925F926F927F928F929F92AF92A6
:10099000BF92CF92DF92EF92FF920F931F93CF936C
:1009A000DF93EC01423051056105710590F480E060
:1009B000DF91CF911F910F91FF90EF90DF90CF903B
:1009C000BF90AF909F908F907F906F905F904F906F
:1009D000089589859A85AB85BC850196A11DB11DB9
:1009E00084179507A607B70710F3CB88DC88ED8836
:1009F000FE888F89803109F042C0BB27A72F962F30
:100A0000852F480159012A013B01C80ED91EEA1E53
:100A1000FB1E8091000190910101A0910201B09113
:100A20000301C816D906EA06FB0699F58F898031BD
:100A3000C1F5B301A201552766277727440F551F3B
:100A40004D545E4FFA01918280828091AE018160A7
:100A50008093AE018A89823080F08D819E81AF8142
:100A6000B8858C0D9D1DAE1DBF1D8093AF01909369
:100A7000B001A093B101B093B20181E099CFDB0145
:100A8000CA01E7E0B695A79597958795EA95D1F7BE
:100A9000B8CF40E0C701B6010E94E2038111C6CF82
:100AA00086CFB301A2014F77552766277727440FDA
:100AB000551F440F551F4D545E4FFA01808291829D
:100AC000A282B382C2CF8F929F92AF92BF92CF92F7
:100AD000DF92EF92FF920F931F93CF93DF93FC016E
:100AE00081859285A385B4850196A11DB11D8417CA
:100AF0009507A607B70770F480E0DF91CF911F91AB
:100B00000F91FF90EF90DF90CF90BF90AF909F90AC
:100B10008F90089583889488A588B68887898031C6
:100B200089F5BB27A72F962F852FE9016A017B0145
:100B30008F01BC01CD01680D791D8A1D9B1D809020
:100B4000000190900101A0900201B090030186166F
:100B50009706A806B90601F5F8018789803111F5D5
:100B6000DD24EE24FF24F601EE0FFF1FED54FE4FAF
:100B700080819181B0E0A0E088839983AA83BB83C0
:100B800081E0BBCFDB01CA01C7E0B695A795979579
:100B90008795CA95D1F7C9CF40E00E94E203811141
:100BA000DBCFAACFE894C7F8DD24EE24FF24F601BA
:100BB000EE0FFF1FEE0FFF1FED54FE4F808191815E
:100BC000A281B381BF70D8CF3F924F925F926F9254
:100BD0007F928F929F92AF92BF92CF92DF92EF92CD
:100BE000FF920F931F93CF93DF93CDB7DEB72C9770
:100BF0000FB6F894DEBF0FBECDBF5C01DC015B9683
:100C00008D909C905C9716964D905D906D907C9029
:100C10001997411451046104710409F468C0BFEFCD
:100C20004B1A5B0A6B0A7B0A312CF4018185928591
:100C3000A385B4859C01AD012F5F3F4F4F4F5F4FA0
:100C400029873A874B875C87730162011D821E8268
:100C50001F821886F40181859285A385B4852D8134
:100C60003E814F815885281739074A075B0708F0EE
:100C700056C089859A85AB85BC858C159D05AE05CA
:100C8000BF0550F482E0C82ED12CE12CF12C92E06B
:100C9000492E512C612C712C9E012F5F3F4FB701C3
:100CA000A601C4010E9463058823C9F189819A8144
:100CB000AB81BC81892B8A2B8B2B09F12601370153
:100CC0009FEF491A590A690A790A2D813E814F819D
:100CD00058852F5F3F4F4F4F5F4F2D833E834F838C
:100CE00058873FEFC31AD30AE30AF30AB3CFF401DC
:100CF00040805180628073803324339496CFC41433
:100D0000D504E604F70409F70FEF1FEF2FEF3FE0DC
:100D1000B701A601C4010E94C104811119C080E07D
:100D20002C960FB6F894DEBF0FBECDBFDF91CF91EA
:100D30001F910F91FF90EF90DF90CF90BF90AF90F9
:100D40009F908F907F906F905F904F903F9008950D
:100D5000F501468157816085718541155105610511
:100D6000710539F097018601C4010E94C1048823EE
:100D7000B1F2D5011696CD92DD92ED92FC921997C3
:100D8000332051F0D701C6010196A11DB11DF40118
:100D900080839183A283B383F5018789908DA18D90
:100DA000B28D892B8A2B8B2B39F4C78AD08EE18E9A
:100DB000F28E84818068848381E0B2CF4F925F920B
:100DC0006F927F928F929F92AF92BF92CF92DF925B
:100DD000EF92FF920F931F93CF93DF9300D000D039
:100DE0001F92CDB7DEB78C016D83DC0115968C9117
:100DF0001597813009F01FC114968C91149781FFCB
:100E00001AC182FF12C01A968D909D90AD90BC9031
:100E10001D975396CD90DD90ED90FC905697C81499
:100E2000D904EA04FB0409F0A3C0D8015B96ED9154
:100E3000FC915C971A96AD90BD90CD90DC901D977B
:100E400094809A94B601A50189E0769567955795A7
:100E500047958A95D1F79422B1E0BB22992009F4F5
:100E6000FBC0D8015B96ED91FC915C971696CD90F6
:100E7000DD90ED90FC901997B2E0CB1AD108E10813
:100E8000F108858504C0CC0CDD1CEE1CFF1C8A9586
:100E9000D2F74685578560897189C40ED51EE61E36
:100EA000F71EC90CD11CE11CF11CA114B10409F0FE
:100EB000A1C1F8014285538564857585838994892C
:100EC000A589B689481759076A077B0708F492C1B4
:100ED0000E94AB03882309F4AEC0C0920001D092F7
:100EE0000101E0920201F09203018091AE01816064
:100EF0008093AE01F501ED54FE4F8D818083F801A2
:100F000082859385A485B5850196A11DB11D828733
:100F10009387A487B587438954896589768948175B
:100F200059076A077B0738F42481838B948BA58B40
:100F3000B68B20682483D80114968C9183FDFCC065
:100F400081E090E00F900F900F900F900F90DF9145
:100F5000CF911F910F91FF90EF90DF90CF90BF90B6
:100F6000AF909F908F907F906F905F904F9008957B
:100F7000C114D104E104F10461F4F801168217826E
:100F8000108611861A961D921D921D921C921D9715
:100F90004CCF5B96ED91FC91858590E00996B5016B
:100FA000A4014150510961097109082E04C07695C8
:100FB0006795579547950A94D2F726013701B1E016
:100FC0004B1A51086108710804C0769467945794CD
:100FD00047948A95D2F7441655066606770620F0A0
:100FE00089288A288B2869F5F8018789908DA18D39
:100FF000B28D86839783A087B1875801F6E0AF0E44
:10100000B11CD8015B968D919C915C9716964D9181
:101010005D916D917C9119974114510461047104A3
:10102000A9F095010E946305B1E04B1A51086108CF
:1010300071088111E6CF81E090E0F801938382830B
:1010400054C0441A550A660A770AD7CFF801C286F7
:10105000D386E486F586E9CED80116964D915D914A
:101060006D917C911997A114B10409F0ACC04115A0
:1010700051056105710589F557968D919D910D90EA
:10108000BC91A02D0097A105B10509F04FC0C80182
:101090000E94E405882379F2D8015B96ED91FC91DA
:1010A0005C971696CD90DD90ED90FC901997B2E08C
:1010B000CB1AD108E108F108858504C0CC0CDD1CF1
:1010C000EE1CFF1C8A95D2F7468557856089718989
:1010D000C40ED51EE61EF71EECCE9E012F5F3F4FBD
:1010E000CF010E946305811103C090E080E02ACF08
:1010F00089819A81AB81BC81F801238D348DF901FE
:10110000278948EF5FEF60E070E0203121F048EF81
:101110005FEF6FEF7FE084179507A607B70730F002
:10112000C8010E94E40581119CCE85CFF801868319
:101130009783A087B18795CEF8019581992309F40B
:101140007ACF87FF3BC0668577858089918941E0AA
:101150000E94E203882309F46ECFD8015296EC91E5
:10116000B0E2EB9FF0011124ED54FE4F309709F4EB
:1011700062CFD80115968C911597823050F4539612
:101180004D915D916D917C915697448F558F668FEF
:10119000778FD80157968D919C915897938F828F16
:1011A00057964D915D916D917C915A97758B648B9B
:1011B00014968C9114978F7714968C930E94AB039E
:1011C0008111BECE38CF6A017B0122E0C21AD1085C
:1011D000E108F108858504C0CC0CDD1CEE1CFF1C69
:1011E0008A95D2F74685578560897189C40ED51EC8
:1011F000E61EF71E41E0C701B6010E94E20381111D
:1012000079CE19CF85ED8093BC008091BC0084FD20
:10121000FCCF10920604089520918A01260F3327EF
:10122000331F21323105ECF420910604FC0190E0DB
:1012300080E0243069F082E00895A0918A01219134
:10124000AC0146595E4FA40FB52FB11D2C930196EA
:10125000861798F380918A01680F60938A0180E075
:10126000089581E008950895E091080480910704AD
:10127000E81730F4F0E0E75FFB4F808190E00895DD
:101280008FEF9FEF089590910804809107042FEF4E
:101290003FEF981748F4E92FF0E0E75FFB4F20811C
:1012A00030E09F5F90930804C9010895809107047E
:1012B00090910804891B990B0895CF92DF92EF92C9
:1012C000FF920F931F93CF93DF937C01CB018A0191
:1012D0002091BC03222389F0EB016B01C40ED51EC3
:1012E000CC15DD0569F06991D701ED91FC91019074
:1012F000F081E02DC7010995F3CF642F0E940C09FE
:10130000C801DF91CF911F910F91FF90EF90DF9077
:10131000CF900895CF93DF931F92CDB7DEB7698347
:101320002091BC032223F9F02091DF03203258F0F2
:1013300021E030E0FC013383228390E080E00F90D5
:10134000DF91CF9108958091BD03E82FF0E0E25442
:10135000FC4F998190838F5F8093BD038093DF035F
:1013600081E090E0ECCF61E0CE0101960E940C0993
:10137000F7CF90E080E00895CF93DF93EC0160E039
:101380008E810E94190261E08E810E94190260E044
:101390008E810E9419028BE891E00197F1F7DF91AD
:1013A000CF910895CF92DF92EF92FF920F931F9308
:1013B000CF93DF936C017C0187E0E80EF11CD0E055
:1013C000C0E0062F10E0B8010C2E02C0759567959D
:1013D0000A94E2F76170F70181917F010E9419027E
:1013E0002196C430D10579F7C601DF91CF911F91C5
:1013F0000F91FF90EF90DF90CF900C94BC09CF92AB
:10140000DF92EF92FF920F931F93CF93DF93EC0144
:10141000F62E642F8C810E9419028D818F3F19F066
:1014200060E00E9419020F2D10E08F8584FF25C017
:101430006E0187E0C80ED11CF12CE12CB8010E2CF6
:1014400002C0759567950A94E2F76170F601819183
:101450006F010E941902FFEFEF1AFF0A88E0E816F9
:10146000F10461F7CE01DF91CF911F910F91FF90B1
:10147000EF90DF90CF900C94BC09B80184E0759593
:1014800067958A95E1F7CE010E94D2096F2DCE01B2
:10149000DF91CF911F910F91FF90EF90DF90CF9050
:1014A0000C94D20940E0682F80E397E00C94FF0988
:1014B000CF93DF93823029F490913F079860909307
:1014C0003F07809343071092440780E480934507C9
:1014D00080E18093460780E58093470761E0809133
:1014E00034070E944702809135078F3F19F061E071
:1014F0000E94470261E0809136070E944702C0E3E4
:10150000D7E09E012053374080913F0784FD0BC0F8
:1015100084E090E021962817390744F461E08E8139
:101520000E944702EECF88E090E0F4CF8BE39DE08D
:101530000197F1F760E0809134070E94190260E0A2
:10154000809136070E941902809135078F3F19F06C
:1015500060E00E94190280913F0784FD39C063E07A
:1015600080E397E00E94D209CBE4D6E4CE01019754
:10157000F1F763E080E397E00E94D2092197F1F749
:1015800063E080E397E00E94D20983E592E001974F
:10159000F1F762E080E397E00E94D20980913F0773
:1015A00080620E94520A84E0809340078CE00E948F
:1015B000520A81E00E94520A8BE39FE10197F1F702
:1015C00082E08093410786E0DF91CF910C94520A2C
:1015D00080620E94520A8BE496E40197F1F78091B1
:1015E0003F0780620E94520A83E592E00197F1F77B
:1015F00080913F0780620E94520AD0CF41E00E9452
:10160000FF0981E090E00895FC0101900020E9F7D6
:101610003197AF01481B590BBC0180E397E00C9454
:10162000E3008F929F92AF92BF920F931F93CF933D
:10163000DF93CDB7DEB7A1970FB6F894DEBF0FBE2C
:10164000CDBF19A2423008F44AE08E010F5D1F4F52
:10165000842E912CB12CA12CA50194010E942C1850
:10166000E62FB901CA01EA30F4F4E05DD801EE9347
:101670008D01232B242B252B79F790E080E0109708
:1016800019F0CD010E94040BA1960FB6F894DEBFAD
:101690000FBECDBFDF91CF911F910F91BF90AF9043
:1016A0009F908F900895E95CE1CFEF92FF920F93A6
:1016B0001F93CF93DF93EC017B018A01888199818D
:1016C000009729F02A813B812417350788F4B80157
:1016D0006F5F7F4F0E947919009791F099838883FB
:1016E0001B830A832C813D81232B11F4FC01108282
:1016F0001D830C83B701888199810E943F1A0CC019
:1017000088819981009711F00E94F018198218823F
:101710001D821C821B821A82CE01DF91CF911F9104
:101720000F91FF90EF9008951F920F920FB60F92B6
:1017300011242F933F934F935F936F937F938F93D6
:101740009F93AF93BF93EF93FF9386E396E00E943E
:101750006101FF91EF91BF91AF919F918F917F9127
:101760006F915F914F913F912F910F900FBE0F900E
:101770001F9018951F920F920FB60F9211242F935E
:101780008F939F93EF93FF93E0914606F091470666
:101790008081E0914C06F0914D0682FD1BC0908146
:1017A00080914F068F5F8F7320915006821741F012
:1017B000E0914F06F0E0EA5CF94F958F80934F0679
:1017C000FF91EF919F918F912F910F900FBE0F90EE
:1017D0001F9018958081F4CF1F920F920FB60F9231
:1017E00011242F933F938F939F93AF93BF93809137
:1017F000320690913306A0913406B09135063091AF
:10180000B30323E0230F2D3758F50196A11DB11D19
:101810002093B3038093320690933306A09334064B
:10182000B09335068091B4039091B503A091B603AF
:10183000B091B7030196A11DB11D8093B40390939D
:10184000B503A093B603B093B703BF91AF919F9137
:101850008F913F912F910F900FBE0F901F90189571
:1018600026E8230F0296A11DB11DD2CF1F920F9221
:101870000FB60F9211242F933F934F935F936F9363
:101880007F938F939F93AF93BF93EF93FF93809139
:10189000B900887F803609F44AC0F0F5883209F42F
:1018A000A7C018F5803109F49BC0B8F4882309F467
:1018B000F9C0883009F494C0FF91EF91BF91AF91C6
:1018C0009F918F917F916F915F914F913F912F9158
:1018D0000F900FBE0F901F901895883109F488C0A3
:1018E000803251F78093040414C0803409F49DC001
:1018F00040F48033B9F38833F9F68093040485EC1F
:10190000B0C0803509F485C0883509F496C08834A4
:1019100099F60E940209D0CF883909F48CC038F5B5
:10192000883729F050F4883611F0803729F683E0A3
:10193000809306041092AC0157C0883809F47BC02C
:10194000803919F0803809F0B7CF8091AC0180322E
:1019500008F071C0E091AC0181E08E0F8093AC0182
:101960008091BB00F0E0E457FE4F80833DC0803B98
:1019700039F0E0F4803A09F479C0883A09F09CCF54
:1019800084E08093060410928B0110928A01E0910A
:10199000BA03F091BB03099580918A0181110FC0B0
:1019A00081E080938A0110926A0109C0803C09F4A9
:1019B000A6CF883C09F4A3CF883B09F07DCFE09106
:1019C0008B0181E08E0F80938B01F0E0E659FE4F92
:1019D00080818093BB0090918B0180918A0129C006
:1019E000809101048093BB0085EC8093BC0064CFA0
:1019F0009091030480910204981758F5E091030434
:101A000081E08E0F80930304F0E0E052FC4F808170
:101A1000E9CFE091030481E08E0F8093030480916D
:101A2000BB00F0E0E052FC4F808390910304809172
:101A300002049817C8F285E8D8CFE091030481E04A
:101A40008E0F809303048091BB00F0E0E052FC4FC6
:101A500080838091050481115CCF81E08093000434
:101A600084EA8093BC001092060426CF85EC809314
:101A7000BC00109206048091AC01803230F4E091F9
:101A8000AC01F0E0E457FE4F10826091AC0170E0D1
:101A9000E091B803F091B9038CE891E009951092B8
:101AA000AC010ACF1092040434CFE6E3F6E01382CF
:101AB000128288EE93E0A0E0B0E084839583A68351
:101AC000B78326E131E03183208325EC30E0358790
:101AD000248724EC30E03787268720EC30E0318BF8
:101AE000208B21EC30E0338B228B22EC30E0358BE5
:101AF000248B26EC30E0378B268B118E128E138EC2
:101B0000148EE3EDF6E020E520831182E5EDF6E0AA
:101B1000158216821186138642E050E060E070E084
:101B2000448755876687778713A215A614A628E2EF
:101B300031E033A722A717A6EEE1F7E01382128265
:101B400084839583A683B78384E391E09183808324
:101B5000E0E3F7E01382128286E491E091838083D0
:101B600088E084838FEF858389E0868385E087839F
:101B700084E0808783E0818782E0828713861486F1
:101B800015861686178681E00E94580AEAE2F7E079
:101B900011821082138212821582148250E040E07A
:101BA00069E571E0CF010C94550BCF93DF93CDB76E
:101BB000DEB7C654D1090FB6F894DEBF0FBECDBF55
:101BC000789484B5826084BD84B5816084BD85B518
:101BD000826085BD85B5816085BD80916E00816024
:101BE00080936E00109281008091810082608093CA
:101BF00081008091810081608093810080918000CC
:101C00008160809380008091B10084608093B100F6
:101C10008091B00081608093B00080917A008460F0
:101C200080937A0080917A00826080937A0080911C
:101C30007A00816080937A0080917A008068809336
:101C40007A001092C100E0914606F091470682E0CA
:101C50008083E0914206F09143061082E0914406B1
:101C6000F09145068FEC808310924E06E0914A0673
:101C7000F0914B0686E08083E0914806F09149069A
:101C8000808180618083E0914806F09149068081DF
:101C900088608083E0914806F091490680818068E1
:101CA0008083E0914806F091490680818F7D808392
:101CB00060E087E00E944702109208041092070437
:101CC0001092BD031092DF031092060481E080930E
:101CD00005041092000461E082E10E94190261E0B3
:101CE00083E10E9419028091B9008E7F8093B90030
:101CF0008091B9008D7F8093B90088E48093B8000B
:101D000085E48093BC0080EE90E09093BB038093C9
:101D1000BA0381EE90E09093B9038093B8039E01DB
:101D20002F5F3F4F3A8F298FE3EDF0E08491EFEB87
:101D3000F0E01491EBEAF0E00491002309F458C5B7
:101D400081110E94F001E02FF0E0EE0FFF1FE65638
:101D5000FF4FA591B4918C91182309F449C581E0F6
:101D60008093BC0388E68093DE031092BD0310923B
:101D7000DF0360E08EE197E00E948A099091DF0323
:101D8000913208F03FC0809106048111FCCF82E0BF
:101D90008093060481E0809305048FEF8093040410
:101DA0001092030490930204AEEBB3E0E0EEF3E094
:101DB00080E09813C2C11092010480910104806DEB
:101DC0008093010480910004813009F0BAC110921F
:101DD0000004809101048093BB008091BC0083FDCE
:101DE000F8CF85EC8093BC00809106048230E1F34B
:101DF000809104048F3F31F080910404803211F00F
:101E0000809104041092BD031092DF031092BC0372
:101E1000809106048111FCCF81E0809306048093B9
:101E200005049FEF909304041092030496E09093AE
:101E300002048093010480910104806D8093010469
:101E400080910004813009F07EC1109200048091DD
:101E500001048093BB008091BC0083FDF8CF85EC2A
:101E60008093BC00809106048130E1F380910304EB
:101E700097E0873010F490910304A0EEB3E0E9E01E
:101E8000F4E080E0891361C1109208048093070494
:101E90008EE197E00E944309982F92959F702AE067
:101EA000722E8F70A82EB12C979DA00CB11C1124FE
:101EB000A0922D048EE197E00E944309982F9295FD
:101EC0009F708F70082F10E0979D000D111D112439
:101ED00000932C048EE197E00E944309982F92957D
:101EE0009F708F70E82EF12C979DE00CF11C11244F
:101EF000E0922B048EE197E00E9443098EE197E087
:101F00000E944309982F92959F708F70882E912C74
:101F1000979D800C911C112480922A048EE197E0F9
:101F20000E944309982F92959F708F70C82ED12CD4
:101F3000979DC00CD11C1124C09229048EE197E01A
:101F40000E9443091C8A1B8A1E8A1D8A188E1F8ABA
:101F5000282F22952F708F7090E0279D800D911D66
:101F60001124C80CD91C8C0D9D1D8E0D9F1D800F3A
:101F7000911F8550924D4AE0BE016F5F7F4F8A0DE1
:101F80009B1D0E94AA14E98DFA8D01900020E9F7AB
:101F90003197AF01298D3A8D421B530BBE016F5F04
:101FA0007F4FCE0143960E94550B80912A07909156
:101FB0002B07009709F4CFC06B897C8961157105E7
:101FC00009F4C7C040912C0750912D072F89388DF7
:101FD0004217530708F4BDC00E943F1A8F89988D9D
:101FE00090932F0780932E078B899C890E94F0186D
:101FF0004EE254E05EAF4DAFFA0111921192119290
:1020000011928EE295E08E179F07B9F7A2E3B5E033
:10201000BCABABABBCA3ABA300E415E000937C006E
:1020200080917A00806480937A0080917A0086FDA6
:10203000FCCF909178008091790089279827892793
:10204000189FB001199F700D1124072E000C880BEA
:10205000990B0E94E61420E030E040E85AE30E9429
:10206000451520E030E040E250E40E943A16ABA172
:10207000BCA16D937D938D939D93BCA3ABA38BE289
:1020800097E00197F1F7E2E3F6E0EA17FB0731F694
:102090007F0102E3C02E05E0D02E10E000E0B80181
:1020A00090E080E00E94E41420E030E04CE752E44D
:1020B0000E94AC162BED3FE049EC50E40E94451520
:1020C0000E94A7162FE135E84BEE5EE30E9445150E
:1020D0009B01AC0161E77DE38AE09FE30E943A1631
:1020E0004B015C01AC019B01D6016D917D918D91FD
:1020F0009C910E944515F601619371938193919390
:102100006F01A5019401D7019E918E917E916E91F0
:102110007D010E944515F70160837183828393835B
:102120000F5F1F4F0032110509F0B9CFE2E3F5E070
:1021300030E020E090E080E040C02D9121938F5F5F
:1021400038CE85EE4FCE85EE8BCE2D9121938F5FCD
:1021500099CE0E94F0188B899C8990932B078093CD
:102160002A078D899E8990932D0780932C078F894C
:10217000988D90932F0780932E071C8A1B8A34CF4B
:1021800028173907C8F4DC01AA0FBB1FAA0FBB1F11
:10219000AE5CBA4F4481558166817781CD90DD90E8
:1021A000ED90FC901397C482D582E682F7824D931E
:1021B0005D936D937C931397349640E250E08417BF
:1021C000950728F0841B950B56954795F8CF840FFB
:1021D000951F2F5F3F4F2F33310591F61BA61CA68D
:1021E0001DA61EA61FAA18AEF0E8F9AF2FEB2AAF66
:1021F00041E050E058A34F8F1AA219A28F8D98A1E9
:10220000880F991F9CAF8BAFAF8DB8A173E0AA0F59
:10221000BB1F7A95E1F72196BFAFAEAF2197EF8D47
:10222000F8A1EE0FFF1FEE0FFF1F2396FFAFEEAFDB
:1022300023972EE234E038AB2FA742E355E05AABA8
:1022400049AB412C512C3201312C212C10E80FE3E9
:102250001EA21DA28DA19EA1AF8DB8A18A179B07BA
:1022600009F415C1EFA5F8A9FE8FED8F29A93AA9A8
:102270003C8F2B8F9EAB8DAB4DA95EA94034510591
:1022800008F0BAC08B8D9C8D2396AEADBFAD239761
:102290008A0F9B1F25969FAF8EAF2597FC018080EC
:1022A0009180A280B3802D8D3E8D2A0F3B1F2796F3
:1022B0003FAF2EAF2797D9018D919D910D90BC9185
:1022C000A02D8FA398A7A9A7BAA7232D322D412F00
:1022D000502FC501B4010E9445156B017C01A3017B
:1022E00092016FA178A589A59AA50E9445159B0129
:1022F000AC01C701B6010E943A166B017C012FA107
:1023000038A549A55AA5632D722D812F902F0E94C3
:1023100045156FA378A789A79AA7A3019201C501C4
:10232000B4010E9445159B01AC016FA178A589A558
:102330009AA50E943B164B015C01A7019601EB8D0B
:10234000FC8D60817181828193810E943A1625966D
:10235000AEADBFAD25976D937D938D939C931397F1
:10236000A5019401ED8DFE8D608171818281938143
:102370000E943A162796AEADBFAD27976D937D9319
:102380008D939C931397A7019601EB8DFC8D608133
:102390007181828193810E943B16AB8DBC8D6D93C0
:1023A0007D938D939C931397A5019401ED8DFE8DE4
:1023B00060817181828193810E943B16AD8DBE8DBB
:1023C0006D937D938D939C931397EDA9FEA92BADEF
:1023D0003CADE20FF31FFEABEDAB4B8D5C8D219658
:1023E0008EAD9FAD2197480F591F5C8F4B8FA80F63
:1023F000B91FBE8FAD8F40CF2FA938AD49AD5AADB3
:10240000632D722D812F902F0E9445156B017C0149
:10241000A30192016BA57CA58DA59EA50E944515E3
:102420009B01AC01C701B6010E943A166B017C0109
:102430002FA938AD49AD5AADC301B2010E9445156F
:102440004B015C01232D322D412F502F6BA57CA514
:102450008DA59EA50E944515A50194010E943B16DD
:102460002B013C01ADA1BEA11196BEA3ADA3E9A96C
:10247000FAA93496FAABE9AB2FA538A92C5F3F4FE8
:1024800038AB2FA73C2C2D2C1E2D0F2DE3CEE9A110
:10249000FAA1EC5DFE4F85919591A591B491E9A1CA
:1024A000FAA1E052FF4F45915591659174914FAB60
:1024B00058AF69AF7AAF9C01AD0150582BA73CA72C
:1024C0004DA75EA749A15AA14C5F5F4F5AA349A3EC
:1024D0008BAD9CAD98A38F8F4831510509F08ECEFE
:1024E00052E3252E55E0352ED1016D917D918D91D0
:1024F0009D911D01EDADFEADC190D190E190F190A7
:10250000FEAFEDAF9B01AC010E9445154B015C0194
:10251000A7019601C701B6010E9445159B01AC01B8
:10252000C501B4010E943B160E949717F101349730
:1025300060837183828393832BA13CA12215330591
:1025400099F632E3E32E35E0F32E10E000E0712C33
:10255000612C512C412CCC24C394D12CD7016D91EA
:102560007D918D919D917D018C9011969C901197FC
:102570001296AC9012971396BC90F6013196FC8F90
:10258000EB8F9401A5010E94DF1487FF1CC0D701C7
:1025900014962D913D914D915C911797B401C50111
:1025A0000E948C1718167CF49401A501672D762DD6
:1025B000852D942D0E94DF1487FF05C08601782C9D
:1025C000692C5A2C4B2CCB8CDC8CB1E2CB16D10471
:1025D00029F6C8018150904C880F991F880F991FC8
:1025E000FC01EE5CFA4F80809180A280B380FC01F8
:1025F000E65CFA4F40805180628073808A5C9A4F1B
:10260000FC0160817181828193819B01AC010E94F8
:102610003B169B01AC01C501B4010E943A16A3010F
:1026200092010E943B166B017C01A3019201C5013E
:10263000B4010E943A16A70196010E94AC1620E050
:1026400030E040E05FE30E9445154B015C01B801BA
:1026500090E080E00E94E4149B01AC01C501B4014C
:102660000E943B1620E030ED47E055E40E944515FE
:102670000032110509F4C9C020E030E04CE752E413
:102680000E94AC16609304017093050180930601CB
:102690009093070120E030E0A901C701B6010E9434
:1026A0008C17181624F0F7FAF094F7F8F094C0920B
:1026B0000801D0920901E0920A01F0920B01812CED
:1026C000912C5401ABA9BCA96D917D918D919D91E7
:1026D000BCABABAB9B01AC010E9445159B01AC01AF
:1026E000C501B4010E943B164B015C01EBA9FCA99A
:1026F000E215F30539F7A7019601C701B6010E945B
:1027000045159B01AC01C501B4010E943A160E9417
:102710009717A70196010E94AC1660932E0570933F
:102720002F05809330059093310582E00E94580A6E
:102730008EE491E00E94040BE0914307E23008F040
:102740006BC0E150F0E0E05DF84F848980680E9442
:10275000520A84E591E00E94040BE0914307E430C3
:1027600008F05CC0E150F0E0E05DF84F84898068DB
:102770000E94520A8AE591E00E94040BC0902E0547
:10278000D0902F05E0903005F0903105A70196011B
:10279000C701B6010E94D717882309F441C08DE50F
:1027A00091E00E94040B0E9478024B015C0188E8D2
:1027B000C82E83E1D82EE12CF12C0E9478026819F2
:1027C00079098A099B09683E734081059105A8F340
:1027D000F1E0CF1AD108E108F10828EE820E23E0DB
:1027E000921EA11CB11CC114D104E104F10429F70B
:1027F00080E090E0892B09F497CA0E944D0188235C
:1028000009F492CA0E9400008FCA20E030E040E83C
:102810005CE30E94451536CFE1E094CFE3E0A3CF1F
:1028200046015701E894B7F82FEF3FEF4FE75FE716
:10283000C501B4010E94D71781110DC02FEF3FEFE2
:102840004FE75FE7C501B4010E94DF1418161CF4BE
:1028500081E691E0A6CF2FEF3FEF4FE75FE4C7019E
:10286000B6010E948C1718161CF485E691E099CFEA
:102870002FEF3FEF4FE75FECC701B6010E94DF1477
:1028800087FDF3CF20E030E0A901C701B6010E9427
:10289000DF1487FF0AC041E06DE280E397E00E9409
:1028A000FF09F7FAF094F7F8F0942AE037ED43EADD
:1028B0005BE3C701B6010E943B164B015C010E941D
:1028C0001E176B017C010E94E4149B01AC01C50141
:1028D000B4010E943A164B015C014AE0C701B601FF
:1028E0000E94110B41E06EE280E397E00E94FF0935
:1028F00020E030E040E251E4C501B4010E944515FA
:102900004B015C010E941E176B01F12CE12C4AE087
:10291000C701B6010E94110BC701B6010E94E41461
:102920009B01AC01C501B4010E943A1620E030E0E1
:1029300040E251E40E9445150E941E1790E080E09D
:102940004AE00E94110B2FCF80912A0790912B070C
:102950000C94F018BB274A3031F4992322F4BDE2DD
:10296000909581959F4F0C94B614BB27FB0155277A
:10297000AA27880F991FAA1FA41710F0A41B8395DC
:102980005051B9F7A05DAA3308F0A95DA193009753
:1029900079F7B111B1931192CB010C94CF14DC01F2
:1029A000FC01672F71917723E1F7329704C07C9186
:1029B0006D9370836291AE17BF07C8F308950E94AC
:1029C000211508F481E00895E89409C097FB3EF4CE
:1029D00090958095709561957F4F8F4F9F4F99236C
:1029E000A9F0F92F96E9BB279395F69587957795EA
:1029F0006795B795F111F8CFFAF4BB0F11F460FFAA
:102A00001BC06F5F7F4F8F4F9F4F16C0882311F001
:102A100096E911C0772321F09EE8872F762F05C015
:102A2000662371F096E8862F70E060E02AF09A95B0
:102A3000660F771F881FDAF7880F9695879597F9A5
:102A40000895990F0008550FAA0BE0E8FEEF16163F
:102A50001706E807F907C0F012161306E407F50792
:102A600098F0621B730B840B950B39F40A2661F006
:102A7000232B242B252B21F408950A2609F4A140A9
:102A8000A6958FEF811D811D08950E9458150C9405
:102A9000C9150E94BB1538F00E94C21520F095237D
:102AA00011F00C94B2150C94B81511240C94FD156A
:102AB0000E94DA1570F3959FC1F3950F50E0551FF2
:102AC000629FF001729FBB27F00DB11D639FAA2783
:102AD000F00DB11DAA1F649F6627B00DA11D661FD2
:102AE000829F2227B00DA11D621F739FB00DA11DF3
:102AF000621F839FA00D611D221F749F3327A00DAD
:102B0000611D231F849F600D211D822F762F6A2F48
:102B100011249F5750409AF0F1F088234AF0EE0FAD
:102B2000FF1FBB1F661F771F881F91505040A9F7DA
:102B30009E3F510580F00C94B2150C94FD155F3F3B
:102B4000E4F3983ED4F3869577956795B795F79516
:102B5000E7959F5FC1F7FE2B880F911D969587958E
:102B600097F9089597F99F6780E870E060E008950D
:102B70009FEF80EC089500240A9416161706180695
:102B80000906089500240A94121613061406050671
:102B90000895092E0394000C11F4882352F0BB0F02
:102BA00040F4BF2B11F460FF04C06F5F7F4F8F4F65
:102BB0009F4F089557FD9058440F551F59F05F3FA0
:102BC00071F04795880F97FB991F61F09F3F79F04F
:102BD00087950895121613061406551FF2CF4695D1
:102BE000F1DF08C0161617061806991FF1CF869553
:102BF0007105610508940895E894BB276627772737
:102C0000CB0197F908952F923F924F925F926F9266
:102C10007F928F929F92AF92BF92CF92DF92EF926C
:102C2000FF920F931F93CF93DF93CDB7DEB7CA1BED
:102C3000DB0B0FB6F894DEBF0FBECDBF09942A8818
:102C4000398848885F846E847D848C849B84AA84C0
:102C5000B984C884DF80EE80FD800C811B81AA814D
:102C6000B981CE0FD11D0FB6F894DEBF0FBECDBF18
:102C7000ED0108955058BB27AA270E9452160C94C4
:102C8000C9150E94BB1538F00E94C21520F039F416
:102C90009F3F19F426F40C94B8150EF4E095E7FB69
:102CA0000C94B215E92F0E94DA1558F3BA1762078F
:102CB00073078407950720F079F4A6F50C94FC15AA
:102CC0000EF4E0950B2EBA2FA02D0B01B901900147
:102CD0000C01CA01A0011124FF27591B99F0593F8B
:102CE00050F4503E68F11A16F040A22F232F342FD3
:102CF0004427585FF3CF469537952795A795F04021
:102D00005395C9F77EF41F16BA0B620B730B840B35
:102D1000BAF09150A1F0FF0FBB1F661F771F881FED
:102D2000C2F70EC0BA0F621F731F841F48F4879545
:102D300077956795B795F7959E3F08F0B0CF939537
:102D4000880F08F09927EE0F9795879508950E94B0
:102D50004F17E3950C9478170E94C0160C94C91570
:102D60000E94C21558F00E94BB1540F029F45F3F45
:102D700029F00C94B21551110C94FD150C94B81552
:102D80000E94DA1568F39923B1F3552391F3951B4B
:102D9000550BBB27AA2762177307840738F09F5F7C
:102DA0005F4F220F331F441FAA1FA9F335D00E2EE9
:102DB0003AF0E0E832D091505040E695001CCAF756
:102DC0002BD0FE2F29D0660F771F881FBB1F261719
:102DD00037074807AB07B0E809F0BB0B802DBF01F0
:102DE000FF2793585F4F3AF09E3F510578F00C94BF
:102DF000B2150C94FD155F3FE4F3983ED4F386952D
:102E000077956795B795F7959F5FC9F7880F911DDF
:102E10009695879597F90895E1E0660F771F881FCB
:102E2000BB1F621773078407BA0720F0621B730B7E
:102E3000840BBA0BEE1F88F7E09508950E94E21507
:102E400088F09F5798F0B92F9927B751B0F0E1F06B
:102E5000660F771F881F991F1AF0BA95C9F714C01B
:102E6000B13091F00E94FC15B1E008950C94FC156E
:102E7000672F782F8827B85F39F0B93FCCF3869554
:102E800077956795B395D9F73EF4909580957095B1
:102E900061957F4F8F4F9F4F08950C94B8150E94F6
:102EA000E215D8F3E894E0E0BB279F57F0F02AED55
:102EB0003FE049EC06C0EE0FBB0F661F771F881F6F
:102EC00028F0B23A62077307840728F0B25A620BFF
:102ED000730B840BE3959A9572F7803830F49A95CA
:102EE000BB0F661F771F881FD2F790480C94DE1720
:102EF000EF93E0FF07C0A2EA2AED3FE049EC5FEB69
:102F00000E9452160E94C9150F90039401FC90581C
:102F1000E8E6F0E00C94F1170E94211508F48FEF19
:102F2000089519F416F40C94B8150C94DC170E944B
:102F3000E215B8F39923C9F3B6F39F57550B87FFF2
:102F40000E94EA170024A0E640EA900180585695B6
:102F5000979528F4805C660F771F881F20F026174E
:102F60003707480730F4621B730B840B2029312983
:102F70004A2BA69517940794202531254A2758F700
:102F8000660F771F881F20F026173707480730F491
:102F9000620B730B840B200D311D411DA09581F731
:102FA000B901842F9158880F9695879508950E94AE
:102FB0002115880B990B08959F3F31F0915020F413
:102FC000879577956795B795880F911D9695879505
:102FD00097F9089591505040660F771F881FD2F7D8
:102FE00008959F938F937F936F93FF93EF939B012C
:102FF000AC010E944515EF91FF910E9405182F9199
:103000003F914F915F910C944515DF93CF931F93A0
:103010000F93FF92EF92DF927B018C01689406C0C0
:10302000DA2EEF010E945815FE01E894A591259132
:10303000359145915591A6F3EF010E945216FE017C
:103040009701A801DA9469F7DF90EF90FF900F9154
:103050001F91CF91DF910895A1E21A2EAA1BBB1BED
:10306000FD010DC0AA1FBB1FEE1FFF1FA217B30754
:10307000E407F50720F0A21BB30BE40BF50B661F6A
:10308000771F881F991F1A9469F76095709580952E
:1030900090959B01AC01BD01CF010895EE0FFF1F7C
:1030A0000590F491E02D09940F931F93CF93DF9334
:1030B0008230910510F482E090E0E0914A07F091AF
:1030C0004B0730E020E0B0E0A0E0309799F4211504
:1030D000310509F44AC0281B390B24303105D8F5D5
:1030E0008A819B816115710589F1FB01938382833C
:1030F000FE0111C040815181028113814817590797
:10310000E0F04817590799F4109761F012960C9364
:10311000129713961C933296CF01DF91CF911F9196
:103120000F91089500934A0710934B07F4CF211590
:10313000310551F04217530738F0A901DB019A011C
:10314000BD01DF01F801C1CFEF01F9CF90934B072B
:1031500080934A07CDCFFE01E20FF31F8193919335
:103160002250310939832883D7CF209148073091E5
:103170004907232B41F420910E0130910F01309328
:1031800049072093480720910C0130910D0121152A
:10319000310541F42DB73EB7409110015091110116
:1031A000241B350BE0914807F0914907E217F3071C
:1031B000A0F42E1B3F0B2817390778F0AC014E5FA7
:1031C0005F4F2417350748F04E0F5F1F5093490794
:1031D00040934807819391939FCFF0E0E0E09CCF2C
:1031E000CF93DF930097E9F0FC01329713821282AC
:1031F000A0914A07B0914B07ED0130E020E0109715
:10320000A1F420813181820F931F209148073091D2
:1032100049072817390709F061C0F0934907E0937F
:103220004807DF91CF910895EA01CE17DF07E8F54F
:103230004A815B819E0141155105B1F7E901FB838C
:10324000EA8349915991C40FD51FEC17FD0761F42A
:10325000808191810296840F951FE901998388836B
:10326000828193819B838A83F0E0E0E012968D91C6
:103270009C9113970097B9F52D913C911197CD0131
:103280000296820F931F2091480730914907281713
:10329000390739F6309751F510924B0710924A07CB
:1032A000B0934907A0934807BCCFD383C283408122
:1032B0005181840F951FC817D90761F44E5F5F4F86
:1032C00088819981480F591F518340838A819B814E
:1032D000938382832115310509F0B0CFF0934B071A
:1032E000E0934A079ECFFD01DC01C0CF138212821A
:1032F000D7CFB0E0A0E0EFE7F9E10C9405168C0120
:10330000009751F4CB010E9454188C01C801CDB72D
:10331000DEB7E0E10C942116FC01E60FF71F9C01DB
:1033200022503109E217F30708F49DC0D901CD916D
:10333000DC911197C617D70798F0C530D10530F347
:10334000CE0104978617970708F3C61BD70B229761
:10335000C193D1936D937C93CF010E94F018D6CF87
:103360005B01AC1ABD0A4C018C0E9D1EA0914A0750
:10337000B0914B07512C412CF12CE12C109731F5D9
:1033800080914807909149078815990509F05CC01C
:103390004616570608F058C080910C0190910D0117
:1033A000009741F48DB79EB74091100150911101E3
:1033B000841B950BE817F90708F055C0F0934907EF
:1033C000E0934807F90171836083A0CF8D919C91B0
:1033D000119712966C90129713967C901397A815DC
:1033E000B90559F56C0142E0C40ED11CCA14DB04C6
:1033F00020F1AC014A195B09DA011296159780F0A9
:103400006282738251834083D9016D937C93E1146E
:10341000F10471F0D7011396FC93EE93129776CFD7
:1034200022968C0F9D1FF90191838083F301EFCFCA
:10343000F0934B07E0934A0769CF4816590608F402
:103440002C017D01D3019ACFCB010E9454187C013D
:10345000009749F0AE01B8010E94361AC8010E94D7
:10346000F018870153CF10E000E050CFFB01DC01E2
:1034700002C001900D9241505040D8F70895FB01D1
:10348000DC0101900D920020E1F7089510E0C5EBFA
:10349000D0E004C0FE010E944E182196C63BD10721
:0634A000C9F7F894FFCF0C
:1034A600FFFFFFFF000070420000803F00004C0756
:1034B6008000000000008301E3001001D0014101FB
:1034C6001F01330100000000DE06E300B909E20037
:1034D600000000008A095D09B90933095609430944
:1034E600340900000000FE0AE300B909E20054486E
:1034F600443A20002020202020002025006E616E06
:0A35060000696E66006F7666000033
:107E0000112484B714BE81FFF0D085E080938100F7
:107E100082E08093C00088E18093C10086E0809377
:107E2000C20080E18093C4008EE0C9D0259A86E02C
:107E300020E33CEF91E0309385002093840096BBD3
:107E4000B09BFECF1D9AA8958150A9F7CC24DD24C4
:107E500088248394B5E0AB2EA1E19A2EF3E0BF2EE7
:107E6000A2D0813461F49FD0082FAFD0023811F036
:107E7000013811F484E001C083E08DD089C08234E0
:107E800011F484E103C0853419F485E0A6D080C0E4
:107E9000853579F488D0E82EFF2485D0082F10E0AE
:107EA000102F00270E291F29000F111F8ED06801E7
:107EB0006FC0863521F484E090D080E0DECF843638
:107EC00009F040C070D06FD0082F6DD080E0C81688
:107ED00080E7D80618F4F601B7BEE895C0E0D1E017
:107EE00062D089930C17E1F7F0E0CF16F0E7DF06D8
:107EF00018F0F601B7BEE89568D007B600FCFDCFD4
:107F0000A601A0E0B1E02C9130E011968C91119780
:107F100090E0982F8827822B932B1296FA010C0160
:107F200087BEE89511244E5F5F4FF1E0A038BF0790
:107F300051F7F601A7BEE89507B600FCFDCF97BE46
:107F4000E89526C08437B1F42ED02DD0F82E2BD052
:107F50003CD0F601EF2C8F010F5F1F4F84911BD097
:107F6000EA94F801C1F70894C11CD11CFA94CF0C13
:107F7000D11C0EC0853739F428D08EE10CD085E9AC
:107F80000AD08FE07ACF813511F488E018D01DD067
:107F900080E101D065CF982F8091C00085FFFCCF94
:107FA0009093C60008958091C00087FFFCCF809118
:107FB000C00084FD01C0A8958091C6000895E0E648
:107FC000F0E098E1908380830895EDDF803219F02E
:107FD00088E0F5DFFFCF84E1DECF1F93182FE3DFCA
:107FE0001150E9F7F2DF1F91089580E0E8DFEE27F6
:047FF000FF270994CA
:027FFE00040479
:0400000300007E007B
:00000001FF
