:100000000C94B6000C94DE000C94DE000C94DE0020
:100010000C94DE000C94DE000C94DE000C94DE00E8
:100020000C94DE000C94DE000C94DE000C94DE00D8
:100030000C94DE000C94DE000C94DE000C94DE00C8
:100040000C94B30C0C94DE000C94810C0C945B0C9F
:100050000C94DE000C94DE000C94DE000C94DE00A8
:100060000C94FD0C0C94DE0005A84CCDB2D44EB916
:100070003836A9020C50B9918688083CA6AAAA2A4B
:10008000BE000000803F00000000240027002A007E
:1000900000000000250028002B00000000002300C5
:1000A00026002900040404040404040402020202D9
:1000B000020203030303030301020408102040802B
:1000C00001020408102001020408102000000008AA
:1000D000000201000003040700000000000000000F
:1000E00000000000F304353F5E836C3FBE147B3F8D
:1000F0006DC47E3F0FB17F3F43EC7F3F11FB7F3FDD
:10010000C4FE7F3FB1FF7F3FECFF7F3FFBFF7F3FA0
:10011000FFFF7F3F0000803F0000803F0000803FE6
:100120000000803F0000803FF304353F15EFC33EE1
:10013000C2C5473E36BDC83D30FB483DB00AC93C4C
:10014000900E493C880FC93BC60F493BD60FC93AB0
:10015000D90F493ADB0FC939DB0F4939DB0FC938F1
:10016000DB0F4938BF0FC9371C0E291511241FBEDC
:10017000CFEFD8E0DEBFCDBF27E0A0E8B1E001C0FF
:100180001D92A336B207E1F711E0A0E0B1E0E6E48A
:10019000F5E302C005900D92A038B107D9F710E041
:1001A000C5EBD0E004C02197FE010E949E18C43B1D
:1001B000D107C9F70E94080F0C94961A0C940000FE
:1001C00008950895AF92BF92CF92DF92EF92FF927F
:1001D0000F931F93CF93DF936C017B018B01040F6F
:1001E000151FEB015E01AE18BF08C017D10759F00B
:1001F0006991D601ED91FC910190F081E02DC6014D
:100200000995892B79F7C501DF91CF911F910F9146
:10021000FF90EF90DF90CF90BF90AF900895FC01DA
:10022000538D448D252F30E0842F90E0821B930B5B
:10023000541710F0CF96089501970895FC01918D01
:10024000828D981761F0A28DAE0FBF2FB11D5D9604
:100250008C91928D9F5F9F73928F90E008958FEFA6
:100260009FEF0895FC01918D828D981731F0828D5A
:10027000E80FF11D858D90E008958FEF9FEF0895B1
:10028000FC01918D228D892F90E0805C9F4F821B15
:1002900091098F73992708958DE496E00E9440019B
:1002A00021E0892B09F420E0822F089580E090E07E
:1002B000892B29F00E944C0181110C9400000895B3
:1002C000FC01A48DA80FB92FB11DA35ABF4F2C91CB
:1002D000848D90E001968F739927848FA689B789C2
:1002E0002C93A089B1898C91837080648C93938DB9
:1002F000848D981306C00288F389E02D80818F7D5C
:1003000080830895EF92FF920F931F93CF93DF9313
:10031000EC0181E0888F9B8D8C8D98131AC0E88941
:10032000F989808185FF15C09FB7F894EE89FF8910
:100330006083E889F98980818370806480839FBFAE
:1003400081E090E0DF91CF911F910F91FF90EF90AE
:100350000895F62E0B8D10E00F5F1F4F0F731127BE
:10036000E02E8C8D8E110CC00FB607FCFACFE889F9
:10037000F989808185FFF5CFCE010E946001F1CF20
:10038000EB8DEC0FFD2FF11DE35AFF4FF0829FB76D
:10039000F8940B8FEA89FB8980818062CFCF682F28
:1003A0008DE496E00C948201CF93DF93EC01888D6D
:1003B0008823B9F0AA89BB89E889F9898C9185FDE0
:1003C00003C0808186FD0DC00FB607FCF7CF8C916E
:1003D00085FFF2CF808185FFEDCFCE010E946001C5
:1003E000E9CFDF91CF910895833081F028F48130F7
:1003F00099F08230A9F008958730A9F08830C9F0CB
:100400008430B1F4809180008F7D03C080918000A2
:100410008F7780938000089584B58F7784BD089589
:1004200084B58F7DFBCF8091B0008F778093B00033
:1004300008958091B0008F7DF9CF1F93CF93DF9304
:10044000282F30E0F901E453FF4F8491F901E8547B
:10045000FF4FD491F901EC55FF4FC491CC23A9F083
:10046000162F81110E94F401EC2FF0E0EE0FFF1F18
:10047000E057FF4FA591B4918FB7F894EC9111110B
:1004800008C0D095DE23DC938FBFDF91CF911F9101
:100490000895DE2BF8CFCF93DF9390E0FC01E85472
:1004A000FF4F24918C559F4FFC0184918823D1F0FC
:1004B00090E0880F991FFC01EA57FF4FA591B49176
:1004C000FC01E057FF4FC591D49161110EC09FB759
:1004D000F8948C91E22FE0958E238C932881E2236F
:1004E000E8839FBFDF91CF9108958FB7F894EC9187
:1004F000E22BEC938FBFF6CF3FB7F8948091CA03FD
:100500009091CB03A091CC03B091CD0326B5A89BCD
:1005100005C02F3F19F00196A11DB11D3FBFBA2F95
:10052000A92F982F8827BC01CD01620F711D811D55
:10053000911D42E0660F771F881F991F4A95D1F7DA
:10054000089561E0FC0184810E941D028091C30135
:1005500081111092C30108958EBD00000DB407FEF5
:10056000FDCF8EB508958FEF0C94AC020F931F93BF
:10057000CF93DF938C012FB7F89480914906909127
:100580004A06A0914B06B0914C062FBFEC010E9489
:10059000B3028F3FB1F02FB7F89480914906909144
:1005A0004A06A0914B06B0914C062FBF8C1B9D0BA9
:1005B0008017910760F380E0DF91CF911F910F9139
:1005C000089581E0F9CFCF92DF92EF92FF920F93DF
:1005D0001F93CF93DF93EC01162F69017A018E816F
:1005E000882389F08F8198859C012F5F3F4F388742
:1005F0002F838230924018F40E94B302F3CFCE01D1
:100600000E94A1021E828091C301811109C081E074
:100610008093C3019091EA068091EB069CBD8DBD4D
:1006200060E08C810E941D028CE291E00E94B60283
:10063000812F80640E94AC0208E110E0D701C6015E
:10064000002E04C0B695A795979587950A94D2F782
:100650000E94AC0208501109083F8FEF180771F78C
:100660008FEF0E94AC0210E00E94B3028A8787FFDE
:1006700004C01F3F11F01F5FF7CFDF91CF911F9193
:100680000F91FF90EF90DF90CF900895EF92FF923F
:100690000F931F93CF93DF93EC01790182E1411512
:1006A00051056105710599F08B85833039F089E03A
:1006B000440F551F661F771F8A95D1F79A01AB012A
:1006C00068E1CE010E94E302882319F084E08D8363
:1006D00030C08EEF0E94AC0287018EEFF81AF8014D
:1006E00081918F010E94AC020E151F05C1F78FEF9B
:1006F0000E94AC028FEF0E94AC020E94B3028A8774
:100700008F71853089F488E592E00E94B6028823D3
:10071000A9F020E030E0A9016DE0CE010E94E302E3
:10072000882371F084E1D3CF81E18D83CE010E94D3
:10073000A102CE010E94A10280E00AC085E1C7CFDC
:100740000E94B3028111EECFCE010E94A10281E08E
:10075000DF91CF911F910F91FF90EF9008958091BD
:10076000C401882389F140910001509101016091F9
:1007700002017091030129EC31E090E080E00E94D9
:100780004603811102C080E008954091C501509157
:10079000C6016091C7017091C801411551056105FD
:1007A000710581F029EC31E090E080E00E94460381
:1007B000882349F31092C5011092C6011092C70117
:1007C0001092C8011092C40181E00895AF92BF92C7
:1007D000CF92DF92EF92FF921F93CF93DF936B0143
:1007E0007C01142F8091000190910101A0910201E0
:1007F000B09103018C159D05AE05BF0509F4BEC07F
:100800000E94AF038823E1F1809106008823A1F0C4
:100810008091000090910100A0910200B09103002E
:10082000C816D906EA06FB0639F4809107009091B4
:100830000800892B09F461C0C0920000D092010029
:10084000E0920200F092030080910B00A701960154
:10085000833039F099E0220F331F441F551F9A95BA
:10086000D1F761E190E080E00E94E302882391F0FB
:1008700083E08093050090E080E00E94A10280E088
:10088000DF91CF911F91FF90EF90DF90CF90BF90BD
:10089000AF9008952FB7F8948091490690914A0639
:1008A000A0914B06B0914C062FBFEC010E94B30201
:1008B00080930A008F3FC1F42FB7F89480914906C6
:1008C00090914A06A0914B06B0914C062FBF8C1B0D
:1008D0009D0B8D32914050F38FE08093050090E0A6
:1008E00080E00E94A102C7CF8E3FC1F510920800A0
:1008F0001092070081E080930600C9ECD1E089ECFA
:10090000A82E83E0B82E0E94B3028993AC16BD06D0
:10091000D1F780910700909108009E5F90930800A6
:100920008093070020910900222319F0811592403D
:10093000E8F0809106008823C9F08091070090912B
:1009400008009C012F5F3F4F309308002093070061
:100950008230924028F40E94B302EFCF8DE0BDCFE9
:1009600090E080E00E94A10210920600C092000177
:10097000D0920101E0920201F09203014091C40182
:10098000412B4093C40181E07BCF4F925F926F92E5
:100990007F928F929F92AF92BF92CF92DF92EF920F
:1009A000FF920F931F93CF93DF93EC0142305105D9
:1009B0006105710590F480E0DF91CF911F910F9157
:1009C000FF90EF90DF90CF90BF90AF909F908F906F
:1009D0007F906F905F904F90089589859A85AB8541
:1009E000BC850196A11DB11D84179507A607B70701
:1009F00010F3CB88DC88ED88FE888F89803109F080
:100A000042C0BB27A72F962F852F480159012A01E5
:100A10003B01C80ED91EEA1EFB1E80910001909179
:100A20000101A0910201B0910301C816D906EA069E
:100A3000FB0699F58F898031C1F5B301A2015527D5
:100A400066277727440F551F47535E4FFA0191825F
:100A500080828091C40181608093C4018A89823040
:100A600080F08D819E81AF81B8858C0D9D1DAE1D5E
:100A7000BF1D8093C5019093C601A093C701B09399
:100A8000C80181E099CFDB01CA01E7E0B695A795DF
:100A900097958795EA95D1F7B8CF40E0C701B601A1
:100AA0000E94E6038111C6CF86CFB301A2014F7722
:100AB000552766277727440F551F440F551F475367
:100AC0005E4FFA0180829182A282B382C2CF8F925E
:100AD0009F92AF92BF92CF92DF92EF92FF920F93CD
:100AE0001F93CF93DF93FC0181859285A385B48505
:100AF0000196A11DB11D84179507A607B70770F4CD
:100B000080E0DF91CF911F910F91FF90EF90DF90E8
:100B1000CF90BF90AF909F908F90089583889488D6
:100B2000A588B6888789803189F5BB27A72F962F9E
:100B3000852FE9016A017B018F01BC01CD01680DA0
:100B4000791D8A1D9B1D8090000190900101A0904D
:100B50000201B090030186169706A806B90601F5B2
:100B6000F8018789803111F5DD24EE24FF24F60198
:100B7000EE0FFF1FE753FE4F80819181B0E0A0E0B0
:100B800088839983AA83BB8381E0BBCFDB01CA0141
:100B9000C7E0B695A79597958795CA95D1F7C9CF20
:100BA00040E00E94E6038111DBCFAACFE894C7F8AA
:100BB000DD24EE24FF24F601EE0FFF1FEE0FFF1FD2
:100BC000E753FE4F80819181A281B381BF70D8CF5E
:100BD0003F924F925F926F927F928F929F92AF92CD
:100BE000BF92CF92DF92EF92FF920F931F93CF931A
:100BF000DF93CDB7DEB72C970FB6F894DEBF0FBEEC
:100C0000CDBF5C01DC015B968D909C905C97169645
:100C10004D905D906D907C90199741145104610442
:100C2000710409F468C0BFEF4B1A5B0A6B0A7B0AB8
:100C3000312CF40181859285A385B4859C01AD0199
:100C40002F5F3F4F4F4F5F4F29873A874B875C8716
:100C5000730162011D821E821F821886F401818544
:100C60009285A385B4852D813E814F8158852817B3
:100C700039074A075B0708F056C089859A85AB8516
:100C8000BC858C159D05AE05BF0550F482E0C82ECD
:100C9000D12CE12CF12C92E0492E512C612C712C9D
:100CA0009E012F5F3F4FB701A601C4010E94670557
:100CB0008823C9F189819A81AB81BC81892B8A2BD8
:100CC0008B2B09F1260137019FEF491A590A690A4E
:100CD000790A2D813E814F8158852F5F3F4F4F4FBD
:100CE0005F4F2D833E834F8358873FEFC31AD30A4C
:100CF000E30AF30AB3CFF40140805180628073802D
:100D00003324339496CFC414D504E604F70409F7CA
:100D10000FEF1FEF2FEF3FE0B701A601C4010E94C4
:100D2000C504811119C080E02C960FB6F894DEBF7F
:100D30000FBECDBFDF91CF911F910F91FF90EF902C
:100D4000DF90CF90BF90AF909F908F907F906F90EB
:100D50005F904F903F900895F501468157816085DF
:100D60007185411551056105710539F097018601BD
:100D7000C4010E94C5048823B1F2D5011696CD9214
:100D8000DD92ED92FC921997332051F0D701C60104
:100D90000196A11DB11DF40180839183A283B383C9
:100DA000F5018789908DA18DB28D892B8A2B8B2B94
:100DB00039F4C78AD08EE18EF28E84818068848374
:100DC00081E0B2CF4F925F926F927F928F929F920B
:100DD000AF92BF92CF92DF92EF92FF920F931F9349
:100DE000CF93DF9300D000D01F92CDB7DEB78C0138
:100DF0006D83DC0115968C911597813009F01FC128
:100E000014968C91149781FF1AC182FF12C01A9612
:100E10008D909D90AD90BC901D975396CD90DD9098
:100E2000ED90FC905697C814D904EA04FB0409F02D
:100E3000A3C0D8015B96ED91FC915C971A96AD909A
:100E4000BD90CD90DC901D9794809A94B601A50139
:100E500089E076956795579547958A95D1F79422BD
:100E6000B1E0BB22992009F4FBC0D8015B96ED915B
:100E7000FC915C971696CD90DD90ED90FC901997C3
:100E8000B2E0CB1AD108E108F108858504C0CC0C8A
:100E9000DD1CEE1CFF1C8A95D2F7468557856089BC
:100EA0007189C40ED51EE61EF71EC90CD11CE11CAB
:100EB000F11CA114B10409F0A1C1F80142855385C8
:100EC0006485758583899489A589B68948175907EA
:100ED0006A077B0708F492C10E94AF03882309F4D4
:100EE000AEC0C0920001D0920101E0920201F092E6
:100EF00003018091C40181608093C401F501E7532F
:100F0000FE4F8D818083F80182859385A485B58508
:100F10000196A11DB11D82879387A487B587438958
:100F2000548965897689481759076A077B0738F419
:100F30002481838B948BA58BB68B20682483D80166
:100F400014968C9183FDFCC081E090E00F900F908F
:100F50000F900F900F90DF91CF911F910F91FF9005
:100F6000EF90DF90CF90BF90AF909F908F907F9049
:100F70006F905F904F900895C114D104E104F10483
:100F800061F4F80116821782108611861A961D9256
:100F90001D921D921C921D974CCF5B96ED91FC917A
:100FA000858590E00996B501A40141505109610978
:100FB0007109082E04C076956795579547950A9450
:100FC000D2F726013701B1E04B1A510861087108C8
:100FD00004C076946794579447948A95D2F7441640
:100FE00055066606770620F089288A288B2869F539
:100FF000F8018789908DA18DB28D86839783A08714
:10100000B1875801F6E0AF0EB11CD8015B968D9107
:101010009C915C9716964D915D916D917C9119977D
:101020004114510461047104A9F095010E946705FF
:10103000B1E04B1A5108610871088111E6CF81E0D7
:1010400090E0F8019383828354C0441A550A660ADB
:10105000770AD7CFF801C286D386E486F586E9CE33
:10106000D80116964D915D916D917C911997A114BF
:10107000B10409F0ACC0411551056105710589F550
:1010800057968D919D910D90BC91A02D0097A10533
:10109000B10509F04FC0C8010E94E805882379F224
:1010A000D8015B96ED91FC915C971696CD90DD9002
:1010B000ED90FC901997B2E0CB1AD108E108F10845
:1010C000858504C0CC0CDD1CEE1CFF1C8A95D2F774
:1010D0004685578560897189C40ED51EE61EF71EA8
:1010E000ECCE9E012F5F3F4FCF010E94670581111B
:1010F00003C090E080E02ACF89819A81AB81BC81D6
:10110000F801238D348DF901278948EF5FEF60E006
:1011100070E0203121F048EF5FEF6FEF7FE0841740
:101120009507A607B70730F0C8010E94E8058111AE
:101130009CCE85CFF80186839783A087B18795CE13
:10114000F8019581992309F47ACF87FF3BC0668522
:1011500077858089918941E00E94E603882309F41C
:101160006ECFD8015296EC91B0E2EB9FF0011124C2
:10117000E753FE4F309709F462CFD80115968C9152
:101180001597823050F453964D915D916D917C91FD
:101190005697448F558F668F778FD80157968D91CC
:1011A0009C915897938F828F57964D915D916D9139
:1011B0007C915A97758B648B14968C9114978F77CA
:1011C00014968C930E94AF038111BECE38CF6A0172
:1011D0007B0122E0C21AD108E108F108858504C02C
:1011E000CC0CDD1CEE1CFF1C8A95D2F7468557857A
:1011F00060897189C40ED51EE61EF71E41E0C70145
:10120000B6010E94E603811179CE19CF089585EDCC
:101210008093BC008091BC0084FDFCCF10921C0424
:1012200008952091A001260F3327331F2132310565
:10123000ECF420911C04FC0190E080E0243069F083
:1012400082E00895A091A0012191AC0140585E4F29
:10125000A40FB52FB11D2C930196861798F380919A
:10126000A001680F6093A00180E0089581E00895D7
:101270000895E0911E0480911D04E81730F4F0E019
:10128000E15EFB4F808190E008958FEF9FEF08951E
:1012900090911E0480911D042FEF3FEF981748F4A2
:1012A000E92FF0E0E15EFB4F208130E09F5F9093FB
:1012B0001E04C901089580911D0490911E04891B8C
:1012C000990B0895CF92DF92EF92FF920F931F93A5
:1012D000CF93DF937C01CB018A012091D20322239B
:1012E00089F0EB016B01C40ED51ECC15DD0569F04C
:1012F0006991D701ED91FC910190F081E02DC7013A
:101300000995F3CF642F0E941109C801DF91CF9195
:101310001F910F91FF90EF90DF90CF900895CF93A2
:10132000DF931F92CDB7DEB769832091D2032223CA
:10133000F9F02091F503203258F021E030E0FC0173
:101340003383228390E080E00F90DF91CF91089566
:101350008091D303E82FF0E0EC52FC4F9981908309
:101360008F5F8093D3038093F50381E090E0ECCF0F
:1013700061E0CE0101960E941109F7CF90E080E074
:101380000895CF93DF93EC0160E08E810E941D02EF
:1013900061E08E810E941D0260E08E810E941D022C
:1013A0008BE891E00197F1F7DF91CF910895CF920B
:1013B000DF92EF92FF920F931F93CF93DF936C0115
:1013C0007C0187E0E80EF11CD0E0C0E0062F10E0C1
:1013D000B8010C2E02C0759567950A94E2F761700A
:1013E000F70181917F010E941D022196C430D10531
:1013F00079F7C601DF91CF911F910F91FF90EF9088
:10140000DF90CF900C94C109CF92DF92EF92FF92C0
:101410000F931F93CF93DF93EC01F62E642F8C81F3
:101420000E941D028D818F3F19F060E00E941D0215
:101430000F2D10E08F8584FF25C06E0187E0C80E58
:10144000D11CF12CE12CB8010E2C02C075956795CA
:101450000A94E2F76170F60181916F010E941D020A
:10146000FFEFEF1AFF0A88E0E816F10461F7CE01FA
:10147000DF91CF911F910F91FF90EF90DF90CF9070
:101480000C94C109B80184E0759567958A95E1F7D8
:10149000CE010E94D7096F2DCE01DF91CF911F9110
:1014A0000F91FF90EF90DF90CF900C94D70940E020
:1014B000682F87E497E00C94040ACF93DF9382307F
:1014C00029F49091560798609093560780935A0795
:1014D00010925B0780E480935C0780E180935D0756
:1014E00080E580935E0761E080914B070E944B028C
:1014F00080914C078F3F19F061E00E944B0261E040
:1015000080914D070E944B02C7E4D7E09E0127540B
:1015100037408091560784FD0BC084E090E021960F
:101520002817390744F461E08E810E944B02EECF08
:1015300088E090E0F4CF8BE39DE00197F1F760E065
:1015400080914B070E941D0260E080914D070E9430
:101550001D0280914C078F3F19F060E00E941D0230
:101560008091560784FD39C063E087E497E00E94CC
:10157000D709CBE4D6E4CE010197F1F763E087E425
:1015800097E00E94D7092197F1F763E087E497E09D
:101590000E94D70983E592E00197F1F762E087E4C2
:1015A00097E00E94D7098091560780620E94570AEF
:1015B00084E0809357078CE00E94570A81E00E94E4
:1015C000570A8BE39FE10197F1F782E08093580778
:1015D00086E0DF91CF910C94570A80620E94570AEF
:1015E0008BE496E40197F1F78091560780620E94A0
:1015F000570A83E592E00197F1F7809156078062E0
:101600000E94570AD0CF41E00E94040A81E090E096
:101610000895FB0101900020E9F73197AF01461BC7
:10162000570BDC01ED91FC910280F381E02D0994D0
:101630008F929F92AF92BF92EF92FF920F931F9360
:10164000CF93DF93CDB7DEB7A1970FB6F894DEBF87
:101650000FBECDBF7C01FA01CB0119A2223008F4E4
:101660002AE08E010F5D1F4F822E912CB12CA12CF0
:10167000BF01A50194010E947C18F901CA016A30DA
:101680000CF5605DD8016E938D01232B242B252B47
:1016900079F790E080E0109721F0BD01C7010E942A
:1016A000090BA1960FB6F894DEBF0FBECDBFDF9138
:1016B000CF911F910F91FF90EF90BF90AF909F90AF
:1016C0008F900895695CDECF482F50E070E060E0B5
:1016D0002AE08DE496E00C94180B2F923F924F92E3
:1016E0005F926F927F928F929F92AF92BF92CF92B2
:1016F000DF92EF92FF921F93CF93DF93EC016A0189
:101700007B01722EAB019601CB01B6010E94271816
:101710006EE471E0811126C046015701E894B7F8E4
:101720002FEF3FEF4FE75FE7C501B4010E94271895
:1017300081110CC02FEF3FEF4FE75FE7C501B40108
:101740000E942F1562E571E0181664F02FEF3FEF4D
:101750004FE75FE4C701B6010E94DC171816B4F426
:1017600066E571E0CE01DF91CF911F91FF90EF9080
:10177000DF90CF90BF90AF909F908F907F906F90B1
:101780005F904F903F902F900C94090B2FEF3FEFFD
:101790004FE75FECC701B6010E942F1587FDE0CF30
:1017A00020E030E0A901C701B6010E942F15312CBD
:1017B000212C87FF0DC0E881F9810190F081E02D97
:1017C0006DE2CE0109951C01F7FAF094F7F8F09458
:1017D00010E060E070E080E09FE3711641F020E0EF
:1017E00030E040E251E40E94FC161F5FF6CFA701F3
:1017F00096010E948B162B013C010E946E174B0133
:101800005C012AE0BC01A401CE010E94180B7C01FE
:10181000E20CF31C1123E1F1C501B4010E9434155F
:101820009B01AC01C301B2010E948A164B015C010D
:10183000E881F9810190F081E02D6EE2CE010995F9
:10184000E80EF91E115020F120E030E040E251E4B2
:10185000C501B4010E9495152B013C010E946E1731
:101860004B01B12CA12C2AE0B501A401CE010E94AC
:10187000180BE80EF91EC501B4010E9434159B0136
:10188000AC01C301B2010E948A164B015C01DACFA0
:10189000C701DF91CF911F91FF90EF90DF90CF9024
:1018A000BF90AF909F908F907F906F905F904F9080
:1018B0003F902F9008951F920F920FB60F92112410
:1018C0002F933F934F935F936F937F938F939F9348
:1018D000AF93BF93EF93FF938DE496E00E94600176
:1018E000FF91EF91BF91AF919F918F917F916F91F8
:1018F0005F914F913F912F910F900FBE0F901F90CE
:1019000018951F920F920FB60F9211242F938F9359
:101910009F93EF93FF93E0915D06F0915E068081C7
:10192000E0916306F091640682FD1BC09081809176
:1019300066068F5F8F7320916706821741F0E091F2
:101940006606F0E0E35BF94F958F80936606FF91A2
:10195000EF919F918F912F910F900FBE0F901F903D
:1019600018958081F4CF1F920F920FB60F92112419
:101970002F933F938F939F93AF93BF93809149068B
:1019800090914A06A0914B06B0914C063091C90344
:1019900023E0230F2D3758F50196A11DB11D20938B
:1019A000C9038093490690934A06A0934B06B093CF
:1019B0004C068091CA039091CB03A091CC03B091C7
:1019C000CD030196A11DB11D8093CA039093CB0353
:1019D000A093CC03B093CD03BF91AF919F918F9112
:1019E0003F912F910F900FBE0F901F90189526E8F2
:1019F000230F0296A11DB11DD2CF1F920F920FB6D9
:101A00000F9211242F933F934F935F936F937F9384
:101A10008F939F93AF93BF93EF93FF938091B90000
:101A2000887F803609F44AC0F0F5883209F4A7C0EF
:101A300018F5803109F49BC0B8F4882309F4F9C083
:101A4000883009F494C0FF91EF91BF91AF919F91BD
:101A50008F917F916F915F914F913F912F910F9057
:101A60000FBE0F901F901895883109F488C08032FE
:101A700051F780931A0414C0803409F49DC040F4D7
:101A80008033B9F38833F9F680931A0485ECB0C03B
:101A9000803509F485C0883509F496C0883499F6F4
:101AA0000E940709D0CF883909F48CC038F58837EF
:101AB00029F050F4883611F0803729F683E08093BE
:101AC0001C041092C20157C0883809F47BC08039C9
:101AD00019F0803809F0B7CF8091C201803208F048
:101AE00071C0E091C20181E08E0F8093C2018091AC
:101AF000BB00F0E0EE55FE4F80833DC0803B39F0E7
:101B0000E0F4803A09F479C0883A09F09CCF84E087
:101B100080931C041092A1011092A001E091D003C7
:101B2000F091D10309958091A00181110FC081E04E
:101B30008093A0011092800109C0803C09F4A6CFD7
:101B4000883C09F4A3CF883B09F07DCFE091A10147
:101B500081E08E0F8093A101F0E0E058FE4F80817C
:101B60008093BB009091A1018091A00129C0809138
:101B700017048093BB0085EC8093BC0064CF9091E8
:101B8000190480911804981758F5E091190481E020
:101B90008E0F80931904F0E0EA50FC4F8081E9CF6A
:101BA000E091190481E08E0F809319048091BB00AD
:101BB000F0E0EA50FC4F8083909119048091180462
:101BC0009817C8F285E8D8CFE091190481E08E0F0C
:101BD000809319048091BB00F0E0EA50FC4F8083B1
:101BE00080911B0481115CCF81E08093160484EA0C
:101BF0008093BC0010921C0426CF85EC8093BC001F
:101C000010921C048091C201803230F4E091C20134
:101C1000F0E0EE55FE4F10826091C20170E0E0915D
:101C2000CE03F091CF0382EA91E009951092C201B0
:101C30000ACF10921A0434CF1092500610924F0619
:101C400088EE93E0A0E0B0E08093510690935206B6
:101C5000A0935306B093540626E131E030934E062C
:101C600020934D0625EC30E030935A062093590618
:101C700024EC30E030935C0620935B0620EC30E0EF
:101C800030935E0620935D0621EC30E030936006D1
:101C900020935F0622EC30E03093620620936106C9
:101CA00026EC30E0309364062093630610926606BB
:101CB00010926706109268061092690620E520933C
:101CC000EA061092EB061092F1061092F2061092BC
:101CD000F5061092F70642E050E060E070E04093B5
:101CE000F8065093F9066093FA067093FB0610927B
:101CF0000F07109219071092180728E231E030936D
:101D000017072093160710921B071092380710929E
:101D100037078093390790933A07A0933B07B09316
:101D20003C0784E391E09093360780933507109247
:101D30004A071092490786E491E090934807809300
:101D4000470788E080934B078FEF80934C0789E02B
:101D500080934D0785E080934E0784E080934F0782
:101D600083E08093500782E08093510710925207DE
:101D7000109253071092540710925507109256076D
:101D800081E00E945D0A1092420710924107109272
:101D9000440710924307109246071092450761E0EE
:101DA00070E090E080E00E94C9190097E1F0909304
:101DB00042078093410710924407109243072091F5
:101DC000450730914607232B11F4FC011082109235
:101DD00046071092450760E771E0809141079091B6
:101DE00042070C948F1A8091410790914207009707
:101DF00011F00E9440191092420710924107109270
:101E00004607109245071092440710924307089521
:101E1000CF93DF93CDB7DEB7AC970FB6F894DEBFA4
:101E20000FBECDBF789484B5826084BD84B58160D7
:101E300084BD85B5826085BD85B5816085BD809195
:101E40006E00816080936E0010928100809181000D
:101E50008260809381008091810081608093810005
:101E6000809180008160809380008091B1008460C7
:101E70008093B1008091B00081608093B000809128
:101E80007A00846080937A0080917A0082608093E7
:101E90007A0080917A00816080937A0080917A0044
:101EA000806880937A001092C100E0915D06F09105
:101EB0005E0682E08083E0915906F0915A06108216
:101EC000E0915B06F0915C068FEC808310926506D2
:101ED000E0916106F091620686E08083E0915F0602
:101EE000F0916006808180618083E0915F06F091CF
:101EF0006006808188608083E0915F06F0916006D3
:101F0000808180688083E0915F06F0916006808127
:101F10008F7D808360E087E00E944B0210921E0458
:101F200010921D041092D3031092F50310921C041A
:101F300081E080931B041092160461E082E10E940C
:101F40001D0261E083E10E941D028091B9008E7F35
:101F50008093B9008091B9008D7F8093B90088E4A7
:101F60008093B80085E48093BC0080EE90E090936D
:101F7000D1038093D00381EE90E09093CF038093C0
:101F8000CE03E3EDF0E08491EFEBF0E0F491F98320
:101F9000EBEAF0E0F491FB83FF2309F442C58111E1
:101FA0000E94F4012B81E22FF0E0EE0FFF1FE656B6
:101FB000FF4FA591B4918C913981382309F431C533
:101FC00081E08093D20388E68093F4031092D303D8
:101FD0001092F50360E085E397E00E948F099091ED
:101FE000F503913208F03FC080911C048111FCCFB1
:101FF00082E080931C0481E080931B048FEF809328
:102000001A041092190490931804E4EDF3E0A6EF7B
:10201000B3E080E09813D6C11092170480911704A2
:10202000806D8093170480911604813009F0CEC131
:1020300010921604809117048093BB008091BC001D
:1020400083FDF8CF85EC8093BC0080911C04823026
:10205000E1F380911A048F3F31F080911A048032AD
:1020600011F080911A041092D3031092F50310928C
:10207000D20380911C048111FCCF81E080931C0469
:1020800080931B049FEF90931A041092190496E01A
:10209000909318048093170480911704806D8093A7
:1020A000170480911604813009F092C11092160431
:1020B000809117048093BB008091BC0083FDF8CF12
:1020C00085EC8093BC0080911C048130E1F3809109
:1020D000190497E0873010F490911904A6EFB3E04B
:1020E000EFE1F4E080E0891375C110921E04809343
:1020F0001D0485E397E00E944809282F22952F7040
:102100008F7090E0AAE02A9F800D911D112480938A
:102110003F0485E397E00E944809282F22952F70FD
:102120008F7090E0BAE02B9F800D911D1124809359
:10213000400485E397E00E944809282F22952F70DC
:102140008F7090E0EAE02E9F800D911D1124809306
:10215000410485E397E00E94480985E397E00E94E7
:102160004809282F22952F708F7090E0FAE02F9F5A
:10217000800D911D11248093440485E397E00E9413
:102180004809282F22952F708F7090E03AE0239F06
:10219000800D911D11248093430485E397E00E94F4
:1021A0004809282F22952F708F7090E0AAE02A9F6F
:1021B000800D911D112480934204E5E4F4E0F8A31E
:1021C000EF8F119211921192119225E435E02E17A2
:1021D0003F07B9F789E495E0988F8F8B9A838983BD
:1021E00000E415E000937C0080917A008064809385
:1021F0007A0080917A0086FDFCCF809178009091E2
:102200007900189FB001199F700D1124072E000C42
:10221000880B990B0E94361520E030E040E85AE325
:102220000E94951520E030E040E250E40E948A16BA
:10223000E981FA816193719381939193FA83E983A0
:102240008BE297E00197F1F729E436E02E173F077C
:1022500049F66AE571E08DE496E00E94090B6EE6AE
:1022600071E08DE496E00E94090B809144040E9485
:10227000640B8DE290E00E94CF01809143040E94A4
:10228000640B8DE290E00E94CF01809142040E9495
:10229000640B8DE290E00E94CF018DE290E00E94FD
:1022A000CF01809141040E94640B8AE390E00E9478
:1022B000CF01809140040E94640B8AE390E00E9469
:1022C000CF0180913F040E94640B8DE090E00E945A
:1022D000CF0189E495E09C838B83AB81BC814D91D8
:1022E0005D916D917D91BC83AB8322E08DE496E09E
:1022F0000E946D0B6EE671E08DE496E00E94090B82
:10230000E981FA812B813C81E217F30731F709E477
:1023100016E089E4E82E85E0F82E1A821982A98158
:10232000BA81BD0190E080E00E94341520E030E0E9
:102330004CE752E40E94FC162BED3FE049EC50E4E0
:102340000E9495150E94F7162FE135E84BEE5EE3EB
:102350000E9495159B01AC0161E77DE38AE09FE354
:102360000E948A164B015C01AC019B01F701608160
:102370007181828193810E949515D7016D937D9320
:102380008D939D937D01A5019401F8019291829115
:10239000729162918F010E949515D8016D937D9382
:1023A0008D939C931397E981FA813196FA83E9839F
:1023B000B09709F0B4CFE9E4F5E030E020E090E038
:1023C00080E029C021912D938F5F24CE85EE3BCEF6
:1023D00085EE77CE2D9121938F5F85CE2817390713
:1023E000C8F4DC01AA0FBB1FAA0FBB1FA75BBA4F23
:1023F0004481558166817781CD90DD90ED90FC9090
:102400001397C482D582E682F7824D935D936D93D4
:102410007C931397349640E250E08417950728F098
:10242000841B950B56954795F8CF840F951F2F5F0A
:102430003F4F2F33310591F61F86188A198A1A8A61
:102440001B8E1C8EF0E8FD8F2FEB2E8F81E090E02D
:102450009A8389831E821D82A981BA81AA0FBB1F1C
:10246000B8A7AFA3E981FA8153E0EE0FFF1F5A9599
:10247000E1F7FAA3E9A329813A81220F331F220F42
:10248000331F3CA32BA385E494E09C8B8B8BA9E4A6
:10249000B5E0BE8BAD8B412C512C320110E000E039
:1024A000B0E8BF83EFE3E8871A86198629853A8565
:1024B00089819A812817390709F4FEC0AB89BC8944
:1024C000BCA7ABA72D883E883A8F298FE98DFA8D5E
:1024D000E034F10508F0A5C02BA13CA1220D331D6D
:1024E0003EA32DA3D9018D909D90AD90BC90EBA102
:1024F000FCA12BA53CA5E20FF31FFAA7E9A7808159
:102500009181A281B3818B879C87AD87BE87212F64
:10251000302F4F815885C501B4010E9495156B017C
:102520007C01A30192016B857C858D859E850E942F
:1025300095159B01AC01C701B6010E948A166B017B
:102540007C012B853C854D855E85612F702F8F81A9
:1025500098850E9495156B877C878D879E87A30140
:102560009201C501B4010E9495159B01AC016B85D8
:102570007C858D859E850E948B164B015C01A70191
:102580009601F10160817181828193810E948A1696
:10259000ADA1BEA16D937D938D939C931397A501DF
:1025A0009401EBA5FCA560817181828193810E94D9
:1025B0008A16A9A5BAA56D937D938D939C931397C5
:1025C000A7019601F10160817181828193810E944E
:1025D0008B16D1016D937D938D939C931397A501D9
:1025E0009401EBA5FCA560817181828193810E9499
:1025F0008B16ABA5BCA56D937D938D939C93139780
:10260000E98DFA8D2FA138A5E20FF31FFA8FE98F1C
:1026100089A19AA1280E391EA80FB91FBCA7ABA784
:1026200055CF2B8D3C8D4D8D5E8D612F702F8F8101
:1026300098850E9495156B017C01A30192016F851D
:10264000788989899A890E9495159B01AC01C701F7
:10265000B6010E948A166B017C012B8D3C8D4D8D3D
:102660005E8DC301B2010E9495154B015C01212FC3
:10267000302F4F8158856F85788989899A890E9482
:102680009515A50194010E948B162B013C01A9858B
:10269000BA851196BA87A987ED89FE893496FE8B93
:1026A000ED8B2B893C892C5F3F4F3C8B2B8B1C2D5A
:1026B0000D2DEF82F886FACEED81FE81EC5DFE4FA6
:1026C0004591559165917491ED81FE81E052FF4FE6
:1026D00085919591A591B4918B8F9C8FAD8FBE8F75
:1026E000DB01CA01B0588F87988BA98BBA8BAD815B
:1026F000BE811496BE83AD83EFA1F8A5FA83E9836A
:10270000589709F0A9CE29E435E03A832983A981B5
:10271000BA816D917D918D919D91BA83A983EF8D41
:10272000F8A1C190D190E190F190F8A3EF8F9B01B7
:10273000AC010E9495154B015C01A7019601C701F0
:10274000B6010E9495159B01AC01C501B4010E9420
:102750008B160E94E717E981FA81349760837183B1
:10276000828393832B813C8189819A812817390741
:1027700071F609E415E01A821982712C612C512C32
:10278000412CEE24E394F12CD8016D917D918D9133
:102790009D918D018C9011969C9011971296CC90E2
:1027A00012971396DC905701BFEFAB1ABB0A940146
:1027B000A6010E942F1587FF1BC0F80124813581D7
:1027C00046815781B401C6010E94DC17181684F4B3
:1027D000272D362D452D542DB401C6010E94DC173E
:1027E000181634F4FA82E982782C692C5C2C4D2C72
:1027F0007501F1E2AF16B10439F689819A818150F1
:10280000904C880F991F880F991FFC01E75BFA4FC6
:1028100080809180A280B380FC01EF5AFA4F408003
:10282000518062807380835B9A4FDC016D917D9152
:102830008D919C919B01AC010E948B169B01AC0178
:10284000C501B4010E948A16A30192010E948B1651
:102850006B017C01A3019201C501B4010E948A169B
:10286000A70196010E94FC1620E030E040E05FE303
:102870000E9495154B015C01E981FA81BF0190E04E
:1028800080E00E9434159B01AC01C501B4010E9497
:102890008B1620E030ED47E055E40E949515298124
:1028A0003A812032310509F4C9C020E030E04CE71C
:1028B00052E40E94FC16609304017093050180931A
:1028C00006019093070120E030E0A901C701B6019D
:1028D0000E94DC17181624F0F7FAF094F7F8F09439
:1028E000C0920801D0920901E0920A01F0920B0116
:1028F000812C912C5401AF89B88D6D917D918D9172
:102900009D91B88FAF8B9B01AC010E9495159B01E7
:10291000AC01C501B4010E948B164B015C01EB8137
:10292000FC812F89388DE217F30729F7A70196015B
:10293000C701B6010E9495159B01AC01C501B40108
:102940000E948A160E94E717A70196010E94FC16B2
:10295000609345057093460580934705909348051D
:1029600082E00E945D0A61E771E087E497E00E94DF
:10297000090BE0915A07E23008F067C0E150F0E03F
:10298000E95BF84F848980680E94570A67E771E025
:1029900087E497E00E94090BE0915A07E43008F0C1
:1029A00056C0E150F0E0E95BF84F848980680E94EE
:1029B000570A6DE771E087E497E00E94090B4091A8
:1029C000450550914605609147057091480522E004
:1029D00087E497E00E946D0B0E947C024B015C0132
:1029E00088E8C82E83E1D82EE12CF12C0E947C02CD
:1029F000681979098A099B09683E73408105910528
:102A0000A8F331E0C31AD108E108F10888EE880E76
:102A100083E0981EA11CB11CC114D104E104F1048F
:102A200029F780E090E0892B09F4ABCA0E944C01A1
:102A3000882309F4A6CA0E940000A3CA20E030E05F
:102A400040E85CE30E94951536CFE1E098CFE3E0E3
:102A5000A9CF80914107909142070C9440190E94A0
:102A6000711508F481E00895E89409C097FB3EF4DD
:102A700090958095709561957F4F8F4F9F4F9923CB
:102A8000A9F0F92F96E9BB279395F6958795779549
:102A90006795B795F111F8CFFAF4BB0F11F460FF09
:102AA0001BC06F5F7F4F8F4F9F4F16C0882311F061
:102AB00096E911C0772321F09EE8872F762F05C075
:102AC000662371F096E8862F70E060E02AF09A9510
:102AD000660F771F881FDAF7880F9695879597F905
:102AE0000895990F0008550FAA0BE0E8FEEF16169F
:102AF0001706E807F907C0F012161306E407F507F2
:102B000098F0621B730B840B950B39F40A2661F065
:102B1000232B242B252B21F408950A2609F4A14008
:102B2000A6958FEF811D811D08950E94A8150C9414
:102B300019160E940B1638F00E94121620F09523E9
:102B400011F00C9402160C94081611240C944D16D6
:102B50000E942A1670F3959FC1F3950F50E0551F00
:102B6000629FF001729FBB27F00DB11D639FAA27E2
:102B7000F00DB11DAA1F649F6627B00DA11D661F31
:102B8000829F2227B00DA11D621F739FB00DA11D52
:102B9000621F839FA00D611D221F749F3327A00D0C
:102BA000611D231F849F600D211D822F762F6A2FA8
:102BB00011249F5750409AF0F1F088234AF0EE0F0D
:102BC000FF1FBB1F661F771F881F91505040A9F73A
:102BD0009E3F510580F00C9402160C944D165F3FF9
:102BE000E4F3983ED4F3869577956795B795F79576
:102BF000E7959F5FC1F7FE2B880F911D96958795EE
:102C000097F9089597F99F6780E870E060E008956C
:102C10009FEF80EC089500240A94161617061806F4
:102C20000906089500240A941216130614060506D0
:102C30000895092E0394000C11F4882352F0BB0F61
:102C400040F4BF2B11F460FF04C06F5F7F4F8F4FC4
:102C50009F4F089557FD9058440F551F59F05F3FFF
:102C600071F04795880F97FB991F61F09F3F79F0AE
:102C700087950895121613061406551FF2CF469530
:102C8000F1DF08C0161617061806991FF1CF8695B2
:102C90007105610508940895E894BB276627772796
:102CA000CB0197F908952F923F924F925F926F92C6
:102CB0007F928F929F92AF92BF92CF92DF92EF92CC
:102CC000FF920F931F93CF93DF93CDB7DEB7CA1B4D
:102CD000DB0B0FB6F894DEBF0FBECDBF09942A8878
:102CE000398848885F846E847D848C849B84AA8420
:102CF000B984C884DF80EE80FD800C811B81AA81AD
:102D0000B981CE0FD11D0FB6F894DEBF0FBECDBF77
:102D1000ED0108955058BB27AA270E94A2160C94D3
:102D200019160E940B1638F00E94121620F039F482
:102D30009F3F19F426F40C9408160EF4E095E7FB77
:102D40000C940216E92F0E942A1658F3BA1762074C
:102D500073078407950720F079F4A6F50C944C16B8
:102D60000EF4E0950B2EBA2FA02D0B01B9019001A6
:102D70000C01CA01A0011124FF27591B99F0593FEA
:102D800050F4503E68F11A16F040A22F232F342F32
:102D90004427585FF3CF469537952795A795F04080
:102DA0005395C9F77EF41F16BA0B620B730B840B95
:102DB000BAF09150A1F0FF0FBB1F661F771F881F4D
:102DC000C2F70EC0BA0F621F731F841F48F48795A5
:102DD00077956795B795F7959E3F08F0B0CF939597
:102DE000880F08F09927EE0F9795879508950E9410
:102DF0009F17E3950C94C8170E9410170C9419168E
:102E00000E94121658F00E940B1640F029F45F3F02
:102E100029F00C94021651110C944D160C940816BE
:102E20000E942A1668F39923B1F3552391F3951B59
:102E3000550BBB27AA2762177307840738F09F5FDB
:102E40005F4F220F331F441FAA1FA9F335D00E2E48
:102E50003AF0E0E832D091505040E695001CCAF7B5
:102E60002BD0FE2F29D0660F771F881FBB1F261778
:102E700037074807AB07B0E809F0BB0B802DBF014F
:102E8000FF2793585F4F3AF09E3F510578F00C941E
:102E900002160C944D165F3FE4F3983ED4F38695EA
:102EA00077956795B795F7959F5FC9F7880F911D3F
:102EB0009695879597F90895E1E0660F771F881F2B
:102EC000BB1F621773078407BA0720F0621B730BDE
:102ED000840BBA0BEE1F88F7E09508950E94321616
:102EE00088F09F5798F0B92F9927B751B0F0E1F0CB
:102EF000660F771F881F991F1AF0BA95C9F714C07B
:102F0000B13091F00E944C16B1E008950C944C162B
:102F1000672F782F8827B85F39F0B93FCCF38695B3
:102F200077956795B395D9F73EF490958095709510
:102F300061957F4F8F4F9F4F08950C9408160E9404
:102F40003216D8F3E894E0E0BB279F57F0F02AED63
:102F50003FE049EC06C0EE0FBB0F661F771F881FCE
:102F600028F0B23A62077307840728F0B25A620B5E
:102F7000730B840BE3959A9572F7803830F49A9529
:102F8000BB0F661F771F881FD2F790480C942E182E
:102F9000EF93E0FF07C0A2EA2AED3FE049EC5FEBC8
:102FA0000E94A2160E9419160F90039401FC9058DB
:102FB000E8E6F0E00C9441180E94711508F48FEFD8
:102FC000089519F416F40C9408160C942C180E9409
:102FD0003216B8F39923C9F3B6F39F57550B87FF01
:102FE0000E943A180024A0E640EA900180585695C5
:102FF000979528F4805C660F771F881F20F02617AE
:103000003707480730F4621B730B840B20293129E2
:103010004A2BA69517940794202531254A2758F75F
:10302000660F771F881F20F026173707480730F4F0
:10303000620B730B840B200D311D411DA09581F790
:10304000B901842F9158880F9695879508950E940D
:103050007115880B990B08959F3F31F0915020F422
:10306000879577956795B795880F911D9695879564
:1030700097F9089591505040660F771F881FD2F737
:1030800008959F938F937F936F93FF93EF939B018B
:10309000AC010E949515EF91FF910E9455182F9158
:1030A0003F914F915F910C949515DF93CF931F93B0
:1030B0000F93FF92EF92DF927B018C01689406C020
:1030C000DA2EEF010E94A815FE01E894A591259142
:1030D000359145915591A6F3EF010E94A216FE018C
:1030E0009701A801DA9469F7DF90EF90FF900F91B4
:1030F0001F91CF91DF910895A1E21A2EAA1BBB1B4D
:10310000FD010DC0AA1FBB1FEE1FFF1FA217B307B3
:10311000E407F50720F0A21BB30BE40BF50B661FC9
:10312000771F881F991F1A9469F76095709580958D
:1031300090959B01AC01BD01CF010895EE0FFF1FDB
:103140000590F491E02D09940F931F93CF93DF9393
:103150008230910510F482E090E0E0916107F091F7
:10316000620730E020E0B0E0A0E0309799F421154C
:10317000310509F44AC0281B390B24303105D8F534
:103180008A819B816115710589F1FB01938382839B
:10319000FE0111C0408151810281138148175907F6
:1031A000E0F04817590799F4109761F012960C93C4
:1031B000129713961C933296CF01DF91CF911F91F6
:1031C0000F9108950093610710936207F4CF2115C2
:1031D000310551F04217530738F0A901DB019A017C
:1031E000BD01DF01F801C1CFEF01F9CF9093620774
:1031F00080936107CDCFFE01E20FF31F819391937E
:103200002250310939832883D7CF20915F0730912D
:103210006007232B41F420910E0130910F01309370
:10322000600720935F0720910C0130910D0121155B
:10323000310541F42DB73EB7409110015091110175
:10324000241B350BE0915F07F0916007E217F3074D
:10325000A0F42E1B3F0B2817390778F0AC014E5F06
:103260005F4F2417350748F04E0F5F1F50936007DC
:1032700040935F07819391939FCFF0E0E0E09CCF74
:10328000CF93DF930097E9F0FC013297138212820B
:10329000A0916107B0916207ED0130E020E0109746
:1032A000A1F420813181820F931F20915F0730911B
:1032B00060072817390709F061C0F0936007E093B1
:1032C0005F07DF91CF910895EA01CE17DF07E8F598
:1032D0004A815B819E0141155105B1F7E901FB83EC
:1032E000EA8349915991C40FD51FEC17FD0761F48A
:1032F000808191810296840F951FE90199838883CB
:10330000828193819B838A83F0E0E0E012968D9125
:103310009C9113970097B9F52D913C911197CD0190
:103320000296820F931F20915F0730916007281744
:10333000390739F6309751F51092620710926107FC
:10334000B0936007A0935F07BCCFD383C283408153
:103350005181840F951FC817D90761F44E5F5F4FE5
:1033600088819981480F591F518340838A819B81AD
:10337000938382832115310509F0B0CFF093620762
:10338000E09361079ECFFD01DC01C0CF1382128262
:10339000D7CFB0E0A0E0EFECF9E10C9455168C012A
:1033A000009751F4CB010E94A4188C01C801CDB73D
:1033B000DEB7E0E10C947116FC01E60FF71F9C01EB
:1033C00022503109E217F30708F49DC0D901CD91CD
:1033D000DC911197C617D70798F0C530D10530F3A7
:1033E000CE0104978617970708F3C61BD70B2297C1
:1033F000C193D1936D937C93CF010E944019D6CF96
:103400005B01AC1ABD0A4C018C0E9D1EA091610798
:10341000B0916207512C412CF12CE12C109731F521
:1034200080915F07909160078815990509F05CC04D
:103430004616570608F058C080910C0190910D0176
:10344000009741F48DB79EB7409110015091110142
:10345000841B950BE817F90708F055C0F093600737
:10346000E0935F07F90171836083A0CF8D919C91F8
:10347000119712966C90129713967C901397A8153B
:10348000B90559F56C0142E0C40ED11CCA14DB0425
:1034900020F1AC014A195B09DA011296159780F008
:1034A0006282738251834083D9016D937C93E114CE
:1034B000F10471F0D7011396FC93EE93129776CF37
:1034C00022968C0F9D1FF90191838083F301EFCF2A
:1034D000F0936207E093610769CF4816590608F434
:1034E0002C017D01D3019ACFCB010E94A4187C014D
:1034F000009749F0AE01B8010E94861AC8010E94E7
:103500004019870153CF10E000E050CFFB01DC01F0
:1035100002C001900D9241505040D8F70895FB0130
:10352000DC0101900D920020E1F7089510E0C5EB59
:10353000D0E004C0FE010E949E182196C63BD10730
:06354000C9F7F894FFCF6B
:10354600FFFFFFFF000070420000803F000063079E
:103556008000000000008201E2000F01D40140015A
:103566001E01320100000000E206E200BE09060963
:10357600000000008F096209BE0938095B09480985
:10358600390900000000030BE200BE0906096E615E
:103596006E00696E66006F766600526567697374C1
:1035A600726F20666569746F20656D3A20000D0A9A
:1035B600005448443A2000202020202000202500E6
:00000001FF
