:1000000050C100007FC100007DC100007BC1000025
:1000100079C1000077C1000075C1000073C1000004
:1000200071C100006FC100006DC100006BC1000014
:1000300069C1000067C1000065C1000063C1000024
:1000400061C100005FC100005DC100005BC1000034
:1000500059C1000057C1000055C100000C94631342
:1000600051C100000C942D130C9403134BC10000DC
:1000700049C1000047C1000045C1000043C1000064
:1000800041C100003FC100003DC100003BC1000074
:1000900039C1000037C1000035C1000033C1000084
:1000A00031C100002FC100002DC100002BC1000094
:1000B00029C1000027C1000025C1000023C10000A4
:1000C00021C100001FC100001DC100001BC10000B4
:1000D00019C1000017C1000015C1000013C10000C4
:1000E00011C1000005A84CCDB2D44EB93836A902D2
:1000F0000C50B9918688083CA6AAAA2ABE00000026
:10010000803F7C3C3E5E2B3D3F2F5B5D3B2C2A229B
:100110005C0000000A0B02090C0D0E080703040125
:1001200000000000000000000000000000000000CF
:10013000000000000000000000000000000012119C
:10014000100000000000000000000000000000009F
:10015000000000000000000000000000F304353F34
:100160005E836C3FBE147B3F6DC47E3F0FB17F3F0B
:1001700043EC7F3F11FB7F3FC4FE7F3FB1FF7F3FDA
:10018000ECFF7F3FFBFF7F3FFFFF7F3F0000803F93
:100190000000803F0000803F0000803F0000803F63
:1001A000F304353F15EFC33EC2C5473E36BDC83DDB
:1001B00030FB483DB00AC93C900E493C880FC93B12
:1001C000C60F493BD60FC93AD90F493ADB0FC93997
:1001D000DB0F4939DB0FC938DB0F4938BF0FC9378F
:1001E00000002200250028002B002E0031003400E2
:1001F00002010000050108010B010000210024009C
:1002000027002A002D003000330001010000040106
:1002100007010A0105050505070508080808020287
:1002200002020A0A08080404040401010101010190
:1002300001010303030303030303040707070C0C73
:100240000C0C0C0C0C0C020202020606060606063A
:1002500006060B0B0B0B0B0B0B0B010210202008DF
:100260000810204010204080020102010804020111
:100270000102040810204080804020100804020180
:1002800080040201804020100804020108040201D9
:100290000102040810204080010204081020408060
:1002A000AD1311241FBECFEFD1E2DEBFCDBF00E002
:1002B0000CBF12E0A0E0B2E0E6E1F0E400E00BBF2A
:1002C00002C007900D92A63FB107D9F728E0A6EF2C
:1002D000B2E001C01D92AF30B207E1F711E0C1E515
:1002E000D1E000E006C021970109802FFE010E94A5
:1002F000A71EC035D10780E00807A9F70E94111496
:100300000C9409207DCE90E0FC01E65AFD4F24912B
:100310008C5E9D4FFC018491882399F090E0880FBA
:10032000991FFC01E650FE4FA591B491FC01E052EB
:10033000FE4F859194918FB7F894EC91E22BEC935A
:100340008FBF0895AF92BF92CF92DF92EF92FF924C
:100350000F931F93CF93DF936C017B018B01040FED
:10036000151FEB015E01AE18BF08C017D10759F089
:100370006991D601ED91FC910190F081E02DC601CB
:100380001995892B79F7C501DF91CF911F910F91B5
:10039000FF90EF90DF90CF90BF90AF900895FC0159
:1003A000538D448D252F30E0842F90E0821B930BDA
:1003B000541710F0CF96089501970895FC01918D80
:1003C000828D981761F0A28DAE0FBF2FB11D5D9683
:1003D0008C91928D9F5F9F73928F90E008958FEF25
:1003E0009FEF0895FC01918D828D981731F0828DD9
:1003F000E80FF11D858D90E008958FEF9FEF089530
:10040000FC01918D228D892F90E0805C9F4F821B93
:1004100091098F73992708958BE097E0F1DF21E030
:10042000892B09F420E0822F0895FC01A48DA80FE8
:10043000B92FB11DA35ABF4F2C91848D90E0019626
:100440008F739927848FA689B7892C93A089B18946
:100450008C91837080648C93938D848D981306C0E7
:100460000288F389E02D80818F7D80830895EF924B
:10047000FF920F931F93CF93DF93EC0181E0888F5E
:100480009B8D8C8D98131AC0E889F989808185FF2E
:1004900015C09FB7F894EE89FF896083E889F989D0
:1004A00080818370806480839FBF81E090E0DF91D2
:1004B000CF911F910F91FF90EF900895F62E0B8D25
:1004C00010E00F5F1F4F0F731127E02E8C8D8E11E0
:1004D0000BC00FB607FCFACFE889F989808185FF48
:1004E000F5CFCE01A2DFF2CFEB8DEC0FFD2FF11D8A
:1004F000E35AFF4FF0829FB7F8940B8FEA89FB898C
:1005000080818062D0CFCF93DF93EC01888D8823E8
:10051000B1F0AA89BB89E889F9898C9185FD03C06E
:10052000808186FD0CC00FB607FCF7CF8C9185FF4C
:10053000F2CF808185FFEDCFCE0177DFEACFDF916B
:10054000CF91089580E090E0892B21F065DF811143
:100550000E94000080E090E0892B49F080E090E06C
:10056000892B29F00E94000081110E94000080E088
:1005700090E0892B49F080E090E0892B29F00E94DF
:10058000000081110E94000080E090E0892B49F07A
:1005900080E090E0892B29F00E94000081110C94EA
:1005A00000000895282F30E0F901EE5EFE4F94918F
:1005B000F901E65AFD4F44912C5E3D4FF90124911B
:1005C000222309F435C0992311F191509231F8F4A6
:1005D000E92FF0E08827E051FD4F8F4F0C94A71EC4
:1005E00021032503020319031D03070328032E0318
:1005F000320338033C03400346034A0307034E0318
:1006000054035803809180008F7780938000E22FFD
:10061000F0E0EE0FFF1FE052FE4FA591B4918FB7AF
:10062000F894EC91611148C040954E234C938FBFD4
:100630000895809180008F7DE8CF80918000877F32
:10064000E4CF84B58F7784BDE2CF84B58F7DFBCFB7
:100650008091B0008F778093B000D9CF8091B000A7
:100660008F7DF9CF809190008F7780939000CFCFCE
:10067000809190008F7DF9CF80919000877FF5CF9A
:100680008091A0008F778093A000C1CF8091A000BF
:100690008F7DF9CF8091A000877FF5CF80912001D9
:1006A0008F7780932001B3CF809120018F7DF9CF88
:1006B00080912001877FF5CF4E2BB8CF3FB7F894BC
:1006C0008091020390910303A0910403B09105036C
:1006D00026B5A89B05C02F3F19F00196A11DB11D9D
:1006E0003FBFBA2FA92F982F8827BC01CD01620FD9
:1006F000711D811D911D42E0660F771F881F991F94
:100700004A95D1F708958F929F92AF92BF92CF9260
:10071000DF92EF92FF924B015C01D0DF6B017C0115
:10072000CDDF6C197D098E099F09683E73408105F4
:100730009105B0F321E0821A9108A108B10888EE72
:10074000C80E83E0D81EE11CF11C81149104A104A1
:10075000B10431F7FF90EF90DF90CF90BF90AF9052
:100760009F908F9008952FB7F8946091FE0270913A
:10077000FF0280910003909101032FBF08958FB76E
:10078000F8948091F7028FBF089561E0FC018481A5
:1007900009DF8091F60281111092F60208958EBD54
:1007A00000000DB407FEFDCF8EB508958FEFF7CF93
:1007B0000F931F93CF93DF93EC01D5DF8B01F6DF0F
:1007C0008F3F61F0D0DF601B710B6C177D07B8F3B2
:1007D00080E0DF91CF911F910F91089581E0F9CFD3
:1007E0008CBD9DBD0895CF93DF93EC018091F602FF
:1007F000811108C081E08093F6028091A807909152
:10080000A907EEDF60E08C81DF91CF91CBCE8F9294
:100810009F92AF92BF92FF920F931F93CF93DF935C
:10082000EC01F62E49015A018E81882379F08F81DF
:1008300098859C012F5F3F4F38872F8382309240ED
:1008400010F4B4DFF4CFCE01A0DF1E82CE01CBDFE7
:100850008CE291E0ADDF8F2D8064A1DF08E110E034
:10086000D501C401002E04C0B695A795979587952C
:100870000A94D2F794DF08501109083F8FEF180748
:1008800079F785E9FF2021F028E087E8F2128FEF61
:1008900086DF10E08BDF8A8787FF04C01F3F11F0DF
:1008A0001F5FF8CFDF91CF911F910F91FF90BF9005
:1008B000AF909F908F900895AF92BF92CF92DF92AA
:1008C000EF92FF920F931F93CF93DF93EC01690197
:1008D000C801820F931F8130924048F58E81882392
:1008E00079F088819981AA81BB8184179507A60731
:1008F000B70731F48F819885C816D90608F03CC037
:10090000488359836A837B838B85833039F089E000
:10091000440F551F661F771F8A95D1F79A01AB01C7
:1009200061E1CE0174DF882381F083E08D83CE0105
:100930002CDF80E0DF91CF911F910F91FF90EF901E
:10094000DF90CF90BF90AF9008950DDF5B012EDF59
:100950008A878F3F59F407DF6A197B096D3271402E
:10096000B0F38FE08D83CE0110DFE1CF8E3F81F4B5
:1009700018861F8281E08E838F8198858C159D0556
:1009800048F414DF8F819885019698878F83F4CF80
:100990008DE0E8CF6701E00EF11E08DFF6018193DC
:1009A0006F01EE15FF05C9F78F819885080F191F94
:1009B00018870F838985882319F00115124090F05C
:1009C0008E81882379F08F8198859C012F5F3F4F1E
:1009D00038872F838230924010F4E8DEF4CFCE01C6
:1009E000D4DE1E8281E0A6CFEF92FF920F931F9379
:1009F000CF93DF93EC01790182E141155105610547
:100A0000710591F08B85833039F089E0440F551FD3
:100A1000661F771F8A95D1F79A01AB0168E1CE0175
:100A2000F6DE882319F084E08D8328C08EEFB7DED0
:100A300087018EEFF81AF80181918F01B0DE0E1553
:100A40001F05C9F78FEFABDE8FEFA9DEAFDE8A8718
:100A50008F71853079F488E592E0AADE882391F0E1
:100A600020E030E0A9016DE0CE01D1DE882361F005
:100A700084E1DACF81E18D83CE0187DECE0185DE90
:100A800080E008C085E1D0CF91DE8111F1CFCE01A9
:100A90007CDE81E0DF91CF911F910F91FF90EF906D
:100AA0000895CF93DF938091F802882399F1C09144
:100AB0000907D0910A07409100025091010260910C
:100AC00002027091030229E035E0CE018DDF811131
:100AD00004C080E0DF91CF9108954091F9025091D8
:100AE000FA026091FB027091FC024115510561050B
:100AF000710571F029E035E0CE0176DF882349F3F6
:100B00001092F9021092FA021092FB021092FC026B
:100B10001092F80281E0DECF8F929F92AF92BF9247
:100B2000EF92FF920F931F93CF934B015C01C42F61
:100B30008091000290910102A0910202B091030203
:100B400088159905AA05BB0539F1ABDF81110BC0EA
:100B500080E0CF911F910F91FF90EF90BF90AF90E9
:100B60009F908F90089589E0E82E85E0F82E00E0B0
:100B700012E030E020E0B501A401809109079091D6
:100B80000A079ADE882321F38092000290920102E4
:100B9000A0920202B09203024091F8024C2B4093C3
:100BA000F80281E0D6CF8F929F92AF92BF92CF9200
:100BB000DF92EF92FF92CF932AEA37E030930A0751
:100BC00020930907882309F46BC040E060E070E0DF
:100BD000CB01A2DF81110BC080E0CF91FF90EF909D
:100BE000DF90CF90BF90AF909F908F9008958091AD
:100BF000C7068F7789F78091D3069091D406A0918C
:100C0000D506B091D60684369105A105B10520F32D
:100C1000C090CF06D090D006E090D106F090D206DA
:100C2000C114D104E104F104B9F240E0C701B601F6
:100C300073DF882389F28091140590911505811541
:100C4000924051F6A0911905AA2331F2609117053F
:100C5000709118056115710509F4BECF2091160534
:100C6000222309F4B9CFA093C8072093BA0790E0D4
:100C700080E030E0E1E0F0E0C82FAF01082E02C0D4
:100C8000440F551F0A94E2F72417350769F041E035
:100C9000480F01968930910579F74093C3079CCF9F
:100CA000C12CD12C7601C1CF8093C30720911F05A1
:100CB0003091200550E040E02115310541F42091AC
:100CC0002D0530912E0540912F0550913005209330
:100CD000BB073093BC074093BD075093BE07460146
:100CE0005701860E971EA11CB11C8092C9079092D5
:100CF000CA07A092CB07B092CC07E0911A05F091F9
:100D00001B05F093CF07E093CE07B0E00E94AF1E23
:100D1000DC01CB01880D991DAA1DBB1D8093D00756
:100D20009093D107A093D207B093D30725E0EE0F9D
:100D3000FF1F2A95E1F7E150FE4FEF2FFF27E695C1
:100D40008E0F9F1FA11DB11D8093C4079093C507EF
:100D5000A093C607B093C70780901C0590901D050F
:100D6000B12CA12C8114910441F48090290590901C
:100D70002A05A0902B05B0902C05C81AD90AEA0ABA
:100D8000FB0AC80CD91CEA1CFB1C04C0F694E794AF
:100D9000D794C794CA95D2F7C092BF07D092C00724
:100DA000E092C107F092C20785EFC8168FE0D8061F
:100DB000E104F10428F48CE08093CD0781E00DCFAD
:100DC00080E125EFC2162FEFD206E104F104A0F373
:100DD0008091350590913605A0913705B091380581
:100DE0008093D0079093D107A093D207B093D307F5
:100DF00080E2E2CF4F925F926F927F928F929F92AA
:100E0000AF92BF92CF92DF92EF92FF920F931F9318
:100E1000CF93DF93EC01423051056105710590F4E9
:100E200080E0DF91CF911F910F91FF90EF90DF90C5
:100E3000CF90BF90AF909F908F907F906F905F907A
:100E40004F90089589859A85AB85BC850196A11D33
:100E5000B11D84179507A607B70710F3CB88DC8868
:100E6000ED88FE888F89803109F042C0BB27A72F0B
:100E7000962F852F480159012A013B01C80ED91E22
:100E8000EA1EFB1E8091000290910102A0910202D5
:100E9000B0910302C816D906EA06FB0699F58F89B8
:100EA0008031B9F5B301A201552766277727440F92
:100EB000551F475F5A4FFA01918280828091F80254
:100EC00081608093F8028A89823080F08D819E81D2
:100ED000AF81B8858C0D9D1DAE1DBF1D8093F9029D
:100EE0009093FA02A093FB02B093FC0281E099CFA9
:100EF000DB01CA01E7E0B695A79597958795EA9536
:100F0000D1F7B8CF40E0C701B60106DE8111C7CFE7
:100F100087CFB301A2014F77552766277727440F64
:100F2000551F440F551F475F5A4FFA018082918227
:100F3000A282B382C3CF8F929F92AF92BF92CF9281
:100F4000DF92EF92FF920F931F93CF93DF93FC01F9
:100F500081859285A385B4850196A11DB11D841755
:100F60009507A607B70770F480E0DF91CF911F9136
:100F70000F91FF90EF90DF90CF90BF90AF909F9038
:100F80008F90089583889488A588B6888789803152
:100F900089F5BB27A72F962F852FE9016A017B01D1
:100FA0008F01BC01CD01680D791D8A1D9B1D8090AC
:100FB000000290900102A0900202B09003028616F7
:100FC0009706A806B90601F5F8018789803109F569
:100FD000DD24EE24FF24F601EE0FFF1FE75FFA4F3A
:100FE00080819181B0E0A0E088839983AA83BB834C
:100FF00081E0BBCFDB01CA01C7E0B695A795979505
:101000008795CA95D1F7C9CF40E086DD8111DCCF45
:10101000ABCFE894C7F8DD24EE24FF24F601EE0FF1
:10102000FF1FEE0FFF1FE75FFA4F80819181A281C2
:10103000B381BF70D9CF4F925F926F927F92AF9280
:10104000BF92CF92DF92EF92FF920F931F93CF93B5
:10105000DF9300D01F92CDB7DEB78C0149835A834E
:101060006B837C835901C12CD12C7601412C82E009
:10107000582E612C712C49815A816B817C819E0193
:101080002F5F3F4FC80157DF882339F1F80185856D
:10109000A301920104C0220F331F441F551F8A95DC
:1010A000D2F7DA01C901C80ED91EEA1EFB1E49811A
:1010B0005A816B817C818789803111F188EF9FEFA4
:1010C000AFEFBFE0481759076A077B07A0F2F501A9
:1010D000C082D182E282F38281E00F900F900F9064
:1010E0000F90DF91CF911F910F91FF90EF90DF90C4
:1010F000CF90BF90AF907F906F905F904F9008958A
:1011000088EF9FEFA0E0B0E0DDCFCF93DF93FC014D
:101110002581222321F080E0DF91CF910895EC0119
:101120008091CD07803159F582E08583178A108E32
:10113000118E128E8091CE079091CF07B0E0A0E083
:1011400025E0880F991FAA1FBB1F2A95D1F7838B13
:10115000948BA58BB68B86EB97E09C8F8B8F81E071
:101160008C831E821F82188619861A861B861C860F
:101170001D861E861F86188A198A1A8ACDCF80324C
:1011800051F683E085834091D0075091D10760915B
:10119000D2077091D307478B508F618F728F9F0159
:1011A0002D5E3F4F86EB97E046DF8111D4CFB3CF62
:1011B0008F929F92AF92BF92CF92DF92EF92FF9267
:1011C0000F931F93CF93DF93EC018D8181110EC09C
:1011D00080E0DF91CF911F910F91FF90EF90DF9012
:1011E000CF90BF90AF909F908F9008950B891C89EE
:1011F0002D893E89041715072607370748F34A014A
:101200005B01823031F48A869B86AC86BD8681E0A4
:10121000E0CF81149104A104B10449F41E821F821D
:10122000188619861A861B861C861D86F0CF0A85AD
:101230001B852C853D85EB8DFC8D858590E0099681
:10124000B901A8014150510961097109082E04C072
:1012500076956795579547950A94D2F7750164017D
:10126000E1E0CE1AD108E108F10804C0F694E79451
:10127000D794C7948A95D2F7C416D506E606F70622
:1012800020F0012B022B032B09F58F89988DA98D56
:10129000BA8D8E839F83A887B9878E010A5F1F4FFF
:1012A000C114D104E104F10409F4ADCF4E815F8192
:1012B0006885798598018B8D9C8D3DDE91E0C91AFA
:1012C000D108E108F1088111EBCF82CFC41AD50A09
:1012D000E60AF70AE2CF3F924F925F926F927F92B7
:1012E0008F929F92AF92BF92CF92DF92EF92FF9236
:1012F0000F931F93CF93DF93CDB7DEB72C970FB625
:10130000F894DEBF0FBECDBF5C01DC015B968D9013
:101310009C905C9716964D905D906D907C9019977F
:10132000411451046104710409F467C0BFEF4B1A02
:101330005B0A6B0A7B0A312CF40181859285A385B7
:10134000B4859C01AD012F5F3F4F4F4F5F4F298701
:101350003A874B875C87730162011D821E821F8260
:101360001886F40181859285A385B4852D813E81FF
:101370004F815885281739074A075B0708F054C082
:1013800089859A85AB85BC858C159D05AE05BF0505
:1013900050F482E0C82ED12CE12CF12C92E0492EA1
:1013A000512C612C712C9E012F5F3F4FB701A6017C
:1013B000C401C1DD8823C1F189819A81AB81BC81DF
:1013C000892B8A2B8B2B09F1260137019FEF491AB4
:1013D000590A690A790A2D813E814F8158852F5F0C
:1013E0003F4F4F4F5F4F2D833E834F8358873FEFD3
:1013F000C31AD30AE30AF30AB4CFF4014080518040
:10140000628073803324339497CFC414D504E604E8
:10141000F70409F70FEF1FEF2FEF3FE0B701A60129
:10142000C401E8DC811119C080E02C960FB6F89455
:10143000DEBF0FBECDBFDF91CF911F910F91FF9007
:10144000EF90DF90CF90BF90AF909F908F907F9064
:101450006F905F904F903F900895F50146815781BE
:1014600060857185411551056105710531F0970160
:101470008601C401BFDC8823B9F2D5011696CD924E
:10148000DD92ED92FC921997332051F0D701C601FD
:101490000196A11DB11DF40180839183A283B383C2
:1014A000F5018789908DA18DB28D892B8A2B8B2B8D
:1014B00039F4C78AD08EE18EF28E8481806884836D
:1014C00081E0B3CFCF93DF93EC018D81882379F155
:1014D0008C8187FF29C06E857F858889998941E045
:1014E0001BDB882321F1EA8980E2E89FF0011124C7
:1014F000E75FFA4F3097D9F08D81823040F48B89C5
:101500009C89AD89BE89848F958FA68FB78F8F896F
:10151000988D938F828F8F89988DA98DBA8DB58B79
:10152000A48B8C818F778C83DF91CF91BACA80E0B6
:10153000DF91CF910895CF93DF93EC01C3DF882330
:1015400011F01D8281E0DF91CF9108952F923F929B
:101550004F925F926F927F928F929F92AF92BF92C3
:10156000CF92DF92EF92FF920F931F93CF93DF936F
:1015700000D01F92CDB7DEB78C015B011A01DC01F0
:1015800015968C911597813009F0C5C014968C91F1
:1015900081FFC1C082FDACC06101D8011A964D9196
:1015A0005D916D917C911D97C114D10409F423C103
:1015B0005B968D919C915C97FC0174802FEF270DB9
:1015C0002A013B0139E076946794579447943A9501
:1015D000D1F7722E74207A01F1E0FF2271101FC042
:1015E000E114F104E1F416964D915D916D917C91B9
:1015F0001997411551056105710509F095C0579678
:101600008D919D910D90BC91A02D0097A105B105E4
:1016100009F0ABC0C8015FDE882309F47CC080E01C
:1016200092E08E199F0946018C159D0508F44C0126
:10163000D8015B964D915C915C9716968D919D912A
:101640000D90BC91A02D0297A109B109FA01258541
:1016500004C0880F991FAA1FBB1F2A95D2F7468581
:10166000578560897189840F951FA61FB71F9C013C
:10167000AD01270D311D411D511D29013A01811474
:1016800032E0930609F077C0809100029091010248
:10169000A0910202B091030284159505A605B70535
:1016A00059F48FEF9FEFDC018093000290930102C9
:1016B000A0930202B09303029501B301A2018091AD
:1016C000090790910A0790D9882329F19EEFB91A4A
:1016D000C818D908F80182859385A485B585880D39
:1016E000991DA11DB11D82879387A487B58755CF0A
:1016F000F801438954896589768982859385A48513
:10170000B585481759076A077B0709F445CFC80113
:101710004FDD811141CF81E090E0D80113969C9379
:101720008E93129780E006C09E012F5F3F4F03DC2F
:10173000811102C090E075C089819A81AB81BC8122
:10174000F801238D348DF901278948EF5FEF60E0C0
:1017500070E0203121F048EF5FEF6FEF7FE08417FA
:101760009507A607B70708F055CFF801868397833A
:10177000A087B18754CFE114F10489F5D8011A96F6
:101780004D915D916D917C911D9753968D919D9199
:101790000D90BC91A02D481759076A077B07F8F0F8
:1017A00080D9882309F4B7CF4092000250920102F9
:1017B00060920202709203028091F802816080932D
:1017C000F8029701275F3A4FD501C901880D991D8D
:1017D000F9018E179F0751F04D914193FACF41E0E7
:1017E000C301B20199D98111ECCF95CF821B930B24
:1017F000A80EB91E6DCFF80183899489A589B68991
:1018000084179507A607B70738F48481438B548B58
:10181000658B768B80688483F801848183FD18C092
:10182000C1010F900F900F900F90DF91CF911F91FA
:101830000F91FF90EF90DF90CF90BF90AF909F906F
:101840008F907F906F905F904F903F902F90089572
:10185000C80138DE882309F45ECFE2CFCF93DF934F
:101860001F92CDB7DEB7698341E050E0BE016F5FE4
:101870007F4F6CDE0F90DF91CF910895FC01DB016B
:1018800012968D919C9113979383828382E392E0C9
:101890009183808314968C911497848315968C91F0
:1018A0001597858316964D915D916D917C91199751
:1018B00046835783608771871A964D915D916D912C
:1018C0007C911D9742875387648775871E964D913B
:1018D0005D916D917C91519746875787608B718B95
:1018E00052968C915297828B53964D915D916D914A
:1018F0007C915697438B548B658B768B57964D9185
:101900005D916D917C915A97478B508F618F728F4B
:101910005B968D919C91948F838F08950895FC011F
:10192000818D928D009709F0CDCD0895DC015996F7
:10193000ED91FC913097B9F083899489A589B68996
:101940004285538564857585841B950BA60BB70B63
:10195000811520E89207A105B10538F08FEF9FE7C8
:10196000A0E0B0E0089590E080E00895CF93DF9389
:10197000EC01E98DFA8D309749F481E090E09B838A
:101980008A8390E080E0DF91CF91089513821282E4
:10199000898D9A8DDBDDE98DFA8D22813381232BB0
:1019A00061F7F1CFCF93DF931F92CDB7DEB7698395
:1019B000DC01ED91FC910280F381E02D41E050E0EB
:1019C000BE016F5F7F4F19950F90DF91CF91089502
:1019D0002F923F924F925F926F927F928F929F923F
:1019E000AF92BF92CF92DF92EF92FF920F931F932D
:1019F000CF93DF9300D0CDB7DEB7FC018581811195
:101A000018C08FEF9FEF0F900F900F90DF91CF9145
:101A10001F910F91FF90EF90DF90CF90BF90AF900C
:101A20009F908F907F906F905F904F903F902F90FE
:101A30000895848180FFE5CF43895489658976893B
:101A400082859385A485B585312C212C48175907AB
:101A50006A077B0719F022242394312C6F0121019E
:101A6000CE0101963C01DF011696BB83AA83411487
:101A7000510409F4C3C0F601428553856485758518
:101A80004A01F1E09F22D6015B968D919C915C9773
:101A90008A019B01E9E03695279517950795EA9508
:101AA000D1F71596EC91E230E1F5FC01628D738D72
:101AB000848D958D600F711F821F931FA12C22E0D2
:101AC000B22EA818B9084A145B0408F45201F601B2
:101AD000248126FD04C0A114F2E0BF0671F4009138
:101AE00000021091010220910202309103020617B8
:101AF00017072807390709F05CC040E00DD8882394
:101B000009F47FCFC401875F9A4FD3019C012A0D4E
:101B10003B1DFC012E173F0709F46BC041914D930B
:101B2000F9CFDC011496BC90BA94B02281149104D0
:101B300079F4B1100DC0452B462B472B69F5F60102
:101B40008789908DA18DB28D86839783A087B18779
:101B5000D6015B96ED91FC915C9716966D917D9107
:101B60008D919C9119976250710981099109258580
:101B700004C0660F771F881F991F2A95D2F7068524
:101B8000178520893189600F711F821F931F6B0D8C
:101B9000711D811D911D92CFD60116964D915D91BB
:101BA0006D917C9119972A813B81C5D98111D0CF44
:101BB00028CF730185019401AB01BC018091090715
:101BC00090910A070E945C04882309F41ACF6A0CDA
:101BD0007B1CF60182859385A485B5858A0D9B1DA6
:101BE000A11DB11D82879387A487B5874A185B081A
:101BF0003ECF281B390B620E731EEBCF2A9423288D
:101C000009F0FFCE898190E0FECEFC01818D928D9E
:101C1000009709F0DDCE8FEF9FEF08950F931F938C
:101C2000CF93DF93EC01898D9A8D10E000E000974F
:101C300089F0CEDE8C010F3F100761F0898D9A8DFF
:101C4000FC014285538564857585415051096109C0
:101C50007109AEDAC801DF91CF911F910F910895FC
:101C600090E080E00895CF93DF93EC0160E08E81F7
:101C70000E94D20261E08E810E94D20260E08E81D9
:101C80000E94D2028BE891E00197F1F7DF91CF91AA
:101C90000895CF92DF92EF92FF920F931F93CF930D
:101CA000DF936C017C0187E0E80EF11CD0E0C0E01E
:101CB000062F10E0B8010C2E02C0759567950A94A6
:101CC000E2F76170F70181917F010E94D2022196B3
:101CD000C430D10579F7C601DF91CF911F910F91E3
:101CE000FF90EF90DF90CF90BECFCF92DF92EF9238
:101CF000FF920F931F93CF93DF93EC01F62E642F87
:101D00008C810E94D2028D818F3F19F060E00E9489
:101D1000D2020F2D10E08F8584FF24C06E0187E072
:101D2000C80ED11CF12CE12CB8010E2C02C0759507
:101D300067950A94E2F76170F60181916F010E9444
:101D4000D202FFEFEF1AFF0A88E0E816F10461F70C
:101D5000CE01DF91CF911F910F91FF90EF90DF9017
:101D6000CF9081CFB80184E0759567958A95E1F7AA
:101D7000CE018FDF6F2DCE01DF91CF911F910F919B
:101D8000FF90EF90DF90CF9084CF40E0682F83EFFB
:101D900097E0ABCFCF93DF93823029F49091020884
:101DA000986090930208809306081092070880E4D8
:101DB0008093080880E18093090880E580930A08F1
:101DC0008091F7070E9483018091F8078F3F11F0FF
:101DD0000E9483018091F9070E948301C3EFD7E03D
:101DE0009E01235F37408091020884FD0AC084E091
:101DF00090E02196281739073CF48E810E948301D8
:101E0000EFCF88E090E0F5CF8BE39DE00197F1F70D
:101E100060E08091F7070E94D20260E08091F907AC
:101E20000E94D2028091F8078F3F19F060E00E9473
:101E3000D2028091020884FD31C063E083EF97E015
:101E400028DFCBE4D6E4CE010197F1F763E083EF1E
:101E500097E01FDF2197F1F763E083EF97E019DF49
:101E600083E592E00197F1F762E083EF97E011DFFD
:101E700080910208806289DF84E0809303088CE00F
:101E800084DF81E082DF8BE39FE10197F1F782E05D
:101E90008093040886E0DF91CF9177CF806275DF71
:101EA0008BE496E40197F1F78091020880626DDF80
:101EB00083E592E00197F1F780910208806265DF87
:101EC000D7CF41E012DF81E090E00895CF92DF921A
:101ED000EF92FF921F93CF93DF93EC0180E2689F14
:101EE000F0011124E75FFA4F9385917161F0842F1F
:101EF000827449F080E0DF91CF911F91FF90EF90C5
:101F0000DF90CF900895142F6A8B809100029091FA
:101F10000102A0910202B09103028E879F87A88BD5
:101F2000B98BC488D588F12CE12C7601DD24CC2432
:101F3000CF8AD88EE98EFA8E828D938DB0E0A0E0A4
:101F4000AC01BD014C295D296E297F294F8B588F2B
:101F5000698F7A8F83858871B1F4848D958DA68D74
:101F6000B78D8B8B9C8BAD8BBE8B81E08D831F706F
:101F70001C831E821F82188619861A861B861C8661
:101F80001D8681E0B8CF803109F0B4CF9E012D5E6F
:101F90003F4F8B8D9C8D4FD8882309F4ABCF84E0C5
:101FA000E5CFFB0101900020E9F73197AF01461B17
:101FB000570BDC01ED91FC910280F381E02D199427
:101FC0008F929F92AF92BF92EF92FF920F931F93C7
:101FD000CF93DF93CDB7DEB7A1970FB6F894DEBFEE
:101FE0000FBECDBF7C01FA01CB0119A2223008F44B
:101FF0002AE08E010F5D1F4F822E912CB12CA12C57
:10200000BF01A50194010E94851EF901CA016A3031
:1020100004F5605DD8016E938D01232B242B252BB5
:1020200079F790E080E0109719F0BD01C701B9DFA2
:10203000A1960FB6F894DEBF0FBECDBFDF91CF9152
:102040001F910F91FF90EF90BF90AF909F908F9056
:102050000895695CDFCFCF93DF93BC018BE097E0FD
:10206000A0DFEC0166E472E08BE097E09ADF8C0F72
:102070009D1FDF91CF9108952F923F924F925F92D3
:102080006F927F928F929F92AF92BF92CF92DF9288
:10209000EF92FF921F93CF93DF93EC016A017B01D4
:1020A000722EAB019601CB01B6010E94361E69E487
:1020B00072E0811126C046015701E894B7F82FEF6E
:1020C0003FEF4FE75FE7C501B4010E94361E811163
:1020D0000CC02FEF3FEF4FE75FE7C501B4010E944F
:1020E000071C6DE472E0181664F02FEF3FEF4FE726
:1020F0005FE4C701B6010E948D1D1816ACF461E5BE
:1021000072E0CE01DF91CF911F91FF90EF90DF90B1
:10211000CF90BF90AF909F908F907F906F905F9087
:102120004F903F902F903DCF2FEF3FEF4FE75FEC69
:10213000C701B6010E94071C87FDE1CF20E030E017
:10214000A901C701B6010E94071C312C212C87FF71
:102150000DC0E881F9810190F081E02D6DE2CE01A2
:1021600019951C01F7FAF094F7F8F09410E060E08C
:1021700070E080E09FE3711641F020E030E040E243
:1021800051E40E940E1C1F5FF6CFA70196010E942A
:10219000A31B2B013C010E94761C4B015C012AE031
:1021A000BC01A401CE010CDF7C01E20CF31C112365
:1021B000D9F1C501B4010E94A21C9B01AC01C3016D
:1021C000B2010E94A21B4B015C01E881F9810190E0
:1021D000F081E02D6EE2CE011995E80EF91E115046
:1021E00018F120E030E040E251E4C501B4010E9462
:1021F000911D2B013C010E94761C4B01B12CA12C9E
:102200002AE0B501A401CE01DBDEE80EF91EC5010E
:10221000B4010E94A21C9B01AC01C301B2010E9447
:10222000A21B4B015C01DBCFC701DF91CF911F9156
:10223000FF90EF90DF90CF90BF90AF909F908F90E6
:102240007F906F905F904F903F902F9008953F92B6
:102250004F925F926F927F928F929F92AF92BF92B6
:10226000CF92DF92EF92FF920F931F93CF93DF9362
:1022700000D000D000D01F921F92CDB7DEB77C01F6
:10228000FE013196CE010C966F0130E23193E817D2
:10229000F907E1F7DA0130E087E09D91B92E992343
:1022A00009F43CC09E32F1F48A30C9F480E02B96E8
:1022B0000FB6F894DEBF0FBECDBFDF91CF911F9157
:1022C0000F91FF90EF90DF90CF90BF90AF909F90D5
:1022D0008F907F906F905F904F903F90089538E07F
:1022E0008AE0DBCFE2E0F1E04491442321F0319633
:1022F0009413FACFDBCF8317C8F24FED490F4E3559
:10230000A8F64FE9490F4A3118F440EEB42EB90E41
:10231000F601E30FF11DB0823F5FBFCF89818032AC
:1023200029F2322E8B01DB015B968D919C915C979B
:10233000F701948F838F16961D921D921D921C9209
:102340001997FB011286138614861586F80182857B
:102350009385A485B58543895489658976898417D1
:102360009507A607B70708F04CC025E0B695A795D6
:10237000979587952A95D1F7F82FFF70AF2ED80142
:1023800015968C91823008F491CFC80121DB97FD1E
:102390008DCFF80182859385A485B5854F96A11DC3
:1023A000B11D82879387A487B587F0E2AF9EB00105
:1023B0001124675F7A4F6115710509F477CFDB014E
:1023C0008C91882341F0853E09F061C0BB2029F043
:1023D000BB24B394BBCFB1100EC0F701A28A809189
:1023E000000290910102A0910202B091030286873F
:1023F0009787A08BB18BDB018C918111E9CFBB2436
:10240000B394832D8271823109F050CFBB2009F43F
:102410004BC0F701668577858089918941E00E94EC
:102420008C05882309F442CFD70152968C91B0E2F3
:102430008B9FC0011124875F9A4F009709F436CF14
:10244000FC013A9626E1DF011D922A95E9F72BE07F
:10245000F601DC0101900D922A95E1F721E238E2C4
:10246000FC01318B208B40E058E057874687338B47
:10247000228B318F208F578B468B0E9451058823EA
:1024800009F414CF432DD70152966C910AC04BE04A
:1024900050E0C6010E94ED1F892B09F057CF432D54
:1024A0006A2DC70113DD03CFF8018581823009F45D
:1024B000FDCEC8010E946B09882309F4F7CED8012C
:1024C0005B96ED91FC915C9716968D909D90AD90EA
:1024D000BC901997B2E08B1A9108A108B1088585C4
:1024E00004C0880C991CAA1CBB1C8A95D2F786854F
:1024F0009785A089B189880E991EAA1EBB1E84816A
:1025000024013501480E511C611C711C8414950472
:10251000A604B70401F1E1E04E1A51086108710800
:102520000E945105882309F4C1CEE9E0F5E011923B
:1025300089E097E08E179F07D1F7409200025092F2
:10254000010260920202709203028091F80281609F
:102550008093F802DBCFD8015B96ED91FC91258545
:1025600080E092E0A0E0B0E004C0880F991FAA1FAD
:10257000BB1F2A95D2F7F80143895489658976896A
:10258000840F951FA61FB71F838B948BA58BB68BCB
:10259000D70152961C9289E095E052CFEF92FF92BC
:1025A0000F931F93CF93DF93EC017B018A011B8272
:1025B0001A8288EE93E0A0E0B0E08C839D83AE8326
:1025C000BF838EE092E0998388838DE190E00E9442
:1025D000C81E9A8F898F009779F02DE1F701DC01F1
:1025E00001900D922A95E1F74CE050E0B801CE0140
:1025F0000C960E94FA1F188EDF91CF911F910F91B8
:10260000FF90EF9008951F920F920FB60F92112432
:102610000BB60F922F933F934F935F936F937F93DC
:102620008F939F93AF93BF93EF93FF938BE097E0CC
:102630000E941502FF91EF91BF91AF919F918F91F1
:102640007F916F915F914F913F912F910F900BBEB2
:102650000F900FBE0F901F9018951F920F920FB6FC
:102660000F9211240BB60F922F938F939F93EF939A
:10267000FF93E0911B07F0911C078081E0912107F7
:10268000F091220782FD1DC09081809124078F5F09
:102690008F7320912507821741F0E0912407F0E025
:1026A000E55FF84F958F80932407FF91EF919F91FD
:1026B0008F912F910F900BBE0F900FBE0F901F9018
:1026C00018958081F2CF1F920F920FB60F921124AE
:1026D0002F933F938F939F93AF93BF938091FE026D
:1026E0009091FF02A0910003B09101033091FD028F
:1026F00023E0230F2D3758F50196A11DB11D20931E
:10270000FD028093FE029093FF02A0930003B0931A
:1027100001038091020390910303A0910403B091FF
:1027200005030196A11DB11D80930203909303033D
:10273000A0930403B0930503BF91AF919F918F9134
:102740003F912F910F900FBE0F901F90189526E884
:10275000230F0296A11DB11DD2CFEBE0F7E013824B
:10276000128288EE93E0A0E0B0E084839583A68394
:10277000B78380E292E09183808385EC90E0958737
:10278000848784EC90E09787868780EC90E0918B3B
:10279000808B81EC90E0938B828B82EC90E0958B28
:1027A000848B86EC90E0978B868B118E128E138E25
:1027B000148EE8EAF7E080E580831182EAEAF7E028
:1027C000158216821186138682E090E0A0E0B0E0C8
:1027D00084879587A687B78713A215A614A682E3D8
:1027E00092E093A782A717A6E3EFF7E01382128285
:1027F0008EE392E09183808388E084838FEF8583EA
:1028000089E0868385E0878384E0808783E0818711
:1028100082E082871386148615861686178681E0E5
:10282000B9CACF93DF93CDB7DEB7C95BD1090FB675
:10283000F894DEBF0FBECDBF789484B5826084BDAE
:1028400084B5816084BD85B5826085BD85B58160B4
:1028500085BD80916E00816080936E001092810032
:1028600080918100826080938100809181008160ED
:1028700080938100809180008160809380008091AE
:10288000B10084608093B1008091B000816080933A
:10289000B0008091910082608093910080919100BE
:1028A000816080939100809190008160809390007E
:1028B0008091A10082608093A1008091A10081603D
:1028C0008093A1008091A00081608093A0008091FE
:1028D0002101826080932101809121018160809398
:1028E00021018091200181608093200180917A00F4
:1028F000846080937A0080917A00826080937A006D
:1029000080917A00816080937A0080917A0080685B
:1029100080937A001092C100E0911B07F0911C0790
:1029200082E08083E0911707F09118071082E09110
:102930001907F0911A078FEC808310922307E0911A
:102940001F07F091200786E08083E0911D07F0913A
:102950001E07808180618083E0911D07F0911E0732
:10296000808188608083E0911D07F0911E0780813F
:1029700080688083E0911D07F0911E0780818F7D24
:10298000808382E007DA65E572E083EF97E009DB98
:1029900087E094E0E7E0F3E0119211921192119236
:1029A0008E179F07C9F723E730E02C0F3D1F275EE6
:1029B0003F4FC854DF4F39832883C85BD040E09134
:1029C0000608E23008F045C1E150F0E0ED50F84F64
:1029D00084898068DAD96BE572E083EF97E0E1DA09
:1029E000E0910608E43008F036C1E150F0E0ED5027
:1029F000F84F84898068C9D949E054E0CA55DF4F4F
:102A000059834883C65AD04069E0E62E65E0F62E29
:102A10008A0170E4D72E80917B00877F80937B00B2
:102A2000D0927C0080917A00806480937A008091BB
:102A30007A0086FDFCCF8091780060917900762F36
:102A4000682F072E000C880B990B7ED74B015C0179
:102A500022E0BC01A4018BE097E00EDB66E472E0AB
:102A60008BE097E09EDAD8018D929D92AD92BD9257
:102A70008D0161E070E080E090E00E948303E01649
:102A8000F10649F6E9E0F4E0C257DF4FF983E88345
:102A9000CE58D040C257DF4FA881B981CE58D04020
:102AA0006D917D918D919D91C257DF4FB983A88320
:102AB000CE58D0407D01B4E0EB1AF10820E030E0C0
:102AC00040EA50E40E94911D20E030E040E85AE3E3
:102AD0000E94911DF7016083718382839383C257A3
:102AE000DF4F28813981CE58D0402017310791F629
:102AF000809107049091080405970CF4E4C1E796CF
:102B00001FAE1EAEE79788EE93E0A0E0B0E0EB9634
:102B10008CAF9DAFAEAFBFAFEB978EE092E0E59686
:102B20009FAF8EAFE597C457DF4F19821882CC58FC
:102B3000D040C158DF4F1882CF57D04066E672E0D0
:102B40008BE097E02EDA8091D907882321F084ED7D
:102B500097E00E949B0A1092B5071092B30710925B
:102B6000B0071092AF078AE08093AE070E94B303CC
:102B70008B018091AE070E94830161E08091AE07D6
:102B80000E94D202FFB6F89480910603811124C0FE
:102B9000E9E4F2E08491EFE8F2E09491E82FF0E0CC
:102BA000EE0FFF1FE650FE4FA591B491EC91E92383
:102BB00021F461E085E30E94D20285E30E94830153
:102BC0008CB580618CBD8CB580648CBD84E30E9423
:102BD000830183E30E948301809106038F5F8093CA
:102BE0000603FFBE82E58093A8071092A907809193
:102BF000A8079091A9070E94F0033AE0F32E8FEF07
:102C00000E94CF03FA94F110FACF8AEA97E00E946B
:102C1000F30320E030E0A90160E08AEA97E00E9437
:102C20000704F82E8093B40791E08917B1F00E9451
:102C3000B303601B710B613D774058F381E08093D3
:102C4000AF078AEA97E00E94C5038FE792E003DAB4
:102C50007EC0E1E0BACEE3E0C9CE2AEA31E040E04E
:102C600050E068E08AEA97E00E94070482FF2AC0E9
:102C7000F092B5078091B507C12CD12CE12C90E4DE
:102C8000F92E823019F0C12CD12C760120E030E0F1
:102C9000A90167E38AEA97E00E940704A701960169
:102CA00069E28AEA97E00E9407048093B4078823C8
:102CB000D1F00E94B303601B710B613D774030F38C
:102CC00088E0BDCF24E0F22E0E94D6038093B407A3
:102CD000FA94F110F9CF8A3A11F082E0B0CF82E095
:102CE0008093B507C7CF8091B5078230D1F420E03B
:102CF00030E0A9016AE38AEA97E00E94070488238A
:102D000011F086E09CCF0E94D603807C803C19F4B1
:102D100083E08093B5070E94D6030E94D6030E94E9
:102D2000D6038AEA97E00E94C50380E58093A8074E
:102D30001092A90781E00E94D305882309F413C1EA
:102D400084ED97E00E948508882309F47ECF85E909
:102D500092E081D91C821B8202E312E01A8309836C
:102D60001E82CE0101960E948508BE016F5F7F4FD3
:102D7000CE01CB960E943E0C19A218A21F8F0E8F77
:102D80001BA221968FAD21978111F4C06C961FAEC6
:102D90001EAE6C9728EE33E040E050E0A0962CAFDA
:102DA0003DAF4EAF5FAFA0978EE092E06A969FAFC7
:102DB0008EAF6A97E3961FAE1EAEE397A5961FAE41
:102DC000A5976C968EAD9FAD6C97E7969FAF8EAF33
:102DD000E797A0968CAD9DADAEADBFADA097EB963D
:102DE0008CAF9DAFAEAFBFAFEB97A4968CAD9DAD52
:102DF000AEADBFADA497EF968CAF9DAFAEAFBFAFFA
:102E0000EF97A8E5B0E0AC0FBD1F1C96E3E7F0E03C
:102E1000EC0FFD1F3C968D918193C854DF4F488184
:102E20005981C85BD040E417F507A9F7E396EEADEA
:102E3000FFADE397C457DF4FF983E883CC58D04008
:102E4000309709F4C0C08581882309F4BCC06AEAC0
:102E500072E08BE097E0A5D809E014E0D8014D912D
:102E60005D916D917D918D0122E0CE018D589F4F36
:102E700003D966E472E0CE018D589F4F92D8C257B5
:102E8000DF4FE881F981CE58D040E017F10731F7E4
:102E9000C457DF4F88819981CC58D040009781F08A
:102EA0000E949B0AC457DF4F88819981CC58D0403B
:102EB0000E94641FC457DF4F19821882CC58D0403B
:102EC00089EC92E0C8D809E0E02E05E0F02E89E018
:102ED000C82E84E0D82E10E000E0B80190E080E039
:102EE00031D520E030E04CE752E498D42BED3FE0C0
:102EF00049EC50E416D68FD42FE135E84BEE5EE373
:102F000010D69B01AC0161E77DE38AE09FE31AD410
:102F10004B015C01AC019B01D6016D917D918D91BE
:102F20009C91FFD5F60161937193819391936F0109
:102F3000A5019401D7019E918E917E916E917D01A4
:102F4000F0D5F70160837183828393830F5F1F4FF6
:102F50000032110509F0C1CFE9E0F4E090E080E033
:102F600050E040E050C080E00E94D305882309F47F
:102F70006CCEE6CE27E147EE52E0BE01655C7F4FA6
:102F8000CE014E9664D9882309F400CFCE01CB96AA
:102F90000E949B0A49A95AA96BA97CA9CE014E9609
:102FA0000E94D808BE01625E7F4FCE0101960E944A
:102FB0003E0C47EE52E0BE016F5F7F4FCE01885A54
:102FC0009F4FECDAFECE89ED92E07CCF481759078F
:102FD000C8F4DC01AA0FBB1FAA0FBB1FA75FBB4F22
:102FE0000481158126813781CD90DD90ED90FC9094
:102FF0001397C482D582E682F7820D931D932D9399
:103000003C931397349620E230E08217930728F020
:10301000821B930B36952795F8CF820F931F4F5F36
:103020005F4F4F33510591F6C256DF4F1882198218
:103030001A821B82CE59D040C655DF4F1882CA5A19
:10304000D040C555DF4F1882CB5AD040F0E8C45568
:10305000DF4FF883CC5AD0402FEBC355DF4F288386
:10306000CD5AD04041E050E0CA56DF4F59834883E3
:10307000C659D040CC56DF4F19821882C459D0406F
:10308000CA56DF4F88819981C659D040880F991F51
:10309000CC54DF4F99838883C45BD040CA56DF4F3E
:1030A000A881B981C659D04053E0AA0FBB1F5A95D9
:1030B000E1F7C255DF4FB983A883CE5AD040CA5634
:1030C000DF4FE881F981C659D040EE0FFF1FEE0FA8
:1030D000FF1FC055DF4FF983E883C05BD04027E076
:1030E00033E0CE55DF4F39832883C25AD04049E0C0
:1030F00054E0CC55DF4F59834883C45AD040412C0B
:10310000512C3201312C212C10E80FE3C856DF4F2F
:1031100019821882C859D040C856DF4F88819981DA
:10312000C859D040CA56DF4FA881B981C659D0408E
:103130008A179B0709F4B5C1CE55DF4FE881F981A5
:10314000C25AD040CE56DF4FF983E883C259D040EF
:10315000CC55DF4F28813981C45AD040C057DF4F4A
:1031600039832883C059D040C855DF4F998388835D
:10317000C85AD040C855DF4F48815981C85AD040FD
:103180004034510508F008C1C057DF4F888199814C
:10319000C059D040C055DF4FA881B981C05BD04035
:1031A0008A0F9B1FCE54DF4F99838883C25BD04028
:1031B000FC0180809180A280B380CE56DF4F2881B1
:1031C0003981C259D0402A0F3B1FCA54DF4F39837F
:1031D0002883C65BD040D9018D919D910D90BC9103
:1031E000A02DC656DF4F88839983AA83BB83CA5913
:1031F000D040232D322D412F502FC501B40191D441
:103200006B017C01A3019201C656DF4F6881798171
:103210008A819B81CA59D04084D49B01AC01C701EB
:10322000B60190D26B017C01C656DF4F28813981EF
:103230004A815B81CA59D040632D722D812F902F16
:1032400070D4C656DF4F688379838A839B83CA59BB
:10325000D040A3019201C501B40163D49B01AC012C
:10326000C656DF4F688179818A819B81CA59D040D7
:103270006AD24B015C01A7019601C057DF4FE8817C
:10328000F981C059D04060817181828193815AD285
:10329000CE54DF4FA881B981C25BD0406D937D933E
:1032A0008D939C931397A5019401CE56DF4FE8812F
:1032B000F981C259D040608171818281938142D26B
:1032C000CA54DF4FA881B981C65BD0406D937D930E
:1032D0008D939C931397A7019601C057DF4FE88108
:1032E000F981C059D04060817181828193812BD254
:1032F000C057DF4FA881B981C059D0406D937D93ED
:103300008D939C931397A5019401CE56DF4FE881CE
:10331000F981C259D040608171818281938113D239
:10332000CE56DF4FA881B981C259D0406D937D93AD
:103330008D939C931397C855DF4FE881F981C85A44
:10334000D040CC54DF4F28813981C45BD040E20F9C
:10335000F31FC855DF4FF983E883C85AD040C057E0
:10336000DF4F48815981C059D040C255DF4F888115
:103370009981CE5AD040480F591FC057DF4F59830B
:103380004883C059D040A80FB91FCE56DF4FB9832C
:10339000A883C259D040EECE232D322D412F502F7D
:1033A000C655DF4F6881CA5AD040C555DF4F788176
:1033B000CB5AD040C455DF4F8881CC5AD040C3553A
:1033C000DF4F9881CD5AD040ACD36B017C01A30173
:1033D0009201C256DF4F688179818A819B81CE59E3
:1033E000D0409FD39B01AC01C701B601ABD16B01AB
:1033F0007C01A3019201C655DF4F6881CA5AD040B3
:10340000C555DF4F7881CB5AD040C455DF4F8881F6
:10341000CC5AD040C355DF4F9881CD5AD04081D38C
:103420004B015C01232D322D412F502FC256DF4F0F
:10343000688179818A819B81CE59D04072D3A50160
:10344000940181D12B013C01C856DF4FA881B9817D
:10345000C859D0401196C856DF4FB983A883C859C0
:10346000D040CC55DF4FE881F981C45AD040349622
:10347000CC55DF4FF983E883C45AD040CE55DF4F97
:1034800028813981C25AD0402C5F3F4FCE55DF4F43
:1034900039832883C25AD0403C2C2D2C1E2D0F2D51
:1034A0003BCECC56DF4FE881F981C459D040E45679
:1034B000FE4F85919591A591B491CC56DF4FE8814F
:1034C000F981C459D040E85AFE4F45915591659114
:1034D0007491C655DF4F4883CA5AD040C555DF4F57
:1034E0005883CB5AD040C455DF4F6883CC5AD04064
:1034F000C355DF4F7883CD5AD0409C01AD01505861
:10350000C256DF4F288339834A835B83CE59D0402C
:10351000CC56DF4F48815981C459D0404C5F5F4F32
:10352000CC56DF4F59834883C459D040CC54DF4F29
:1035300088819981C45BD040CA56DF4F99838883C4
:10354000C659D0404831510509F09ACD37E0A32E35
:1035500033E0B32E09E014E0D8016D917D918D9197
:103560009D918D01F501C190D190E190F1905F01A5
:103570009B01AC01D6D22B013C01A7019601C701EA
:10358000B601CFD29B01AC01C301B201DCD030D374
:10359000F80134976083718382839383C257DF4F2E
:1035A00028813981CE58D04020173107A9F699E0FB
:1035B000E92E94E0F92E10E000E0512C412C312C42
:1035C000212CCC24C394D12CD7016D917D918D9168
:1035D0009D917D016C9011967C9011971296AC9004
:1035E00012971396BC904601BFEF8B1A9B0A93016A
:1035F000A5010DD187FF18C0F701248135814681CF
:103600005781B301C50189D2181674F49301A5013D
:10361000652D742D832D922DFAD087FF05C086016C
:10362000562C472C3A2C2B2C6401F1E28F16910476
:1036300059F60150104C000F111F000F111F980177
:10364000275F3B4F7901F801E35FFB4F6081718198
:10365000828193819B01AC0176D09B01AC01D701A3
:103660006D917D918D919C916DD00F5E1B4FF801F6
:10367000208131814281538166D06B017C0120E041
:1036800030E0A9014AD2181624F0F7FAF094F7F8BE
:10369000F094812C912C5401CA55DF4FA881B98137
:1036A000C65AD0406D917D918D919D91CA55DF4F45
:1036B000B983A883C65AD0409B01AC0132D29B018A
:1036C000AC01C501B4013FD04B015C01C257DF4FD3
:1036D000E881F981CE58D040CA55DF4F2881398121
:1036E000C65AD040E217F307B9F6A7019601C70101
:1036F000B60117D29B01AC01C501B40123D078D229
:10370000A70196018BD0AB01BC0122E083EF97E0CB
:103710000E943C1062EF72E083EF97E00E94D10FAD
:1037200068EE73E080E090E00E94830380910704DC
:1037300090910804019690930804809307040E94D6
:10374000A2023DC95058BB27AA270ED09BC164D105
:1037500030F069D120F031F49F3F11F41EF459C1CB
:103760000EF4E095E7FB4FC1E92FAED180F3BA1715
:10377000620773078407950718F071F49EF5C6C1B8
:103780000EF4E0950B2EBA2FA02D0B01B90190017C
:103790000C01CA01A0011124FF27591B99F0593FC0
:1037A00050F4503E68F11A16F040A22F232F342F08
:1037B0004427585FF3CF469537952795A795F04056
:1037C0005395C9F77EF41F16BA0B620B730B840B6B
:1037D000BAF09150A1F0FF0FBB1F661F771F881F23
:1037E000C2F70EC0BA0F621F731F841F48F487957B
:1037F00077956795B795F7959E3F08F0B3CF93956A
:10380000880F08F09927EE0F979587950895D7D0E0
:1038100008F481E008950FD1E39545C10CD032C181
:1038200002D140F0F9D030F021F45F3F19F0EBC045
:1038300051116DC1EEC048D198F39923C9F35523B6
:10384000B1F3951B550BBB27AA2762177307840793
:1038500038F09F5F5F4F220F331F441FAA1FA9F349
:1038600033D00E2E3AF0E0E830D091505040E6953B
:10387000001CCAF729D0FE2F27D0660F771F881F9C
:10388000BB1F261737074807AB07B0E809F0BB0B8B
:10389000802DBF01FF2793585F4F2AF09E3F5105AF
:1038A00068F0B1C034C15F3FECF3983EDCF386951D
:1038B00077956795B795F7959F5FC9F7880F911D25
:1038C0009695879597F90895E1E0660F771F881F11
:1038D000BB1F621773078407BA0720F0621B730BC4
:1038E000840BBA0BEE1F88F7E0950895F5D088F0A9
:1038F0009F5790F0B92F9927B751A0F0D1F0660FDC
:10390000771F881F991F1AF0BA95C9F712C0B130F6
:1039100081F0FCD0B1E00895F9C0672F782F882797
:10392000B85F39F0B93FCCF3869577956795B39535
:10393000D9F73EF490958095709561957F4F8F4FA4
:103940009F4F0895E89409C097FB3EF490958095A9
:10395000709561957F4F8F4F9F4F9923A9F0F92F55
:1039600096E9BB279395F695879577956795B795D3
:10397000F111F8CFFAF4BB0F11F460FF1BC06F5FB9
:103980007F4F8F4F9F4F16C0882311F096E911C0CB
:10399000772321F09EE8872F762F05C0662371F0EC
:1039A00096E8862F70E060E02AF09A95660F771F00
:1039B000881FDAF7880F9695879597F90895990FDC
:1039C0000008550FAA0BE0E8FEEF16161706E807E9
:1039D000F907C0F012161306E407F50798F0621B0A
:1039E000730B840B950B39F40A2661F0232B242BDF
:1039F000252B21F408950A2609F4A140A6958FEFFE
:103A0000811D811D089597F99F6780E870E060E04F
:103A100008959FEF80EC089500240A941616170667
:103A200018060906089500240A94121613061406AF
:103A300005060895EECF50D0E8F3E894E0E0BB2708
:103A40009F57F0F02AED3FE049EC06C0EE0FBB0FA8
:103A5000661F771F881F28F0B23A62077307840732
:103A600028F0B25A620B730B840BE3959A9572F7A8
:103A7000803830F49A95BB0F661F771F881FD2F7E6
:103A80009048FAC0092E0394000C11F4882352F0D8
:103A9000BB0F40F4BF2B11F460FF04C06F5F7F4F7A
:103AA0008F4F9F4F0895EF93E0FF06C0A2EA2AEDE3
:103AB0003FE049EC5FEB58DEE5DF0F90039401FC3B
:103AC0009058E4EEF0E0EBC057FD9058440F551FBE
:103AD00059F05F3F71F04795880F97FB991F61F090
:103AE0009F3F79F087950895121613061406551F07
:103AF000F2CF4695F1DF08C0161617061806991F73
:103B0000F1CF86957105610508940895E894BB2767
:103B100066277727CB0197F9089551DF08F48FEFD7
:103B200008950BD0AFCF78DF28F07DDF18F0952314
:103B300009F069CF6ECF1124EACFC6DFA0F3959FBD
:103B4000D1F3950F50E0551F629FF001729FBB2784
:103B5000F00DB11D639FAA27F00DB11DAA1F649F30
:103B60006627B00DA11D661F829F2227B00DA11DE3
:103B7000621F739FB00DA11D621F839FA00D611D69
:103B8000221F749F3327A00D611D231F849F600D8A
:103B9000211D822F762F6A2F11249F5750408AF0C3
:103BA000E1F088234AF0EE0FFF1FBB1F661F771F4F
:103BB000881F91505040A9F79E3F510570F023CFC8
:103BC000A6CF5F3FECF3983EDCF38695779567953B
:103BD000B795F795E7959F5FC1F7FE2B880F911D6D
:103BE0009695879597F9089511F40EF412CF42C077
:103BF00073DFD0F39923D9F3CEF39F57550B87FF8B
:103C000047D00024A0E640EA900180585695979549
:103C100028F4805C660F771F881F20F0261737076F
:103C2000480730F4621B730B840B202931294A2B7F
:103C3000A69517940794202531254A2758F7660F33
:103C4000771F881F20F026173707480730F4620BCC
:103C5000730B840B200D311D411DA09581F7B90117
:103C6000842F9158880F969587950895A8DE880B24
:103C7000990B08959F3F31F0915020F487957795E7
:103C80006795B795880F911D9695879597F9089533
:103C900091505040660F771F881FD2F708959F9369
:103CA0008F937F936F93FF93EF939B01AC0139DF69
:103CB000EF91FF9105D02F913F914F915F9131CFBF
:103CC000DF93CF931F930F93FF92EF92DF927B01CD
:103CD0008C01689405C0DA2EEF012FDFFE01E89415
:103CE000A5912591359145915591AEF3EF013CDDBC
:103CF000FE019701A801DA9479F7DF90EF90FF9029
:103D00000F911F91CF91DF910895A1E21A2EAA1B66
:103D1000BB1BFD010DC0AA1FBB1FEE1FFF1FA2177B
:103D2000B307E407F50720F0A21BB30BE40BF50B78
:103D3000661F771F881F991F1A9469F76095709501
:103D4000809590959B01AC01BD01CF010895EE0FC8
:103D5000FF1F881F8BBF0790F691E02D199409D0A3
:103D6000A59F900DB49F900DA49F800D911D1124CF
:103D70000895A29FB001B39FC001A39F700D811D44
:103D80001124911DB29F700D811D1124911D089564
:103D90000F931F93CF93DF938230910510F482E04D
:103DA00090E0E0910D08F0910E0830E020E0B0E0E6
:103DB000A0E0309799F42115310509F44AC0281B79
:103DC000390B24303105D8F58A819B816115710545
:103DD00089F1FB0193838283FE0111C040815181EF
:103DE0000281138148175907E0F04817590799F4E1
:103DF000109761F012960C93129713961C933296BB
:103E0000CF01DF91CF911F910F91089500930D087D
:103E100010930E08F4CF2115310551F042175307C6
:103E200038F0A901DB019A01BD01DF01F801C1CF22
:103E3000EF01F9CF90930E0880930D08CDCFFE01CE
:103E4000E20FF31F81939193225031093983288324
:103E5000D7CF20910B0830910C08232B41F42091EF
:103E600006023091070230930C0820930B08209132
:103E70000402309105022115310541F42DB73EB7FA
:103E80004091080250910902241B350BE0910B0868
:103E9000F0910C08E217F307A0F42E1B3F0B281734
:103EA000390778F0AC014E5F5F4F2417350748F0B3
:103EB0004E0F5F1F50930C0840930B088193919312
:103EC0009FCFF0E0E0E09CCFCF93DF930097E9F045
:103ED000FC01329713821282A0910D08B0910E0856
:103EE000ED0130E020E01097A1F420813181820FB4
:103EF000931F20910B0830910C082817390709F0FF
:103F000061C0F0930C08E0930B08DF91CF91089506
:103F1000EA01CE17DF07E8F54A815B819E01411572
:103F20005105B1F7E901FB83EA8349915991C40F27
:103F3000D51FEC17FD0761F4808191810296840FF3
:103F4000951FE90199838883828193819B838A836A
:103F5000F0E0E0E012968D919C9113970097B9F5EF
:103F60002D913C911197CD010296820F931F2091C4
:103F70000B0830910C082817390739F6309751F59E
:103F800010920E0810920D08B0930C08A0930B0825
:103F9000BCCFD383C28340815181840F951FC81742
:103FA000D90761F44E5F5F4F88819981480F591F8F
:103FB000518340838A819B819383828321153105BC
:103FC00009F0B0CFF0930E08E0930D089ECFFD01ED
:103FD000DC01C0CF13821282D7CFFB01DC0104C009
:103FE0008D910190801921F441505040C8F7881BF1
:103FF000990B0895FB01DC014150504048F00190BD
:104000000D920020C9F701C01D9241505040E0F7C9
:064010000895F894FFCFB3
:10401600FFFFFFFF00000F08800000000000D20C29
:10402600B60C300E8F0C960C050E0E0E000000001E
:104036003702A201CF0183020002DE01F201000075
:1040460000002E0CA201300E8E0C00000000610F45
:10405600A201300E8E0C0D0A006E616E00696E664E
:10406600006F7666005448443A2000202020202025
:10407600202020202000496E696369616C697A619D
:104086006E646F20534420636172642E2E2E0049A5
:104096006E696369616C697A6163616F2066616CE0
:1040A600686F752100496E696369616C697A61633D
:1040B600616F2066656974612E0046617A656E647B
:1040C6006F20726567697374726F206E6F206172FC
:1040D600717569766F2E2E2E00526567697374723C
:1040E6006F20466569746F2E004572726F20616F8E
:1040F600206162726972206F7363696C6F2E7478C7
:06410600740020250000FA
:00000001FF
