:100000000C94B0000C94D8000C94D8000C94D80038
:100010000C94D8000C94D8000C94D8000C94D80000
:100020000C94D8000C94D8000C94D8000C94D800F0
:100030000C94D8000C94D8000C94D8000C94D800E0
:100040000C9462030C94D8000C94D8000C94D80043
:100050000C94D8000C94D8000C94D8000C94D800C0
:100060000C94D8000C94D80005A84CCDB2D44EB94D
:100070003836A9020C50B9918688083CA6AAAA2A4B
:10008000BE000000803F00000008000201000003E5
:100090000407000000000000000000000000F3045E
:1000A000353F5E836C3FBE147B3F6DC47E3F0FB116
:1000B0007F3F43EC7F3F11FB7F3FC4FE7F3FB1FF9B
:1000C0007F3FECFF7F3FFBFF7F3FFFFF7F3F000055
:1000D000803F0000803F0000803F0000803F000024
:1000E000803FF304353F15EFC33EC2C5473E36BDE2
:1000F000C83D30FB483DB00AC93C900E493C880FD2
:10010000C93BC60F493BD60FC93AD90F493ADB0F55
:10011000C939DB0F4939DB0FC938DB0F4938BF0F4D
:10012000C93700000000250028002B000000000057
:10013000240027002A000404040404040404020226
:100140000202020203030303030301020408102056
:100150004080010204081020010204081020F10769
:1001600011241FBECFEFD8E0DEBFCDBF11E0A0E06D
:10017000B1E0EEE9F6E102C005900D92AC32B107B4
:10018000D9F725E0ACE2B1E001C01D92AD34B20771
:10019000E1F710E0C0EBD0E004C02197FE010E941F
:1001A000470BCF3AD107C9F70E94AC030C944D0B13
:1001B0000C94000090E0FC01E65BFE4F24918A5C09
:1001C0009E4FFC018491882399F090E0880F991F3D
:1001D000FC01E45DFE4FA591B491FC01EE5DFE4F84
:1001E000859194918FB7F894EC91E22BEC938FBFAB
:1001F0000895AF92BF92CF92DF92EF92FF920F934A
:100200001F93CF93DF936C017B018B01040F151FAC
:10021000EB015E01AE18BF08C017D10759F0699114
:10022000D601ED91FC910190F081E02DC601099578
:10023000892B79F7C501DF91CF911F910F91FF9025
:10024000EF90DF90CF90BF90AF90089590E0FC01C9
:10025000EA57FF4F2491FC01E65BFE4F3491FC010D
:10026000EA5CFE4FE491EE23C9F0222339F02330FB
:1002700001F1A8F4213019F1223029F1F0E0EE0F5C
:10028000FF1FEE5DFE4FA591B4918FB7F894EC91EE
:10029000611126C030953E233C938FBF08952730CF
:1002A000A9F02830C9F0243049F7809180008F7D73
:1002B00003C0809180008F7780938000DFCF84B56A
:1002C0008F7784BDDBCF84B58F7DFBCF8091B0006D
:1002D0008F778093B000D2CF8091B0008F7DF9CF1F
:1002E0003E2BDACF3FB7F8948091310190913201E3
:1002F000A0913301B091340126B5A89B05C02F3FD2
:1003000019F00196A11DB11D3FBFBA2FA92F982F3B
:100310008827BC01CD01620F711D811D911D42E036
:10032000660F771F881F991F4A95D1F708958F92FE
:100330009F92AF92BF92CF92DF92EF92FF924B01CA
:100340005C010E9472016B017C010E9472016C19B8
:100350007D098E099F09683E734081059105A8F3C8
:1003600021E0821A9108A108B10888EEC80E83E046
:10037000D81EE11CF11C81149104A104B10429F7D9
:10038000FF90EF90DF90CF90BF90AF909F908F90B5
:100390000895089590E080E00895FC010190002008
:1003A000E9F73197AF01481B590BBC0185E395E094
:1003B0000C94F9008F929F92AF92BF920F931F936C
:1003C000CF93DF93CDB7DEB7A1970FB6F894DEBF1A
:1003D0000FBECDBF19A2423008F44AE08E010F5D76
:1003E0001F4F842E912CB12CA12CA50194010E94A9
:1003F000250BE62FB901CA01EA30F4F4E05DD8011B
:10040000EE938D01232B242B252B79F790E080E0B0
:10041000109719F0CD010E94CD01A1960FB6F89466
:10042000DEBF0FBECDBFDF91CF911F910F91BF9067
:10043000AF909F908F900895E95CE1CFCF93DF93C9
:10044000EC0160E08E810E94260161E08E810E94B5
:10045000260160E08E810E9426018BE891E00197E1
:10046000F1F7DF91CF910895CF92DF92EF92FF9253
:100470000F931F93CF93DF936C017C0187E0E80E0D
:10048000F11CD0E0C0E0062F10E0B8010C2E02C035
:10049000759567950A94E2F76170F70181917F0184
:1004A0000E9426012196C430D10579F7C601DF915B
:1004B000CF911F910F91FF90EF90DF90CF900C9410
:1004C0001E02CF92DF92EF92FF920F931F93CF9372
:1004D000DF93EC01F62E642F8C810E9426018D8122
:1004E0008F3F19F060E00E9426010F2D10E08F85EC
:1004F00084FF25C06E0187E0C80ED11CF12CE12CD1
:10050000B8010E2C02C0759567950A94E2F76170E8
:10051000F60181916F010E942601FFEFEF1AFF0A99
:1005200088E0E816F10461F7CE01DF91CF911F91C9
:100530000F91FF90EF90DF90CF900C941E02B801C6
:1005400084E0759567958A95E1F7CE010E943402A3
:100550006F2DCE01DF91CF911F910F91FF90EF9002
:10056000DF90CF900C94340240E0682F85E395E053
:100570000C946102CF93DF93823029F4909144056B
:10058000986090934405809348051092490580E453
:1005900080934A0580E180934B0580E580934C056C
:1005A000809139050E94DA0080913A058F3F11F061
:1005B0000E94DA0080913B050E94DA00C5E3D5E095
:1005C0009E01255335408091440584FD0AC084E096
:1005D00090E02196281739073CF48E810E94DA00BA
:1005E000EFCF88E090E0F5CF8BE39DE00197F1F746
:1005F00060E0809139050E94260160E080913B0512
:100600000E94260180913A058F3F19F060E00E9418
:1006100026018091440584FD39C063E085E395E0BF
:100620000E943402CBE4D6E4CE010197F1F763E0F7
:1006300085E395E00E9434022197F1F763E085E3BA
:1006400095E00E94340283E592E00197F1F762E0C1
:1006500085E395E00E9434028091440580620E9407
:10066000B40284E0809345058CE00E94B40281E0EE
:100670000E94B4028BE39FE10197F1F782E080933F
:10068000460586E0DF91CF910C94B40280620E940F
:10069000B4028BE496E40197F1F7809144058062FF
:1006A0000E94B40283E592E00197F1F7809144053E
:1006B00080620E94B402D0CF41E00E94610281E0DA
:1006C00090E008951F920F920FB60F9211242F936E
:1006D0003F938F939F93AF93BF9380912D01909100
:1006E0002E01A0912F01B091300130912C0123E017
:1006F000230F2D3758F50196A11DB11D20932C0114
:1007000080932D0190932E01A0932F01B09330017F
:100710008091310190913201A0913301B091340167
:100720000196A11DB11D8093310190933201A093D8
:100730003301B0933401BF91AF919F918F913F915D
:100740002F910F900FBE0F901F90189526E8230F42
:100750000296A11DB11DD2CFCF93DF93CDB7DEB7E7
:10076000AA970FB6F894DEBF0FBECDBF789484B5BC
:10077000826084BD84B5816084BD85B5826085BD9D
:1007800085B5816085BD80916E00816080936E002B
:10079000109281008091810082608093810080911D
:1007A00081008160809381008091800081608093CE
:1007B00080008091B10084608093B1008091B0008E
:1007C00081608093B00080917A00846080937A0089
:1007D00080917A00826080937A0080917A008160B3
:1007E00080937A0080917A00806880937A001092DA
:1007F000C10082E00E94BA028CE091E00E94CD012B
:1008000085E393E0E5E3F1E01192119211921192E8
:100810008E179F07C9F7E0914805E23008F0B3C092
:10082000E150F0E0EB5CFA4F848980680E94B402EA
:1008300082E191E00E94CD01E0914805E43008F0AA
:10084000A4C0E150F0E0EB5CFA4F848980680E941C
:10085000B40225E333E03C8B2B8B38872F8350E4A5
:1008600050937C0080917A00806480937A0080911C
:100870007A0086FDFCCF8091780060917900762F18
:10088000682F072E000C880B990B0E94290920E085
:1008900030E040EA50E40E941D0A20E030E040E8E9
:1008A0005AE30E941D0AAF81B8856D937D938D93A5
:1008B0009D93B887AF8361E070E080E090E00E9494
:1008C0009701E5E3F5E02F813885E217F30739F664
:1008D0008F01E5E3EE2EE3E0FE2E1A8219824981B4
:1008E0005A81BA0190E080E00E94270920E030E0C0
:1008F0004EEF52E40E9486082BED3FE049EC50E4B5
:100900000E941D0A0E9481082FE135E84BEE5EE34C
:100910000E941D0A9B01AC0161E77DE38AE09FE331
:100920000E940F084B015C01AC019B01D7016D9146
:100930007D918D919C910E941D0AF70161937193A5
:10094000819391937F01A5019401D8019E918E918D
:100950007E916E918D010E941D0AF8016083718362
:100960008283938329813A812F5F3F4F3A83298382
:100970002034310509F0B3CFE5E3F3E090E080E007
:1009800050E040E021C0E1E04CCFE3E05BCF48170E
:100990005907C8F4DC01AA0FBB1FAA0FBB1FAB5C31
:1009A000BC4F0481158126813781CD90DD90ED907B
:1009B000FC901397C482D582E682F7820D931D9333
:1009C0002D933C931397349620E430E082179307DD
:1009D00028F0821B930B36952795F8CF820F931F33
:1009E0004F5F5F4F4F37510591F61F86188A198A5E
:1009F0001A8A1B8E1C8E30E83D8F4FEB4E8F81E0A4
:100A000090E09C838B831A821982AB81BC81AA0FF0
:100A1000BB1FB8A3AF8FEB81FC8143E0EE0FFF1F3C
:100A20004A95E1F7FAA3E9A32B813C81220F331FFA
:100A3000220F331F3CA32BA345E351E05A8F498F6C
:100A400085E393E0988F8F8B412C512C320110E07D
:100A500000E090E89D83AFE3AE831A861986E985AE
:100A6000FA852B813C81E217F30709F4FCC0498D1C
:100A70005A8D5AA749A72F88388CFE8BED8B8D890C
:100A80009E898038910508F0A4C0ABA1BCA1A20D3D
:100A9000B31DBEA3ADA38D909D90AD90BC90EBA176
:100AA000FCA129A53AA5E20FF31FF8A7EFA38081C7
:100AB0009181A281B3818B879C87AD87BE87212FCF
:100AC000302F4D815E81C501B4010E941D0A6B016A
:100AD0007C01A30192016B857C858D859E850E949A
:100AE0001D0A9B01AC01C701B6010E940F086B01F2
:100AF0007C012B853C854D855E85612F702F8D8116
:100B00009E810E941D0A6B877C878D879E87A3012B
:100B10009201C501B4010E941D0A9B01AC016B85C5
:100B20007C858D859E850E9410084B015C01A70184
:100B30009601F10160817181828193810E940F0889
:100B4000ADA1BEA16D937D938D939C931397A50149
:100B50009401E9A5FAA560817181828193810E9447
:100B60000F08AFA1B8A56D937D938D939C931397B8
:100B7000A7019601F10160817181828193810E94B8
:100B80001008D1016D937D938D939C931397A501CC
:100B90009401E9A5FAA560817181828193810E9407
:100BA0001008A9A5BAA56D937D938D939C93139777
:100BB000ED89FE892F8D38A1E20FF31FFE8BED8B9F
:100BC00049A15AA1240E351EA40FB51FBAA7A9A783
:100BD00056CF212F302F4D815E816B8D7C8D8D8D79
:100BE0009E8D0E941D0A6B017C01A30192016F85FD
:100BF000788989899A890E941D0A9B01AC01C701E5
:100C0000B6010E940F086B017C01A30192016B8D5C
:100C10007C8D8D8D9E8D0E941D0A4B015C01212FC4
:100C2000302F4D815E816F85788989899A890E94EC
:100C30001D0AA50194010E9410082B013C01898521
:100C40009A8501969A878987AF89B88D1496B88F4F
:100C5000AF8BE98DFA8D3496FA8FE98F1C2D0D2D0F
:100C6000ED82FE82FCCEE981FA81E252FF4F85914E
:100C70009591A591B491E981FA81E656FF4F45918E
:100C80005591659174914B8F5C8F6D8F7E8F9C0118
:100C9000AD0150582F87388B498B5A8B49815A8127
:100CA0004C5F5F4F5A8349838F8D98A19C838B83C0
:100CB0004C31510509F0A9CEA5E3B1E0BA83A9836F
:100CC00025E3E22E23E0F22EF701619171918191EB
:100CD00091917F01A981BA818D909D90AD90BD9039
:100CE000BA83A9839B01AC010E941D0A2B013C0120
:100CF000A5019401C501B4010E941D0A9B01AC012C
:100D0000C301B2010E9410080E94900AF7013497B3
:100D10006083718382839383EF81F885EE15FF05ED
:100D200099F605E313E01A821982512C412C312CDB
:100D3000212CCC24C394D12CD8016D917D918D911F
:100D40009D918D016C9011967C9011971296AC90AC
:100D500012971396BC904601BFEF8B1A9B0A930122
:100D6000A5010E947C0887FF1BC0F8012481358102
:100D700046815781B301C5010E94180A181684F4F0
:100D80009301A501652D742D832D922D0E947C0861
:100D900087FF06C0DA82C982562C472C3A2C2B2CAE
:100DA0006401F1E48F16910439F629813A812150CA
:100DB000304C220F331F220F331F3A8329838901BE
:100DC0000B5C1C4FF901E75CFC4F608171818281F3
:100DD00093819B01AC010E9410089B01AC01D801DA
:100DE0006D917D918D919C910E940F08E981FA810E
:100DF000E35CFC4F20813181428153810E941008C5
:100E00004B015C0120E030E0A9010E94180A18168D
:100E100024F0B7FAB094B7F8B094412C512C3201B9
:100E2000AB89BC896D917D918D919D91BC8BAB8B74
:100E30009B01AC010E941D0A9B01AC01C301B201E0
:100E40000E9410082B013C01EB89FC89EE15FF057F
:100E500039F7A5019401C501B4010E941D0A9B0147
:100E6000AC01C301B2010E940F080E94900AA501C3
:100E700094010E9486086B017C014B015C01AC016E
:100E80009B010E94D00A8823B1F08DE191E00E947D
:100E9000CD0189E291E00E94CD0160ED77E080E034
:100EA00090E00E94970120E030E0232B09F4B3CCBE
:100EB0000E940000B0CC26013701E89477F82FEFAC
:100EC0003FEF4FE75FE7C301B2010E94D00A8111F3
:100ED0000DC02FEF3FEF4FE75FE7C301B2010E9464
:100EE0007C0818161CF481E291E0D1CF2FEF3FEF80
:100EF0004FE75FE4C701B6010E94180A18161CF4F8
:100F000085E291E0C4CF2FEF3FEF4FE75FECC701E1
:100F1000B6010E947C0887FDF3CF20E030E0A901F4
:100F2000C701B6010E947C0887FF0CC041E06DE25A
:100F300085E395E00E94610246015701B7FAB0943B
:100F4000B7F8B0942AE037ED43EA5BE3C501B4019A
:100F50000E9410084B015C010E94F8086B017C01A3
:100F60000E9427099B01AC01C501B4010E940F0832
:100F70004B015C014AE0C701B6010E94DA0141E081
:100F80006EE285E395E00E94610220E030E040E2FD
:100F900051E4C501B4010E941D0A4B015C010E948D
:100FA000F8086B01F12CE12C4AE0C701B6010E9460
:100FB000DA01C701B6010E9427099B01AC01C501F6
:100FC000B4010E940F0820E030E040E251E40E94AA
:100FD0001D0A0E94F80890E080E04AE00E94DA01D1
:100FE00058CFE5E3F5E01382128284E091E091832B
:100FF000808388E084838FEF858389E0868385E022
:10100000878384E0808783E0818782E082871386FC
:10101000148615861686178681E00C94BA025058FD
:10102000BB27AA270E9427080C94CA090E9491098D
:1010300038F00E94980920F039F49F3F19F426F403
:101040000C948E090EF4E095E7FB0C948809E92FC7
:101050000E94EF0958F3BA176207730784079507D0
:1010600020F079F4A6F50C94110A0EF4E0950B2EFD
:10107000BA2FA02D0B01B90190010C01CA01A001EA
:101080001124FF27591B99F0593F50F4503E68F145
:101090001A16F040A22F232F342F4427585FF3CF86
:1010A000469537952795A795F0405395C9F77EF457
:1010B0001F16BA0B620B730B840BBAF09150A1F0A0
:1010C000FF0FBB1F661F771F881FC2F70EC0BA0F26
:1010D000621F731F841F48F4879577956795B795AE
:1010E000F7959E3F08F0B0CF9395880F08F09927A9
:1010F000EE0F9795879508950E94640908F481E0A2
:1011000008950E94A109E3950C94DB090E949A08B6
:101110000C94CA090E94980958F00E94910940F065
:1011200029F45F3F29F00C94880951110C94120A9C
:101130000C948E090E94EF0968F39923B1F35523AB
:1011400091F3951B550BBB27AA27621773078407DA
:1011500038F09F5F5F4F220F331F441FAA1FA9F370
:1011600035D00E2E3AF0E0E832D091505040E6955E
:10117000001CCAF72BD0FE2F29D0660F771F881FBF
:10118000BB1F261737074807AB07B0E809F0BB0BB2
:10119000802DBF01FF2793585F4F3AF09E3F5105C6
:1011A00078F00C9488090C94120A5F3FE4F3983E9F
:1011B000D4F3869577956795B795F7959F5FC9F7AF
:1011C000880F911D9695879597F90895E1E0660F30
:1011D000771F881FBB1F621773078407BA0720F0A9
:1011E000621B730B840BBA0BEE1F88F7E095089512
:1011F0000E94F70988F09F5798F0B92F9927B751A7
:10120000B0F0E1F0660F771F881F991F1AF0BA95AA
:10121000C9F714C0B13091F00E94110AB1E00895ED
:101220000C94110A672F782F8827B85F39F0B93FDF
:10123000CCF3869577956795B395D9F73EF490955D
:101240008095709561957F4F8F4F9F4F0895E894DB
:1012500009C097FB3EF490958095709561957F4FFE
:101260008F4F9F4F9923A9F0F92F96E9BB279395AC
:10127000F695879577956795B795F111F8CFFAF4BC
:10128000BB0F11F460FF1BC06F5F7F4F8F4F9F4FED
:1012900016C0882311F096E911C0772321F09EE84B
:1012A000872F762F05C0662371F096E8862F70E0B1
:1012B00060E02AF09A95660F771F881FDAF7880F8B
:1012C0009695879597F90895990F0008550FAA0BE1
:1012D000E0E8FEEF16161706E807F907C0F0121649
:1012E0001306E407F50798F0621B730B840B950B4C
:1012F00039F40A2661F0232B242B252B21F40895A1
:101300000A2609F4A140A6958FEF811D811D08953D
:1013100097F99F6780E870E060E008959FEF80ECA8
:10132000089500240A94161617061806090608954B
:1013300000240A94121613061406050608950C9448
:101340008E090E94F709D8F3E894E0E0BB279F5785
:10135000F0F02AED3FE049EC06C0EE0FBB0F661F30
:10136000771F881F28F0B23A62077307840728F0B6
:10137000B25A620B730B840BE3959A9572F780381F
:1013800030F49A95BB0F661F771F881FD2F79048DD
:101390000C94D70A092E0394000C11F4882352F000
:1013A000BB0F40F4BF2B11F460FF04C06F5F7F4F91
:1013B0008F4F9F4F0895EF93E0FF07C0A2EA2AEDF9
:1013C0003FE049EC5FEB0E9427080E94CA090F909A
:1013D000039401FC9058E8E6F0E00C94EA0A57FD0B
:1013E0009058440F551F59F05F3F71F04795880F93
:1013F00097FB991F61F09F3F79F08795089512162A
:1014000013061406551FF2CF4695F1DF08C01616D5
:1014100017061806991FF1CF869571056105089486
:101420000895E894BB2766277727CB0197F908959D
:101430000E94640908F48FEF08950E94300A0C940A
:10144000CA090E94910938F00E94980920F095235A
:1014500011F00C9488090C948E0911240C94120A32
:101460000E94EF0970F3959FC1F3950F50E0551F4F
:10147000629FF001729FBB27F00DB11D639FAA27E9
:10148000F00DB11DAA1F649F6627B00DA11D661F38
:10149000829F2227B00DA11D621F739FB00DA11D59
:1014A000621F839FA00D611D221F749F3327A00D13
:1014B000611D231F849F600D211D822F762F6A2FAF
:1014C00011249F5750409AF0F1F088234AF0EE0F14
:1014D000FF1FBB1F661F771F881F91505040A9F741
:1014E0009E3F510580F00C9488090C94120A5F3FCE
:1014F000E4F3983ED4F3869577956795B795F7957D
:10150000E7959F5FC1F7FE2B880F911D96958795F4
:1015100097F9089519F416F40C948E090C94D50AD1
:101520000E94F709B8F39923C9F3B6F39F57550BF7
:1015300087FF0E94E30A0024A0E640EA9001805859
:101540005695979528F4805C660F771F881F20F0CA
:1015500026173707480730F4621B730B840B2029CA
:1015600031294A2BA69517940794202531254A271F
:1015700058F7660F771F881F20F026173707480790
:1015800030F4620B730B840B200D311D411DA095AF
:1015900081F7B901842F9158880F96958795089502
:1015A0000E946409880B990B08959F3F31F0915078
:1015B00020F4879577956795B795880F911D969537
:1015C000879597F9089591505040660F771F881FAF
:1015D000D2F708959F938F937F936F93FF93EF9329
:1015E0009B01AC010E941D0AEF91FF910E94FE0A2F
:1015F0002F913F914F915F910C941D0ADF93CF93F0
:101600001F930F93FF92EF92DF927B018C016894FE
:1016100006C0DA2EEF010E94300AFE01E894A5917F
:101620002591359145915591A6F3EF010E94270828
:10163000FE019701A801DA9469F7DF90EF90FF901F
:101640000F911F91CF91DF910895A1E21A2EAA1B4D
:10165000BB1BFD010DC0AA1FBB1FEE1FFF1FA21762
:10166000B307E407F50720F0A21BB30BE40BF50B5F
:10167000661F771F881F991F1A9469F760957095E8
:10168000809590959B01AC01BD01CF010895EE0FAF
:0E169000FF1F0590F491E02D0994F894FFCF10
:10169E00000000005C03F900CA01C9015448443A35
:1016AE00200020202020202020202020006E616E8F
:0C16BE0000696E66006F76660020250053
:00000001FF
