:100000000C94B8000C94E0000C94E0000C94E00018
:100010000C94E0000C94E0000C94E0000C94E000E0
:100020000C94E0000C94E0000C94E0000C94E000D0
:100030000C94E0000C94E0000C94E0000C94E000C0
:100040000C9488120C94E0000C9456120C9430120C
:100050000C94E0000C94E0000C94E0000C94E000A0
:100060000C94E0000C94E00005A84CCDB2D44EB93D
:100070003836A9020C50B9918688083CA6AAAA2A4B
:10008000BE000000803F7C3C3E5E2B3D3F2F5B5D11
:100090003B2C2A225C000000000800020100000343
:1000A0000407000000000000000000000000F3044E
:1000B000353F5E836C3FBE147B3F6DC47E3F0FB106
:1000C0007F3F43EC7F3F11FB7F3FC4FE7F3FB1FF8B
:1000D0007F3FECFF7F3FFBFF7F3FFFFF7F3F000045
:1000E000803F0000803F0000803F0000803F000014
:1000F000803FF304353F15EFC33EC2C5473E36BDD2
:10010000C83D30FB483DB00AC93C900E493C880FC1
:10011000C93BC60F493BD60FC93AD90F493ADB0F45
:10012000C939DB0F4939DB0FC938DB0F4938BF0F3D
:10013000C93700000000250028002B000000000047
:10014000240027002A000404040404040404020216
:100150000202020203030303030301020408102046
:100160004080010204081020010204081020D2126D
:1001700011241FBECFEFD8E0DEBFCDBF11E0A0E05D
:10018000B1E0EEEAFEE302C005900D92A63FB10792
:10019000D9F727E0A6EFB1E001C01D92AF30B2075A
:1001A000E1F710E0C8EBD0E004C02197FE010E9407
:1001B000FF1DC73BD107C9F70E9437130C94551F89
:1001C0000C94000090E0FC01E65AFE4F24918A5BFB
:1001D0009E4FFC018491882399F090E0880F991F2D
:1001E000FC01E45CFE4FA591B491FC01EE5CFE4F76
:1001F000859194918FB7F894EC91E22BEC938FBF9B
:100200000895AF92BF92CF92DF92EF92FF920F9339
:100210001F93CF93DF936C017B018B01040F151F9C
:10022000EB015E01AE18BF08C017D10759F0699104
:10023000D601ED91FC910190F081E02DC601099568
:10024000892B79F7C501DF91CF911F910F91FF9015
:10025000EF90DF90CF90BF90AF900895FC01538D49
:10026000448D252F30E0842F90E0821B930B541790
:1002700010F0CF96089501970895FC01918D828D1D
:10028000981761F0A28DAE0FBF2FB11D5D968C91B6
:10029000928D9F5F9F73928F90E008958FEF9FEFF5
:1002A0000895FC01918D828D981731F0828DE80FB1
:1002B000F11D858D90E008958FEF9FEF0895FC016B
:1002C000918D228D892F90E0805C9F4F821B910938
:1002D0008F73992708958BE096E00E945F0121E0DB
:1002E000892B09F420E0822F089580E090E0892B8B
:1002F00029F00E946B0181110C9400000895FC010B
:10030000A48DA80FB92FB11DA35ABF4F2C91848D76
:1003100090E001968F739927848FA689B7892C93D3
:10032000A089B1898C91837080648C93938D848D26
:10033000981306C00288F389E02D80818F7D808329
:100340000895EF92FF920F931F93CF93DF93EC01E9
:1003500081E0888F9B8D8C8D98131AC0E889F9896C
:10036000808185FF15C09FB7F894EE89FF8960836F
:10037000E889F98980818370806480839FBF81E0F0
:1003800090E0DF91CF911F910F91FF90EF90089532
:10039000F62E0B8D10E00F5F1F4F0F731127E02E0D
:1003A0008C8D8E110CC00FB607FCFACFE889F98945
:1003B000808185FFF5CFCE010E947F01F1CFEB8DCB
:1003C000EC0FFD2FF11DE35AFF4FF0829FB7F89419
:1003D0000B8FEA89FB8980818062CFCFCF93DF9337
:1003E000EC01888D8823B9F0AA89BB89E889F9894D
:1003F0008C9185FD03C0808186FD0DC00FB607FC82
:10040000F7CF8C9185FFF2CF808185FFEDCFCE01B4
:100410000E947F01E9CFDF91CF91089590E0FC0128
:10042000EA56FF4F2491FC01E65AFE4F3491FC013D
:10043000EA5BFE4FE491EE23C9F0222339F023302A
:1004400001F1A8F4213019F1223029F1F0E0EE0F8A
:10045000FF1FEE5CFE4FA591B4918FB7F894EC911D
:10046000611126C030953E233C938FBF08952730FD
:10047000A9F02830C9F0243049F7809180008F7DA1
:1004800003C0809180008F7780938000DFCF84B598
:100490008F7784BDDBCF84B58F7DFBCF8091B0009B
:1004A0008F778093B000D2CF8091B0008F7DF9CF4D
:1004B0003E2BDACF3FB7F89480910202909103026D
:1004C000A0910402B091050226B5A89B05C02F3F5C
:1004D00019F00196A11DB11D3FBFBA2FA92F982F6A
:1004E0008827BC01CD01620F711D811D911D42E065
:1004F000660F771F881F991F4A95D1F708952FB768
:10050000F8946091FE017091FF018091000290913A
:1005100001022FBF08958FB7F8948091F7018FBF24
:10052000089561E0FC0184810E940E028091F60131
:1005300081111092F60108958EBD00000DB407FEE2
:10054000FDCF8EB508958FEF0C949C020F931F93EF
:10055000CF93DF93EC010E947F028B010E94A302E4
:100560008F3F69F00E947F02601B710B6C177D0743
:10057000A8F380E0DF91CF911F910F91089581E062
:10058000F9CF8CBD9DBD0895CF93DF93EC01809191
:10059000F601811109C081E08093F6018091A806DF
:1005A0009091A9060E94C10260E08C81DF91CF91F9
:1005B0000C940E028F929F92AF92BF92FF920F9374
:1005C0001F93CF93DF93EC01F62E49015A018E81E0
:1005D000882389F08F8198859C012F5F3F4F388752
:1005E0002F838230924018F40E94A302F3CFCE01F1
:1005F0000E9491021E82CE010E94C4028CE291E010
:100600000E94A6028F2D80640E949C0208E110E0E7
:10061000D501C401002E04C0B695A795979587957E
:100620000A94D2F70E949C0208501109083F8FEFEC
:10063000180771F785E9FF2021F028E087E8F2121A
:100640008FEF0E949C0210E00E94A3028A8787FF1E
:1006500004C01F3F11F01F5FF7CFDF91CF911F91B3
:100660000F91FF90BF90AF909F908F900895AF92A1
:10067000BF92CF92DF92EF92FF920F931F93CF938F
:10068000DF93EC016901C801820F931F8130924012
:1006900050F58E81882379F088819981AA81BB8168
:1006A00084179507A607B70731F48F819885C81678
:1006B000D90608F042C0488359836A837B838B85BF
:1006C000833039F089E0440F551F661F771F8A95E4
:1006D000D1F79A01AB0161E1CE010E94DA028823D1
:1006E00089F083E08D83CE010E94910280E0DF914A
:1006F000CF911F910F91FF90EF90DF90CF90BF901F
:10070000AF9008950E947F025B010E94A3028A8736
:100710008F3F69F40E947F026A197B096D32714034
:10072000A0F38FE08D83CE010E949102DCCF8E3F3B
:1007300089F418861F8281E08E838F8198858C15BD
:100740009D0550F40E94A3028F8198850196988799
:100750008F83F3CF8DE0E6CF6701E00EF11E0E949C
:10076000A302F60181936F01EE15FF05C1F78F819A
:100770009885080F191F18870F838985882319F01A
:1007800001151240A0F08E81882389F08F81988511
:100790009C012F5F3F4F38872F838230924018F49F
:1007A0000E94A302F3CFCE010E9491021E8281E03B
:1007B0009ECFEF92FF920F931F93CF93DF93EC01A5
:1007C000790182E1411551056105710599F08B852B
:1007D000833039F089E0440F551F661F771F8A95D3
:1007E000D1F79A01AB0168E1CE010E94DA028823B9
:1007F00019F084E08D8330C08EEF0E949C02870147
:100800008EEFF81AF80181918F010E949C020E155B
:100810001F05C1F78FEF0E949C028FEF0E949C0280
:100820000E94A3028A878F71853089F488E592E05F
:100830000E94A6028823A9F020E030E0A9016DE023
:10084000CE010E94DA02882371F084E1D3CF81E1E6
:100850008D83CE010E949102CE010E94910280E020
:100860000AC085E1C7CF0E94A3028111EECFCE015D
:100870000E94910281E0DF91CF911F910F91FF9033
:10088000EF900895CF93DF938091F8018823A9F129
:10089000C0910906D0910A064091000150910101D2
:1008A000609102017091030129E034E0CE010E94C1
:1008B000D903811104C080E0DF91CF910895409168
:1008C000F9015091FA016091FB017091FC01411511
:1008D00051056105710579F029E034E0CE010E94EF
:1008E000D903882341F31092F9011092FA01109272
:1008F000FB011092FC011092F80181E0DDCF8F9294
:100900009F92AF92BF92EF92FF920F931F93CF935C
:100910004B015C01C42F8091000190910101A091D5
:100920000201B091030188159905AA05BB0549F19B
:100930000E94420481110BC080E0CF911F910F9162
:10094000FF90EF90BF90AF909F908F90089589E0B7
:10095000E82E84E0F82E00E012E030E020E0B5015F
:10096000A4018091090690910A060E94370388230A
:1009700019F38092000190920101A0920201B092BD
:1009800003014091F8014C2B4093F80181E0D5CF51
:100990008F929F92AF92BF92CF92DF92EF92FF928F
:1009A000CF932AEA36E030930A062093090688237B
:1009B00009F46DC040E060E070E0CB010E947F046C
:1009C00081110BC080E0CF91FF90EF90DF90CF902E
:1009D000BF90AF909F908F9008958091C7058F77BB
:1009E00089F78091D3059091D405A091D505B09158
:1009F000D60584369105A105B10520F3C090CF0539
:100A0000D090D005E090D105F090D205C114D1046A
:100A1000E104F104B9F240E0C701B6010E947F048D
:100A2000882381F2809114049091150481159240DD
:100A300049F6A0911904AA2329F260911704709134
:100A400018046115710509F4BDCF20911604222305
:100A500009F4B8CFA093C8062093BA0690E080E0CE
:100A600030E0E1E0F0E0C82FAF01082E02C0440FF3
:100A7000551F0A94E2F72417350769F041E0480F43
:100A800001968930910579F74093C3069BCFC12C1D
:100A9000D12C7601C0CF8093C30620911F043091E2
:100AA000200450E040E02115310541F420912D044F
:100AB00030912E0440912F04509130042093BB06B6
:100AC0003093BC064093BD065093BE0646015701C5
:100AD000860E971EA11CB11C8092C9069092CA0670
:100AE000A092CB06B092CC06E0911A04F0911B04C0
:100AF000F093CF06E093CE06B0E00E94F41DDC0137
:100B0000CB01880D991DAA1DBB1D8093D006909323
:100B1000D106A093D206B093D30625E0EE0FFF1FB7
:100B20002A95E1F7E150FE4FEF2FFF27E6958E0F54
:100B30009F1FA11DB11D8093C4069093C506A0936D
:100B4000C606B093C70680901C0490901D04B12C7B
:100B5000A12C8114910441F48090290490902A04DE
:100B6000A0902B04B0902C04C81AD90AEA0AFB0AF8
:100B7000C80CD91CEA1CFB1C04C0F694E794D7945B
:100B8000C794CA95D2F7C092BF06D092C006E09231
:100B9000C106F092C20685EFC8168FE0D806E104C0
:100BA000F10428F48CE08093CD0681E00CCF80E145
:100BB00025EFC2162FEFD206E104F104A0F38091D5
:100BC000350490913604A0913704B0913804809395
:100BD000D0069093D106A093D206B093D30680E2BC
:100BE000E2CF4F925F926F927F928F929F92AF92DD
:100BF000BF92CF92DF92EF92FF920F931F93CF930A
:100C0000DF93EC01423051056105710590F480E0FD
:100C1000DF91CF911F910F91FF90EF90DF90CF90D8
:100C2000BF90AF909F908F907F906F905F904F900C
:100C3000089589859A85AB85BC850196A11DB11D56
:100C400084179507A607B70710F3CB88DC88ED88D3
:100C5000FE888F89803109F042C0BB27A72F962FCD
:100C6000852F480159012A013B01C80ED91EEA1EF1
:100C7000FB1E8091000190910101A0910201B091B1
:100C80000301C816D906EA06FB0699F58F8980315B
:100C9000C1F5B301A201552766277727440F551FD9
:100CA000475F5B4FFA01918280828091F8018160F9
:100CB0008093F8018A89823080F08D819E81AF8196
:100CC000B8858C0D9D1DAE1DBF1D8093F9019093BD
:100CD000FA01A093FB01B093FC0181E099CFDB0105
:100CE000CA01E7E0B695A79597958795EA95D1F75C
:100CF000B8CF40E0C701B6010E947F048111C6CF82
:100D000086CFB301A2014F77552766277727440F77
:100D1000551F440F551F475F5B4FFA018082918238
:100D2000A282B382C2CF8F929F92AF92BF92CF9294
:100D3000DF92EF92FF920F931F93CF93DF93FC010B
:100D400081859285A385B4850196A11DB11D841767
:100D50009507A607B70770F480E0DF91CF911F9148
:100D60000F91FF90EF90DF90CF90BF90AF909F904A
:100D70008F90089583889488A588B6888789803164
:100D800089F5BB27A72F962F852FE9016A017B01E3
:100D90008F01BC01CD01680D791D8A1D9B1D8090BE
:100DA000000190900101A0900201B090030186160D
:100DB0009706A806B90601F5F8018789803111F573
:100DC000DD24EE24FF24F601EE0FFF1FE75FFB4F4B
:100DD00080819181B0E0A0E088839983AA83BB835E
:100DE00081E0BBCFDB01CA01C7E0B695A795979517
:100DF0008795CA95D1F7C9CF40E00E947F04811141
:100E0000DBCFAACFE894C7F8DD24EE24FF24F60157
:100E1000EE0FFF1FEE0FFF1FE75FFB4F80819181F9
:100E2000A281B381BF70D8CF4F925F926F927F92B1
:100E3000AF92BF92CF92DF92EF92FF920F931F93E8
:100E4000CF93DF9300D000D0CDB7DEB78C014983BC
:100E50005A836B837C835901C12CD12C7601412CA0
:100E600082E0582E612C712C49815A816B817C81E2
:100E70009E012F5F3F4FC8010E949306882339F1DE
:100E8000F8018585A301920104C0220F331F441F7E
:100E9000551F8A95D2F7DA01C901C80ED91EEA1E7C
:100EA000FB1E49815A816B817C818789803111F1D8
:100EB00088EF9FEFAFEFBFE0481759076A077B073E
:100EC00098F2F501C082D182E282F38281E00F9034
:100ED0000F900F900F90DF91CF911F910F91FF9086
:100EE000EF90DF90CF90BF90AF907F906F905F902A
:100EF0004F90089588EF9FEFA0E0B0E0DDCFCF9353
:100F0000DF93FC012581222321F080E0DF91CF9146
:100F10000895EC018091CD06803159F582E08583FA
:100F2000178A108E118E128E8091CE069091CF0668
:100F3000B0E0A0E025E0880F991FAA1FBB1F2A95EB
:100F4000D1F7838B948BA58BB68B86EB96E09C8F29
:100F50008B8F81E08C831E821F82188619861A86E9
:100F60001B861C861D861E861F86188A198A1A8A69
:100F7000CDCF803251F683E085834091D0065091E9
:100F8000D1066091D2067091D306478B508F618F46
:100F9000728F9F012D5E3F4F86EB96E00E941407F3
:100FA0008111D3CFB2CF8F929F92AF92BF92CF9247
:100FB000DF92EF92FF920F931F93CF93DF93EC0199
:100FC0008D8181110EC080E0DF91CF911F910F9133
:100FD000FF90EF90DF90CF90BF90AF909F908F9059
:100FE00008950B891C892D893E890417150726074A
:100FF000370748F34A015B01823031F48A869B86C9
:10100000AC86BD8681E0E0CF81149104A104B104D7
:1010100049F41E821F82188619861A861B861C8632
:101020001D86F0CF0A851B852C853D85EB8DFC8DBB
:10103000858590E00996B901A801415051096109DF
:101040007109082E04C076956795579547950A94BF
:10105000D2F775016401E1E0CE1AD108E108F10888
:1010600004C0F694E794D794C7948A95D2F7C4162F
:10107000D506E606F70620F0012B022B032B11F50F
:101080008F89988DA98DBA8D8E839F83A887B98704
:101090008E010A5F1F4FC114D104E104F10409F469
:1010A000ADCF4E815F816885798598018B8D9C8D50
:1010B0000E94930691E0C91AD108E108F108811154
:1010C000EACF81CFC41AD50AE60AF70AE1CF3F92E8
:1010D0004F925F926F927F928F929F92AF92BF9248
:1010E000CF92DF92EF92FF920F931F93CF93DF93F4
:1010F000CDB7DEB72C970FB6F894DEBF0FBECDBFCD
:101100005C01DC015B968D909C905C9716964D90EF
:101110005D906D907C9019974114510461047104A5
:1011200009F468C0BFEF4B1A5B0A6B0A7B0A312CCB
:10113000F40181859285A385B4859C01AD012F5F63
:101140003F4F4F4F5F4F29873A874B875C8773012B
:1011500062011D821E821F821886F401818592859C
:10116000A385B4852D813E814F8158852817390785
:101170004A075B0708F056C089859A85AB85BC8510
:101180008C159D05AE05BF0550F482E0C82ED12C0C
:10119000E12CF12C92E0492E512C612C712C9E01F6
:1011A0002F5F3F4FB701A601C4010E949306882319
:1011B000C9F189819A81AB81BC81892B8A2B8B2BC8
:1011C00009F1260137019FEF491A590A690A790A7C
:1011D0002D813E814F8158852F5F3F4F4F4F5F4F8D
:1011E0002D833E834F8358873FEFC31AD30AE30A08
:1011F000F30AB3CFF40140805180628073803324BE
:10120000339496CFC414D504E604F70409F70FEF1E
:101210001FEF2FEF3FE0B701A601C4010E94F105C7
:10122000811119C080E02C960FB6F894DEBF0FBE76
:10123000CDBFDF91CF911F910F91FF90EF90DF9085
:10124000CF90BF90AF909F908F907F906F905F9066
:101250004F903F900895F5014681578160857185D3
:10126000411551056105710539F097018601C401E9
:101270000E94F1058823B1F2D5011696CD92DD9238
:10128000ED92FC921997332051F0D701C6010196D7
:10129000A11DB11DF40180839183A283B383F50165
:1012A0008789908DA18DB28D892B8A2B8B2B39F458
:1012B000C78AD08EE18EF28E84818068848381E03B
:1012C000B2CFCF93DF93EC018D81882389F18C819C
:1012D00087FF2AC06E857F858889998941E00E94B1
:1012E0007F04882329F1EA8980E2E89FF001112434
:1012F000E75FFB4F3097E1F08D81823040F48B89BE
:101300009C89AD89BE89848F958FA68FB78F8F8971
:10131000988D938F828F8F89988DA98DBA8DB58B7B
:10132000A48B8C818F778C83DF91CF910C944204B6
:1013300080E0DF91CF910895CF93DF93EC010E947D
:101340006109882311F01D8281E0DF91CF9108951A
:101350002F923F924F925F926F927F928F929F92C5
:10136000AF92BF92CF92DF92EF92FF920F931F93B3
:10137000CF93DF9300D000D0CDB7DEB78C015B01F7
:101380001A01DC0115968C911597813009F0C8C0BF
:1013900014968C9181FFC4C082FDAEC06101D8015A
:1013A0001A964D915D916D917C911D97C114D10458
:1013B00009F429C15B968D919C915C97FC01748026
:1013C0002FEF270D2A013B0139E07694679457945B
:1013D00047943A95D1F7722E74207A01F1E0FF22FA
:1013E000711020C0E114F104E9F416964D915D915D
:1013F0006D917C911997411551056105710509F0B1
:1014000098C057968D919D910D90BC91A02D0097FD
:10141000A105B10509F0AFC0C8010E946708882383
:1014200009F47EC080E092E08E199F0946018C1578
:101430009D0508F44C01D8015B964D915C915C9739
:1014400016968D919D910D90BC91A02D0297A109AA
:10145000B109FA01258504C0880F991FAA1FBB1F77
:101460002A95D2F74685578560897189840F951F23
:10147000A61FB71F9C01AD01270D311D411D511D38
:1014800029013A01811432E0930609F07AC0809173
:10149000000190910101A0910201B0910301841516
:1014A0009505A605B70559F48FEF9FEFDC018093F2
:1014B000000190930101A0930201B09303019501F3
:1014C000B301A2018091090690910A060E94D903F6
:1014D000882331F19EEFB91AC818D908F80182851E
:1014E0009385A485B585880D991DA11DB11D8287A1
:1014F0009387A487B58753CFF801438954896589B9
:10150000768982859385A485B585481759076A072A
:101510007B0709F443CFC8010E94D30781113ECF56
:1015200081E090E0D80113969C938E93129780E00F
:1015300007C09E012F5F3F4F0E949306811102C09A
:1015400090E077C089819A81AB81BC81F801238DBD
:10155000348DF901278948EF5FEF60E070E02031BA
:1015600021F048EF5FEF6FEF7FE084179507A60744
:10157000B70708F051CFF80186839783A087B1871A
:1015800051CFE114F10491F5D8011A964D915D9176
:101590006D917C911D9753968D919D910D90BC916D
:1015A000A02D481759076A077B0700F10E944204E3
:1015B000882309F4B5CF4092000150920101609256
:1015C0000201709203018091F80181608093F8011B
:1015D0009701275F3B4FD501C901880D991DF9017E
:1015E0008E179F0759F04D914193FACF41E0C30107
:1015F000B2010E947F048111EBCF92CF821B930B2B
:10160000A80EB91E69CFF80183899489A589B68986
:1016100084179507A607B70738F48481438B548B4A
:10162000658B768B80688483F801848183FD18C084
:10163000C1010F900F900F900F90DF91CF911F91EC
:101640000F91FF90EF90DF90CF90BF90AF909F9061
:101650008F907F906F905F904F903F902F90089564
:10166000C8010E946109882309F45ACFE1CFCF93C2
:10167000DF931F92CDB7DEB7698341E050E0BE0132
:101680006F5F7F4F0E94A8090F90DF91CF9108955F
:10169000FC01DB0112968D919C91139793838283B9
:1016A00082E391E09183808314968C9114978483D4
:1016B00015968C911597858316964D915D916D9138
:1016C0007C91199746835783608771871A964D914D
:1016D0005D916D917C911D974287538764877587D3
:1016E0001E964D915D916D917C91519746875787DC
:1016F000608B718B52968C915297828B53964D9141
:101700005D916D917C915697438B548B658B768B55
:1017100057964D915D916D917C915A97478B508F63
:10172000618F728F5B968D919C91948F838F0895BA
:101730000895FC01818D928D009711F00C94610940
:101740000895DC015996ED91FC913097B9F08389A9
:101750009489A589B6894285538564857585841BDE
:10176000950BA60BB70B811520E89207A105B105D3
:1017700038F08FEF9FE7A0E0B0E0089590E080E0C0
:101780000895CF93DF93EC01E98DFA8D309749F4FA
:1017900081E090E09B838A8390E080E0DF91CF91AD
:1017A000089513821282898D9A8D0E94A809E98D6D
:1017B000FA8D22813381232B59F7F0CFCF93DF931A
:1017C0001F92CDB7DEB76983DC01ED91FC910280F9
:1017D000F381E02D41E050E0BE016F5F7F4F09953E
:1017E0000F90DF91CF9108952F923F924F925F9289
:1017F0006F927F928F929F92AF92BF92CF92DF9221
:10180000EF92FF920F931F93CF93DF9300D01F921D
:10181000CDB7DEB7FC018581811118C08FEF9FEF36
:101820000F900F900F90DF91CF911F910F91FF902C
:10183000EF90DF90CF90BF90AF909F908F907F9070
:101840006F905F904F903F902F900895848180FF1C
:10185000E5CF438954896589768982859385A485F6
:10186000B585312C212C481759076A077B0719F0D9
:1018700022242394312C6F012101CE0101963C01D9
:10188000DF011696BB83AA834114510409F4C5C035
:10189000F60142855385648575854A01F1E09F22F2
:1018A000D6015B968D919C915C978A019B01E9E042
:1018B0003695279517950795EA95D1F71596EC91EA
:1018C000E230E9F5FC01628D738D848D958D600F9A
:1018D000711F821F931FA12C22E0B22EA818B908F5
:1018E0004A145B0408F45201F601248126FD04C069
:1018F000A114F2E0BF0671F4009100011091010102
:1019000020910201309103010617170728073907B4
:1019100009F05EC040E00E947F04882309F47ECF76
:10192000C401875F9B4FD3019C012A0D3B1DFC0125
:101930002E173F0709F46CC041914D93F9CFDC019C
:101940001496BC90BA94B0228114910479F4B11029
:101950000DC0452B462B472B69F5F6018789908DE5
:10196000A18DB28D86839783A087B187D6015B96C0
:10197000ED91FC915C9716966D917D918D919C9166
:1019800019976250710981099109258504C0660F74
:10199000771F881F991F2A95D2F7068517852089FA
:1019A0003189600F711F821F931F6B0D711D811D87
:1019B000911D91CFD60116964D915D916D917C91BF
:1019C00019972A813B810E9493068111CFCF26CFA0
:1019D000730185019401AB01BC01809109069091CE
:1019E0000A060E943703882309F418CF6A0C7B1C6F
:1019F000F60182859385A485B5858A0D9B1DA11D61
:101A0000B11D82879387A487B5874A185B083CCFAE
:101A1000281B390B620E731EEBCF2A94232809F082
:101A2000FDCE898190E0FCCEFC01818D928D0097E6
:101A300011F00C94F40B8FEF9FEF08950F931F9309
:101A4000CF93DF93EC01898D9A8D10E000E0009731
:101A500099F00E94F40B8C010F3F100769F0898DFB
:101A60009A8DFC01428553856485758541505109E5
:101A7000610971090E94D307C801DF91CF911F91BD
:101A80000F91089590E080E00895CF93DF93EC01EB
:101A900060E08E810E940E0261E08E810E940E0243
:101AA00060E08E810E940E028BE891E00197F1F7D1
:101AB000DF91CF910895CF92DF92EF92FF920F9333
:101AC0001F93CF93DF936C017C0187E0E80EF11C3C
:101AD000D0E0C0E0062F10E0B8010C2E02C07595D2
:101AE00067950A94E2F76170F70181917F010E9486
:101AF0000E022196C430D10579F7C601DF91CF914E
:101B00001F910F91FF90EF90DF90CF900C94450DB7
:101B1000CF92DF92EF92FF920F931F93CF93DF93B9
:101B2000EC01F62E642F8C810E940E028D818F3F76
:101B300019F060E00E940E020F2D10E08F8584FFE7
:101B400025C06E0187E0C80ED11CF12CE12CB80134
:101B50000E2C02C0759567950A94E2F76170F60144
:101B600081916F010E940E02FFEFEF1AFF0A88E0D9
:101B7000E816F10461F7CE01DF91CF911F910F912B
:101B8000FF90EF90DF90CF900C94450DB80184E06A
:101B9000759567958A95E1F7CE010E945B0D6F2DD3
:101BA000CE01DF91CF911F910F91FF90EF90DF90C9
:101BB000CF900C945B0D40E0682F83EF96E00C947F
:101BC000880DCF93DF93823029F4909102079860BB
:101BD00090930207809306071092070780E4809392
:101BE000080780E18093090780E580930A078091C8
:101BF000F7060E94E2008091F8068F3F11F00E94E4
:101C0000E2008091F9060E94E200C3EFD6E09E0157
:101C1000235F36408091020784FD0AC084E090E093
:101C20002196281739073CF48E810E94E200EFCFFD
:101C300088E090E0F5CF8BE39DE00197F1F760E05D
:101C40008091F7060E940E0260E08091F9060E94E2
:101C50000E028091F8068F3F19F060E00E940E029C
:101C60008091020784FD39C063E083EF96E00E9413
:101C70005B0DCBE4D6E4CE010197F1F763E083EF8F
:101C800096E00E945B0D2197F1F763E083EF96E009
:101C90000E945B0D83E592E00197F1F762E083EF2C
:101CA00096E00E945B0D8091020780620E94DB0D2E
:101CB00084E0809303078CE00E94DB0D81E00E94AA
:101CC000DB0D8BE39FE10197F1F782E0809304073E
:101CD00086E0DF91CF910C94DB0D80620E94DB0DDA
:101CE0008BE496E40197F1F78091020780620E94ED
:101CF000DB0D83E592E00197F1F7809102078062A6
:101D00000E94DB0DD0CF41E00E94880D81E090E081
:101D10000895CF92DF92EF92FF921F93CF93DF93BC
:101D2000EC0180E2689FF0011124E75FFB4F93858F
:101D3000917161F0842F827449F080E0DF91CF913E
:101D40001F91FF90EF90DF90CF900895142F6A8B32
:101D50008091000190910101A0910201B0910301D5
:101D60008E879F87A88BB98BC488D588F12CE12CEE
:101D70007601DD24CC24CF8AD88EE98EFA8E828D2E
:101D8000938DB0E0A0E0AC01BD014C295D296E2926
:101D90007F294F8B588F698F7A8F83858871B1F433
:101DA000848D958DA68DB78D8B8B9C8BAD8BBE8BCB
:101DB00081E08D831F701C831E821F821886198606
:101DC0001A861B861C861D8681E0B8CF803109F0FB
:101DD000B4CF9E012D5E3F4F8B8D9C8D0E941407CA
:101DE000882309F4AACF84E0E4CFFB01019000200E
:101DF000E9F73197AF01461B570BDC01ED91FC91E0
:101E00000280F381E02D09948F929F92AF92BF924E
:101E1000EF92FF920F931F93CF93DF93CDB7DEB76F
:101E2000A1970FB6F894DEBF0FBECDBF7C01FA01BB
:101E3000CB0119A2223008F42AE08E010F5D1F4F5A
:101E4000822E912CB12CA12CBF01A50194010E94DE
:101E5000D21DF901CA016A300CF5605DD8016E939C
:101E60008D01232B242B252B79F790E080E0109710
:101E700021F0BD01C7010E94F50EA1960FB6F8949E
:101E8000DEBF0FBECDBFDF91CF911F910F91FF90AD
:101E9000EF90BF90AF909F908F900895695CDECFD8
:101EA000CF93DF93BC018BE096E00E94F50EEC012E
:101EB00066E471E08BE096E00E94F50E8C0F9D1FAA
:101EC000DF91CF9108952F923F924F925F926F9240
:101ED0007F928F929F92AF92BF92CF92DF92EF92BA
:101EE000FF921F93CF93DF93EC016A017B01722E67
:101EF000AB019601CB01B6010E947D1D69E471E042
:101F0000811126C046015701E894B7F82FEF3FEF43
:101F10004FE75FE7C501B4010E947D1D81110CC030
:101F20002FEF3FEF4FE75FE7C501B4010E94291B88
:101F30006DE471E0181664F02FEF3FEF4FE75FE4B8
:101F4000C701B6010E94C51C1816B4F461E571E022
:101F5000CE01DF91CF911F91FF90EF90DF90CF9056
:101F6000BF90AF909F908F907F906F905F904F90B9
:101F70003F902F900C94F50E2FEF3FEF4FE75FEC63
:101F8000C701B6010E94291B87FDE0CF20E030E0A9
:101F9000A901C701B6010E94291B312C212C87FF02
:101FA0000DC0E881F9810190F081E02D6DE2CE0154
:101FB00009951C01F7FAF094F7F8F09410E060E04E
:101FC00070E080E09FE3711641F020E030E040E2F5
:101FD00051E40E94331B1F5FF6CFA70196010E94B8
:101FE000BD1A2B013C010E94A51B4B015C012AE09C
:101FF000BC01A401CE010E94040F7C01E20CF31C81
:102000001123E1F1C501B4010E94D41B9B01AC0175
:10201000C301B2010E94BC1A4B015C01E881F98145
:102020000190F081E02D6EE2CE010995E80EF91ED7
:10203000115020F120E030E040E251E4C501B4014C
:102040000E94CA1C2B013C010E94A51B4B01B12C14
:10205000A12C2AE0B501A401CE010E94040FE80ED4
:10206000F91EC501B4010E94D41B9B01AC01C30140
:10207000B2010E94BC1A4B015C01DACFC701DF91AB
:10208000CF911F91FF90EF90DF90CF90BF90AF90D6
:102090009F908F907F906F905F904F903F902F9088
:1020A00008953F924F925F926F927F928F929F928C
:1020B000AF92BF92CF92DF92EF92FF920F931F9356
:1020C000CF93DF93CDB7DEB72B970FB6F894DEBF73
:1020D0000FBECDBF7C01FE013196CE010C966F0183
:1020E00030E23193E817F907E1F7DA0130E087E0F1
:1020F0009D91B92E992309F43CC09E32F1F48A30A7
:10210000C9F480E02B960FB6F894DEBF0FBECDBFAA
:10211000DF91CF911F910F91FF90EF90DF90CF90C3
:10212000BF90AF909F908F907F906F905F904F90F7
:102130003F90089538E08AE0DBCFE6E8F0E0449194
:10214000442321F031969413FACFDBCF8317C8F2E2
:102150004FED490F4E35A8F64FE9490F4A3118F4B3
:1021600040EEB42EB90EF601E30FF11DB0823F5FD1
:10217000BFCF8981803229F2322E8B01DB015B9641
:102180008D919C915C97F701948F838F16961D9289
:102190001D921D921C921997FB01128613861486BC
:1021A0001586F80182859385A485B5854389548970
:1021B0006589768984179507A607B70708F04DC08B
:1021C00025E0B695A795979587952A95D1F7F82F8D
:1021D000FF70AF2ED80115968C91823008F491CF04
:1021E000C8010E94F40B97FD8CCFF801828593857E
:1021F000A485B5854F96A11DB11D82879387A487BD
:10220000B587F0E2AF9EB0011124675F7B4F611587
:10221000710509F476CFDB018C91882341F0853E6E
:1022200009F061C0BB2029F0BB24B394BACFB11030
:102230000EC0F701A28A8091000190910101A09146
:102240000201B091030186879787A08BB18BDB01D8
:102250008C918111E9CFBB24B394832D827182319B
:1022600009F04FCFBB2009F44CC0F7016685778594
:102270008089918941E00E947F04882309F441CF3D
:10228000D70152968C91B0E28B9FC0011124875FD9
:102290009B4F009709F435CFFC013A9626E1DF0108
:1022A0001D922A95E9F72BE0F601DC0101900D92D1
:1022B0002A95E1F721E238E2FC01318B208B40E0E6
:1022C00058E057874687338B228B318F208F578B6F
:1022D000468B0E944204882309F413CF432DD70173
:1022E00052966C910AC04BE050E0C6010E94391F23
:1022F000892B09F056CF432D6A2DC7010E94890E04
:1023000001CFF8018581823009F4FBCEC8010E941B
:102310006708882309F4F5CED8015B96ED91FC910E
:102320005C9716968D909D90AD90BC901997B2E0F9
:102330008B1A9108A108B108858504C0880C991CE6
:10234000AA1CBB1C8A95D2F786859785A089B1897E
:10235000880E991EAA1EBB1E848124013501480ED9
:10236000511C611C711C84149504A604B70401F16E
:10237000E1E04E1A5108610871080E944204882366
:1023800009F4BFCEE9E0F4E0119289E096E08E17FF
:102390009F07D1F740920001509201016092020123
:1023A000709203018091F80181608093F801DBCF86
:1023B000D8015B96ED91FC91258580E092E0A0E04C
:1023C000B0E004C0880F991FAA1FBB1F2A95D2F73F
:1023D000F8014389548965897689840F951FA61F62
:1023E000B71F838B948BA58BB68BD70152961C920B
:1023F00089E094E051CFEF92FF920F931F93CF9318
:10240000DF93EC017B018A011B821A8288EE93E044
:10241000A0E0B0E08C839D83AE83BF838EE091E02B
:10242000998388838DE190E00E94141E9A8F898F92
:10243000009779F02DE1F701DC0101900D922A95CA
:10244000E1F74CE050E0B801CE010C960E94461F27
:10245000188EDF91CF911F910F91FF90EF9008950B
:102460001F920F920FB60F9211242F933F934F9309
:102470005F936F937F938F939F93AF93BF93EF93EC
:10248000FF938BE096E00E947F01FF91EF91BF9157
:10249000AF919F918F917F916F915F914F913F91FC
:1024A0002F910F900FBE0F901F9018951F920F92B3
:1024B0000FB60F9211242F938F939F93EF93FF9357
:1024C000E0911B06F0911C068081E0912106F091BD
:1024D000220682FD1BC09081809124068F5F8F733E
:1024E00020912506821741F0E0912406F0E0E55F97
:1024F000F94F958F80932406FF91EF919F918F91D3
:102500002F910F900FBE0F901F9018958081F4CFE0
:102510001F920F920FB60F9211242F933F938F9318
:102520009F93AF93BF938091FE019091FF01A09183
:102530000002B09101023091FD0123E0230F2D37FD
:1025400058F50196A11DB11D2093FD018093FE0158
:102550009093FF01A0930002B093010280910202C8
:1025600090910302A0910402B09105020196A11D71
:10257000B11D8093020290930302A0930402B093D2
:102580000502BF91AF919F918F913F912F910F9035
:102590000FBE0F901F90189526E8230F0296A11DDD
:1025A000B11DD2CFEBE0F6E01382128288EE93E009
:1025B000A0E0B0E084839583A683B78380E291E0B6
:1025C0009183808385EC90E09587848784EC90E00C
:1025D0009787868780EC90E0918B808B81EC90E0F0
:1025E000938B828B82EC90E0958B848B86EC90E0D1
:1025F000978B868B118E128E138E148EE8EAF6E07E
:1026000080E580831182EAEAF6E01582168211865F
:10261000138682E090E0A0E0B0E084879587A687EB
:10262000B78713A215A614A682E391E093A782A709
:1026300017A6E3EFF6E0138212828EE391E0918316
:10264000808388E084838FEF858389E0868385E0BB
:10265000878384E0808783E0818782E08287138696
:10266000148615861686178681E00C94E10DCF93AB
:10267000DF93CDB7DEB7C75BD1090FB6F894DEBFE5
:102680000FBECDBF789484B5826084BD84B581606F
:1026900084BD85B5826085BD85B5816085BD80912D
:1026A0006E00816080936E001092810080918100A5
:1026B000826080938100809181008160809381009D
:1026C000809180008160809380008091B10084605F
:1026D0008093B1008091B00081608093B0008091C0
:1026E0007A00846080937A0080917A00826080937F
:1026F0007A0080917A00816080937A0080917A00DC
:10270000806880937A001092C100E0911B06F091DE
:102710001C0682E08083E0911706F0911806108273
:10272000E0911906F0911A068FEC8083109223062F
:10273000E0911F06F091200686E08083E0911D065F
:10274000F0911E06808180618083E0911D06F091EA
:102750001E06808188608083E0911D06F0911E0630
:10276000808180688083E0911D06F0911E06808143
:102770008F7D808382E00E94E10D65E571E083EF4B
:1027800096E00E94F50E87E093E0E7E0F2E0119218
:102790001192119211928E179F07C9F723E730E02B
:1027A0002C0F3D1F275E3F4FCA54DF4F39832883CC
:1027B000C65BD040E0910607E23008F00DC1E15061
:1027C000F0E0ED50F94F848980680E94DB0D6BE5E5
:1027D00071E083EF96E00E94F50EE0910607E43089
:1027E00008F0FCC0E150F0E0ED50F94F84898068BA
:1027F0000E94DB0D49E053E0CC55DF4F59834883FD
:10280000C45AD0408A0150E4D52E6BE0E62E64E035
:10281000F62ED0927C0080917A00806480937A00BA
:1028200080917A0086FDFCCF8091780060917900DC
:10283000762F682F072E000C880B990B0E94D61B51
:1028400020E030E040EA50E40E94CA1C20E030E082
:1028500040E85AE30E94CA1CD8016D937D938D9382
:102860009D938D01C7010197F1F7B4E009301B0773
:1028700081F6809107039091080305970CF41AC222
:10288000E7961FAE1EAEE79728EE33E040E050E03B
:10289000EB962CAF3DAF4EAF5FAFEB978EE091E084
:1028A000E5969FAF8EAFE597C457DF4F1982188228
:1028B000CC58D040C158DF4F1882CF57D04066E681
:1028C00071E08BE096E00E94F50E8091D906882396
:1028D00021F084ED96E00E949C091092B5061092BA
:1028E000B3061092B0061092AF068AE08093AE064F
:1028F0000E947F028B018091AE060E94E20061E09F
:102900008091AE060E940E02FFB6F89480910602F6
:10291000811124C0E0E5F1E08491E4E6F1E09491D6
:10292000E82FF0E0EE0FFF1FE45CFE4FA591B4919D
:10293000EC91E92321F461E08AE00E940E028AE032
:102940000E94E2008CB580618CBD8CB580648CBD2A
:102950008DE00E94E2008BE00E94E200809106027E
:102960008F5F80930602FFBE82E58093A8061092D7
:10297000A9068091A8069091A9060E94C1023AE09A
:10298000F32E8FEF0E949C02FA94F110FACF8AEA9C
:1029900096E00E94C40220E030E0A90160E08AEAEB
:1029A00096E00E94DA02F82E8093B40631E0831795
:1029B000B9F00E947F02601B710B613D774058F3B4
:1029C00081E08093AF068AEA96E00E94910284E952
:1029D00091E00E94500FFFCFE1E0F2CEE3E003CFA1
:1029E0002AEA31E040E050E068E08AEA96E00E949E
:1029F000DA0282FF2AC0F092B5068091B506C12C9A
:102A0000D12CE12C90E4F92E823019F0C12CD12C7C
:102A1000760120E030E0A90167E38AEA96E00E94AF
:102A2000DA02A701960169E28AEA96E00E94DA02D8
:102A30008093B4068823D1F00E947F02601B710B43
:102A4000613D774030F388E0BCCF24E0F22E0E9455
:102A5000A3028093B406FA94F110F9CF8A3A11F0E8
:102A600082E0AFCF82E08093B506C7CF8091B506F4
:102A70008230D1F420E030E0A9016AE38AEA96E0EE
:102A80000E94DA02882311F086E09BCF0E94A30205
:102A9000807C803C19F483E08093B5060E94A302F9
:102AA0000E94A3020E94A3028AEA96E00E94910279
:102AB00080E58093A8061092A90681E00E94C804D0
:102AC000882309F4A9C084ED96E00E947F0788233B
:102AD00009F47DCF8FE791E00E94500F1C821B828A
:102AE00002E311E01A8309831E82CE0101960E943F
:102AF0007F07BE016F5F7F4FCE01CB960E94480BD0
:102B000019A218A21F8F0E8F1BA221968FAD21979D
:102B1000811189C06C961FAE1EAE6C9788EE93E053
:102B2000A0E0B0E0A0968CAF9DAFAEAFBFAFA097D6
:102B30008EE091E06A969FAF8EAF6A97E3961FAEE4
:102B40001EAEE397A5961FAEA5976C968EAD9FAD72
:102B50006C97E7969FAF8EAFE797A0968CAD9DAD33
:102B6000AEADBFADA097EB968CAF9DAFAEAFBFAF94
:102B7000EB97A4968CAD9DADAEADBFADA497EF968F
:102B80008CAF9DAFAEAFBFAFEF97A8E5B0E0AC0F95
:102B9000BD1F1C96E3E7F0E0EC0FFD1F3C968D9106
:102BA0008193CA54DF4F28813981C65BD040E21738
:102BB000F307A9F7E396EEADFFADE397C457DF4FF8
:102BC000F983E883CC58D040309709F4CCC0858194
:102BD000882309F4C8C06AEA71E08BE096E00E949D
:102BE000F50E09E013E034E00930130709F446C09C
:102BF000D8014D915D916D917D918D0122E0CE01C5
:102C00008D589F4F0E94630F66E471E0CE018D588E
:102C10009F4F0E94F50EE7CF80E00E94C8048823F2
:102C200009F4D5CE50CF27E147EE51E0BE01655CF7
:102C30007F4FCE014E960E945110882309F46ACF2F
:102C4000CE01CB960E949C0949A95AA96BA97CA9DF
:102C5000CE014E960E94D307BE01625E7F4FCE0129
:102C600001960E94480B47EE51E0BE016F5F7F4F17
:102C7000CE01885A9F4F0E94FB1167CFC457DF4F88
:102C800088819981CC58D040009781F00E949C099E
:102C9000C457DF4F88819981CC58D0400E94B01E24
:102CA000C457DF4F19821882CC58D04089EC91E08C
:102CB0000E94500F09E0E02E04E0F02E89E0C82EBB
:102CC00083E0D82E10E000E0B80190E080E00E94A0
:102CD000D41B20E030E04CE752E40E94331B2BED84
:102CE0003FE049EC50E40E94CA1C0E942E1B2FE1D9
:102CF00035E84BEE5EE30E94CA1C9B01AC0161E724
:102D00007DE38AE09FE30E94BC1A4B015C01AC01A9
:102D10009B01F60160817181828193810E94CA1CAE
:102D2000D6016D937D938D939D936D01A5019401C3
:102D3000F70192918291729162917F010E94CA1C67
:102D4000D7016D937D938D939C9313970F5F1F4FC6
:102D50000032110509F0B8CFE9E0F3E050E040E0BF
:102D600090E080E020C089ED91E0A2CF481759079C
:102D7000C8F4DC01AA0FBB1FAA0FBB1FA75FBC4F83
:102D80000481158126813781CD90DD90ED90FC90F6
:102D90001397C482D582E682F7820D931D932D93FB
:102DA0003C931397349620E230E08217930728F083
:102DB000821B930B36952795F8CF820F931F4F5F99
:102DC0005F4F4F33510591F6C456DF4F1882198279
:102DD0001A821B82CC59D040C855DF4F1882C85A7E
:102DE000D040C755DF4F1882C95AD040B0E8C65509
:102DF000DF4FB883CA5AD040EFEBC555DF4FE883A9
:102E0000CB5AD04021E030E0CC56DF4F39832883C5
:102E1000C459D040CE56DF4F19821882C259D040D3
:102E2000CC56DF4F48815981C459D040440F551FBB
:102E3000CE54DF4F59834883C25BD040CC56DF4F1E
:102E400088819981C459D04073E0880F991F7A9581
:102E5000E1F7C455DF4F99838883CC5AD040CC56D4
:102E6000DF4FA881B981C459D040AA0FBB1FAA0F58
:102E7000BB1FC255DF4FB983A883CE5AD040E7E0CD
:102E8000F2E0C056DF4FF983E883C05AD04029E012
:102E900033E0CE55DF4F39832883C25AD040412CCE
:102EA000512C3201312C212C10E80FE3CA56DF4F90
:102EB00019821882C659D040CA56DF4F48815981BD
:102EC000C659D040CC56DF4F88819981C459D04033
:102ED0004817590709F4C3C1C056DF4FA881B9810B
:102EE000C05AD040C057DF4FB983A883C059D040E3
:102EF000CE55DF4FE881F981C25AD040C257DF4F2B
:102F0000F983E883CE58D040CA55DF4F59834883B0
:102F1000C65AD040CA55DF4F28813981C65AD040A1
:102F20002034310508F010C1C257DF4F4881598164
:102F3000CE58D040C255DF4F88819981CE5AD040BB
:102F4000480F591FC055DF4F59834883C05BD0409D
:102F5000DA018D909D90AD90BC90C057DF4FE88115
:102F6000F981C059D040E80FF91FCC54DF4FF983E5
:102F7000E883C45BD0402081318142815381C856AF
:102F8000DF4F288339834A835B83C859D040232D80
:102F9000322D412F502FC501B4010E94CA1C6B0174
:102FA0007C01A3019201C856DF4F688179818A8133
:102FB0009B81C859D0400E94CA1C9B01AC01C7012B
:102FC000B6010E94BC1A6B017C01C856DF4F2881F4
:102FD00039814A815B81C859D040632D722D812F80
:102FE000902F0E94CA1CC856DF4F688379838A835A
:102FF0009B83C859D040A3019201C501B4010E942E
:10300000CA1C9B01AC01C856DF4F688179818A8157
:103010009B81C859D0400E94BD1A4B015C01A70199
:103020009601C257DF4FE881F981CE58D0406081C8
:103030007181828193810E94BC1AC055DF4FA881A3
:10304000B981C05BD0406D937D938D939C93139712
:10305000A5019401C057DF4FE881F981C059D040E4
:1030600060817181828193810E94BC1ACC54DF4FB0
:10307000A881B981C45BD0406D937D938D939C935F
:103080001397A7019601C257DF4FE881F981CE5807
:10309000D04060817181828193810E94BD1AC257A4
:1030A000DF4FA881B981CE58D0406D937D938D9329
:1030B0009C931397A5019401C057DF4FE881F981D4
:1030C000C059D04060817181828193810E94BD1A74
:1030D000C057DF4FA881B981C059D0406D937D930F
:1030E0008D939C931397CA55DF4FE881F981C65A97
:1030F000D040CE54DF4F28813981C25BD040E20FEF
:10310000F31FCA55DF4FF983E883C65AD040C25730
:10311000DF4F48815981CE58D040C455DF4F888158
:103120009981CC5AD040480F591FC257DF4F59835D
:103130004883CE58D040A80FB91FC057DF4FB9837E
:10314000A883C059D040E6CE232D322D412F502FD9
:10315000C855DF4F6881C85AD040C755DF4F7881C6
:10316000C95AD040C655DF4F8881CA5AD040C5558C
:10317000DF4F9881CB5AD0400E94CA1C6B017C0162
:10318000A3019201C456DF4F688179818A819B81B6
:10319000CC59D0400E94CA1C9B01AC01C701B601AA
:1031A0000E94BC1A6B017C01A3019201C855DF4F3C
:1031B0006881C85AD040C755DF4F7881C95AD0407E
:1031C000C655DF4F8881CA5AD040C555DF4F988118
:1031D000CB5AD0400E94CA1C4B015C01232D322DDA
:1031E000412F502FC456DF4F688179818A819B819E
:1031F000CC59D0400E94CA1CA50194010E94BD1A5E
:103200002B013C01CA56DF4FA881B981C659D04075
:103210001196CA56DF4FB983A883C659D040CE5500
:10322000DF4FE881F981C25AD0403496CE55DF4F46
:10323000F983E883C25AD040C056DF4F28813981D4
:10324000C05AD0402C5F3F4FC056DF4F3983288390
:10325000C05AD0403C2C2D2C1E2D0F2D2DCECE56DD
:10326000DF4FE881F981C259D040E251FF4F85918B
:103270009591A591B491CE56DF4FE881F981C2595D
:10328000D040E655FF4F4591559165917491C855D1
:10329000DF4F4883C85AD040C755DF4F5883C95ABB
:1032A000D040C655DF4F6883CA5AD040C555DF4F5E
:1032B0007883CB5AD0409C01AD015058C456DF4FA3
:1032C000288339834A835B83CC59D040CE56DF4F65
:1032D00048815981C259D0404C5F5F4FCE56DF4F75
:1032E00059834883C259D040CE54DF4F8881998199
:1032F000C25BD040CC56DF4F99838883C459D040FD
:103300004831510509F08CCD07E012E049E0C42EA8
:1033100043E0D42ED6016D917D918D919D916D01EB
:10332000F80181909190A190B1908F019B01AC0127
:103330000E94CA1C2B013C01A5019401C501B401E6
:103340000E94CA1C9B01AC01C301B2010E94BD1ABC
:103350000E943D1DF60134976083718382839383BD
:10336000F9E0CF16F4E0DF06A9F629E0E22E23E02B
:10337000F22E10E000E0512C412C312C212CAA24FB
:10338000A394B12CD7016D917D918D919D917D017B
:103390006C9011967C90119712968C9012971396C0
:1033A0009C90F5013196C257DF4FF983E883CE58E0
:1033B000D0409301A4010E94291B87FF1CC0D701A4
:1033C00014962D913D914D915C911797B301C401D5
:1033D0000E94C51C18167CF49301A401652D742D60
:1033E000832D922D0E94291B87FF05C08501562C35
:1033F000472C382C292CC257DF4FA880B980CE58D3
:10340000D040B1E2AB16B10409F0BCCF0150104C72
:10341000000F111F000F111FF801E75FFC4F7F0124
:10342000F801E35FFC4F60817181828193819B0190
:10343000AC010E94BD1A9B01AC01D7016D917D9139
:103440008D919C910E94BC1A0F5E1C4FF801208147
:103450003181428153810E94BD1A4B015C0120E001
:1034600030E0A9010E94C51C181624F0B7FAB094E8
:10347000B7F8B094412C512C3201CC55DF4FA881C4
:10348000B981C45AD0406D917D918D919D91CC555B
:10349000DF4FB983A883C45AD0409B01AC010E947E
:1034A000CA1C9B01AC01C301B2010E94BD1A2B01D1
:1034B0003C01CC55DF4FE881F981C45AD040CE168B
:1034C000DF06D9F6A5019401C501B4010E94CA1C0A
:1034D0009B01AC01C301B2010E94BC1A0E943D1DB8
:1034E000A50194010E94331BAB01BC0122E083EFD4
:1034F00096E00E94630F62EF71E083EF96E00E9416
:10350000F50E0E945A026B017C0188EE882E83E042
:10351000982EA12CB12C0E945A026C197D098E099B
:103520009F09683E734081059105A8F3F1E08F1A69
:103530009108A108B10828EEC20E23E0D21EE11CBA
:10354000F11C81149104A104B10429F780910703AF
:10355000909108030196909308038093070380E0FD
:1035600090E0892B09F426C90E946B01882309F495
:1035700021C90E9400001EC95058BB27AA270E94DB
:10358000D41A0C94771C0E943E1C38F00E94451CF3
:1035900020F039F49F3F19F426F40C943B1C0EF4F0
:1035A000E095E7FB0C94351CE92F0E949C1C58F316
:1035B000BA17620773078407950720F079F4A6F518
:1035C0000C94BE1C0EF4E0950B2EBA2FA02D0B010F
:1035D000B90190010C01CA01A0011124FF27591B58
:1035E00099F0593F50F4503E68F11A16F040A22F5E
:1035F000232F342F4427585FF3CF469537952795CF
:10360000A795F0405395C9F77EF41F16BA0B620BCD
:10361000730B840BBAF09150A1F0FF0FBB1F661F14
:10362000771F881FC2F70EC0BA0F621F731F841F57
:1036300048F4879577956795B795F7959E3F08F07D
:10364000B0CF9395880F08F09927EE0F979587953F
:1036500008950E94111C08F481E008950E944E1CF8
:10366000E3950C94881C0E94471B0C94771C0E94C5
:10367000451C58F00E943E1C40F029F45F3F29F0A1
:103680000C94351C51110C94BF1C0C943B1C0E94D3
:103690009C1C68F39923B1F3552391F3951B550BAB
:1036A000BB27AA2762177307840738F09F5F5F4F15
:1036B000220F331F441FAA1FA9F335D00E2E3AF054
:1036C000E0E832D091505040E695001CCAF72BD06C
:1036D000FE2F29D0660F771F881FBB1F26173707BD
:1036E0004807AB07B0E809F0BB0B802DBF01FF27EF
:1036F00093585F4F3AF09E3F510578F00C94351C7B
:103700000C94BF1C5F3FE4F3983ED4F38695779505
:103710006795B795F7959F5FC9F7880F911D9695A7
:10372000879597F90895E1E0660F771F881FBB1F03
:10373000621773078407BA0720F0621B730B840BB0
:10374000BA0BEE1F88F7E09508950E94A41C88F03C
:103750009F5798F0B92F9927B751B0F0E1F0660F55
:10376000771F881F991F1AF0BA95C9F714C0B13096
:1037700091F00E94BE1CB1E008950C94BE1C672F0E
:10378000782F8827B85F39F0B93FCCF386957795C5
:103790006795B395D9F73EF49095809570956195AE
:1037A0007F4F8F4F9F4F0895E89409C097FB3EF4D9
:1037B00090958095709561957F4F8F4F9F4F99237E
:1037C000A9F0F92F96E9BB279395F69587957795FC
:1037D0006795B795F111F8CFFAF4BB0F11F460FFBC
:1037E0001BC06F5F7F4F8F4F9F4F16C0882311F014
:1037F00096E911C0772321F09EE8872F762F05C028
:10380000662371F096E8862F70E060E02AF09A95C2
:10381000660F771F881FDAF7880F9695879597F9B7
:103820000895990F0008550FAA0BE0E8FEEF161651
:103830001706E807F907C0F012161306E407F507A4
:1038400098F0621B730B840B950B39F40A2661F018
:10385000232B242B252B21F408950A2609F4A140BB
:10386000A6958FEF811D811D089597F99F6780E8C8
:1038700070E060E008959FEF80EC089500240A94C2
:103880001616170618060906089500240A9412163B
:1038900013061406050608950C943B1C0E94A41CF4
:1038A000D8F3E894E0E0BB279F57F0F02AED3FE023
:1038B00049EC06C0EE0FBB0F661F771F881F28F06C
:1038C000B23A62077307840728F0B25A620B730B8F
:1038D000840BE3959A9572F7803830F49A95BB0F74
:1038E000661F771F881FD2F790480C94841D092EFD
:1038F0000394000C11F4882352F0BB0F40F4BF2B4B
:1039000011F460FF04C06F5F7F4F8F4F9F4F08958A
:10391000EF93E0FF07C0A2EA2AED3FE049EC5FEB3E
:103920000E94D41A0E94771C0F90039401FC9058B7
:10393000E8E6F0E00C94971D57FD9058440F551F92
:1039400059F05F3F71F04795880F97FB991F61F021
:103950009F3F79F087950895121613061406551F98
:10396000F2CF4695F1DF08C0161617061806991F04
:10397000F1CF86957105610508940895E894BB27F9
:1039800066277727CB0197F908950E94111C08F448
:103990008FEF08950E94DD1C0C94771C0E943E1C42
:1039A00038F00E94451C20F0952311F00C94351C32
:1039B0000C943B1C11240C94BF1C0E949C1C70F3A3
:1039C000959FC1F3950F50E0551F629FF001729FC4
:1039D000BB27F00DB11D639FAA27F00DB11DAA1FD3
:1039E000649F6627B00DA11D661F829F2227B00D20
:1039F000A11D621F739FB00DA11D621F839FA00DAB
:103A0000611D221F749F3327A00D611D231F849FFA
:103A1000600D211D822F762F6A2F11249F57504051
:103A20009AF0F1F088234AF0EE0FFF1FBB1F661FCC
:103A3000771F881F91505040A9F79E3F510580F095
:103A40000C94351C0C94BF1C5F3FE4F3983ED4F3F8
:103A5000869577956795B795F795E7959F5FC1F739
:103A6000FE2B880F911D9695879597F9089519F467
:103A700016F40C943B1C0C94821D0E94A41CB8F3F9
:103A80009923C9F3B6F39F57550B87FF0E94901DEA
:103A90000024A0E640EA900180585695979528F4B6
:103AA000805C660F771F881F20F0261737074807AE
:103AB00030F4621B730B840B202931294A2BA69505
:103AC00017940794202531254A2758F7660F771F4A
:103AD000881F20F026173707480730F4620B730B56
:103AE000840B200D311D411DA09581F7B901842F54
:103AF0009158880F9695879508950E94111C880B00
:103B0000990B08959F3F31F0915020F48795779558
:103B10006795B795880F911D9695879597F90895A4
:103B200091505040660F771F881FD2F708959F93DA
:103B30008F937F936F93FF93EF939B01AC010E9450
:103B4000CA1CEF91FF910E94AB1D2F913F914F91A5
:103B50005F910C94CA1CDF93CF931F930F93FF9236
:103B6000EF92DF927B018C01689406C0DA2EEF01A0
:103B70000E94DD1CFE01E894A591259135914591A7
:103B80005591A6F3EF010E94D41AFE019701A801F6
:103B9000DA9469F7DF90EF90FF900F911F91CF912A
:103BA000DF910895A1E21A2EAA1BBB1BFD010DC0D7
:103BB000AA1FBB1FEE1FFF1FA217B307E407F507DD
:103BC00020F0A21BB30BE40BF50B661F771F881FB9
:103BD000991F1A9469F760957095809590959B014F
:103BE000AC01BD01CF0108950E94051EA59F900D57
:103BF000B49F900DA49F800D911D11240895EE0F88
:103C0000FF1F0590F491E02D0994A29FB001B39F8E
:103C1000C001A39F700D811D1124911DB29F700DD5
:103C2000811D1124911D08950F931F93CF93DF934E
:103C30008230910510F482E090E0E0910D07F09160
:103C40000E0730E020E0B0E0A0E0309799F42115B5
:103C5000310509F44AC0281B390B24303105D8F549
:103C60008A819B816115710589F1FB0193838283B0
:103C7000FE0111C04081518102811381481759070B
:103C8000E0F04817590799F4109761F012960C93D9
:103C9000129713961C933296CF01DF91CF911F910B
:103CA0000F91089500930D0710930E07F4CF21157F
:103CB000310551F04217530738F0A901DB019A0191
:103CC000BD01DF01F801C1CFEF01F9CF90930E07DD
:103CD00080930D07CDCFFE01E20FF31F81939193E7
:103CE0002250310939832883D7CF20910B07309197
:103CF0000C07232B41F420910601309107013093EA
:103D00000C0720930B072091040130910501211528
:103D1000310541F42DB73EB740910801509109019A
:103D2000241B350BE0910B07F0910C07E217F3070A
:103D3000A0F42E1B3F0B2817390778F0AC014E5F1B
:103D40005F4F2417350748F04E0F5F1F50930C0745
:103D500040930B07819391939FCFF0E0E0E09CCFDD
:103D6000CF93DF930097E9F0FC0132971382128220
:103D7000A0910D07B0910E07ED0130E020E0109703
:103D8000A1F420813181820F931F20910B07309184
:103D90000C072817390709F061C0F0930C07E0936E
:103DA0000B07DF91CF910895EA01CE17DF07E8F501
:103DB0004A815B819E0141155105B1F7E901FB8301
:103DC000EA8349915991C40FD51FEC17FD0761F49F
:103DD000808191810296840F951FE90199838883E0
:103DE000828193819B838A83F0E0E0E012968D913B
:103DF0009C9113970097B9F52D913C911197CD01A6
:103E00000296820F931F20910B0730910C07281701
:103E1000390739F6309751F510920E0710920D07B9
:103E2000B0930C07A0930B07BCCFD383C283408110
:103E30005181840F951FC817D90761F44E5F5F4FFA
:103E400088819981480F591F518340838A819B81C2
:103E5000938382832115310509F0B0CFF0930E07CB
:103E6000E0930D079ECFFD01DC01C0CF13821282CB
:103E7000D7CFFB01DC0104C08D910190801921F4A2
:103E800041505040C8F7881B990B0895FB01DC0195
:103E90004150504048F001900D920020C9F701C0F8
:0E3EA0001D9241505040E0F70895F894FFCF76
:103EAE00FFFFFFFF00000F07800000000000DE0B89
:103EBE00C10B420D990BA10B140D1E0D000000003D
:103ECE00A10101012E01EE015F013D015101000032
:103EDE000000370B0101420D980B00000000830E0D
:103EEE000101420D980B0D0A006E616E00696E663F
:103EFE00006F7666005448443A200020202020208F
:103F0E00202020202000496E696369616C697A6106
:103F1E006E646F20534420636172642E2E2E00490E
:103F2E006E696369616C697A6163616F2066656948
:103F3E0074612E00496E696369616C697A616361AF
:103F4E006F2066616C686F75210046617A656E64DC
:103F5E006F20726567697374726F206E6F20617265
:103F6E00717569766F2E2E2E0052656769737472A5
:103F7E006F20466569746F2E004572726F20616FF7
:103F8E00206162726972206F7363696C6F2E747830
:063F9E0074002025000064
:00000001FF
